:020000040800F2
:10000000402B0120590200087147000811340008F4
:100010001B410008BF16000891CA0008000000003C
:10002000000000000000000000000000659B0008C8
:100030003D20000800000000F3060008F1AB0008B6
:1000400073020008730200087302000873020008BC
:1000500073020008730200084120000831230008E1
:1000600035250008730200084F25000873020008B8
:10007000730200087302000873020008730200088C
:10008000730200087302000873020008730200087C
:100090007302000873020008730200086925000853
:1000A000730200083DAF00087302000873020008E5
:1000B00069AF0008730200087302000873020008A9
:1000C000730200087302000873020008730200083C
:1000D00073020008A5BC000885BE000881BF0008A7
:1000E0003D22000873020008730200087302000832
:1000F00073020008730200086DB200087302000862
:1001000073020008730200087302000873020008FB
:10011000E1B9000811BB00087302000829B2000809
:10012000851E0008730200087302000873020008AD
:1001300073020008730200087302000873020008CB
:1001400073020008730200087302000873020008BB
:1001500073020008730200087302000873020008AB
:10016000730200087302000873020008730200089B
:10017000730200087302000873020008730200088B
:10018000730200087302000800F002F800F054F84F
:100190000AA090E8000C82448344AAF10107DA45E2
:1001A00001D100F049F8AFF2090EBAE80F0013F0E0
:1001B000010F18BFFB1A43F001031847DCE90000E8
:1001C000FCE900000A4410F8014B14F00F0508BFC9
:1001D00010F8015B240908BF10F8014B6D1E05D013
:1001E00010F8013B6D1E01F8013BF9D1641E03D0EC
:1001F000641E01F8015BFBD19142E4D3704700001B
:100200000023002400250026103A28BF78C1FBD81F
:10021000520728BF30C148BF0B607047642900F007
:100220008B80782900F0C480002070471FB50EF045
:10023000F0FA1FBD10B510BD00F012FA1146FFF71D
:10024000F5FF0DF0CFF800F030FA03B4FFF7F2FF3E
:1002500003BC0CF066FC00000948804709480047D1
:10026000FEE7FEE7FEE7FEE7FEE7FEE7FEE7FEE766
:10027000FEE7FEE704480549054A064B70470000C3
:1002800015AC00088901000840250120402B012001
:10029000402701204027012072B6704762B67047A0
:1002A000EFF3108072B6704780F31088704730BF4C
:1002B000704720BF7047B0FA80F0704790FAA0F006
:1002C000B0FA80F0704790FAA0F0704770470000D5
:1002D0000FB4044910B503AA029800F08FF910BCBE
:1002E0005DF814FB0C02002070B5044685690068B7
:1002F000C10601D5302600E02026C00707D070BD1A
:10030000D4E9012130469047206A401C20626D1ECE
:10031000F6D570BD70B5044685690078C00707D171
:1003200070BDD4E9012120209047206A401C206242
:100330006D1EF6D570BD00002DE9F0410646002483
:1003400010687529314616A510D0AFF3008000283B
:1003500002DA404213A507E031688A0701D512A5E9
:1003600002E0490704D511A5012401E0AFF30080A4
:1003700000210A2206F1240709E0B0FBF2FCB0FBE1
:10038000F2F302FB1C00303078541846491C002858
:10039000F3D123462A463046BDE8F04100F0D4B8F8
:1003A000000000002D0000002B00000020000000D5
:1003B00070B504460D4621461068AFF300802188D1
:1003C000090502D50F4A7A4402E00E4A7A440E32F9
:1003D000002104F1240305E000F00F060009965DFA
:1003E0005E54491C0028F7D120780023000704D56B
:1003F000702D02D009B1022311322046BDE87040B1
:1004000000F0A2B892E700002DE9F05F89460446AB
:100410004FF0000ADFF824B1FB44C0F820A02046CA
:10042000E168884700287DD0252806D0D4E901213D
:100430009047206A401C2062F1E700255F46204675
:10044000E16888472028064607DB312E05D2B81917
:1004500010F8200C08B10543F1E7A80701D525F0F5
:100460000405C4F81CA00027C4F818A02A2E09D03F
:1004700030460CF04FFB38B304EB8708303EC8F829
:10048000186019E059F8041B204604EB87029161BB
:10049000E1688847012F064618D1E069002820DA74
:1004A00025F020051DE0D8F8180000EB800006EBD1
:1004B00040003038C8F818002046E16888470646F2
:1004C0000CF028FB0028EED1012F0AD02E2E08D1E7
:1004D0002046E16888477F1C0646022F45F020052C
:1004E000C4DBA069002803DA404245F00105A061A1
:1004F000E80701D025F01005A6B1A6F141001928A2
:1005000002D8203645F400654A463146204625602B
:100510004D46FFF783FE60B1012807D0ED1D25F0A1
:10052000070000E007E000F1080978E705F1040999
:1005300075E730467AE7206ABDE8F09F68E700007B
:1005400070477047704770472DE9F0470D46994650
:100550009246044600F124080168880604D5E06943
:1005600021F01001216000E00120A84201DD471BBD
:1005700000E00027A1697A1902EB0900081AA061BE
:100580002078C00602D42046FFF7AEFE002608E021
:10059000D4E901211AF806009047206A401C761C15
:1005A00020624E45F4DB2078C0060AD52046FFF7CE
:1005B0009BFE06E0D4E9012130209047206A401CD0
:1005C0002062381EA7F10107F4DC07E0D4E901211D
:1005D00018F805009047206A401C2062281EA5F1EB
:1005E0000105F3DC2046FFF795FE2078000602D5D2
:1005F0000220BDE8F0870120FBE70000074B70B543
:100600000D467B4400F011F80446284600F020F81F
:1006100010B14FF0FF3070BD204670BDC3CD00005B
:1006200001694A1C02610878704700B58FB0CDE9B6
:1006300001310021059105497944CDE903101146A6
:100640006846FFF7E1FE0FB000BD0000E5FFFFFFC9
:10065000007B00F08000704700487047E0240120D4
:100660007546FFF7F9FFAE4605006946534620F090
:100670000700854618B020B5FFF7FCFDBDE8204017
:100680004FF000064FF000074FF000084FF0000B4E
:1006900021F00701AC46ACE8C009ACE8C009ACE801
:1006A000C009ACE8C0098D46704710B50446AFF3E9
:1006B00000802046BDE81040FFF7C7BD22484FF636
:1006C000FF710170002080F309882048016881F3E0
:1006D00008881F484FF08051016062B6FEE71C4851
:1006E0004FF080510160704719484FF08051016010
:1006F000704772B6EFF3098050B11EF0100F08BFBB
:1007000020ED108A203880E8F00F1249096808604F
:1007100000B5114880475DF804EB104810490A788D
:1007200002700C480F490A680260106890E8F00FE8
:1007300020301EF0100F08BFB0EC108A80F309883B
:100740004EF0040E62B6704722ED00E01400002067
:1007500004ED00E0E0000020AD6000086E00002025
:100760006F000020E400002000B58BB001210802DA
:1007700008F0D4FF00F0DAF800F096F80121080242
:1007800008F0DCFF00214FF4807008F0D7FF002054
:10079000099007904FF48030089000200A9007A835
:1007A00000F054F80020019001208DF808008DF829
:1007B000090000200390059006208DF8180001A97B
:1007C0001B4800F0D9F80121194800F033F806233E
:1007D00001220B21164800F0F9F8062302220A2113
:1007E000134800F0F3F8062303220C21104800F010
:1007F000EDF80623042201210D4800F0E7F8062356
:10080000052200210A4800F0E1F806231A460D21CE
:10081000074800F0DBF8064800F034F901210448ED
:1008200000F037F80121024800F028F80BB000BDB5
:100830000020014021B1826842F00102826003E0A1
:10084000826822F001028260704700000021084A9D
:100850001168084A1140D0E900231A4383681A43FB
:10086000C3681A431143044AC2F8041370470000D6
:1008700004230140E030FCFF0020014021B18268E8
:1008800042F48072826003E0826822F480728260A7
:10089000704721B1826842F40072826003E082688E
:1008A00022F400728260704700B58FB00121880584
:1008B00008F004FF00BF1A4801F039FB0028FAD104
:1008C0000090184801901848029000200390602082
:1008D0000490002005904FF480600690400007903F
:1008E0000890C010099040020A9000200B9001204F
:1008F0000C9000200D900E906946094801F072FBA3
:100900000121074801F008FB1021054801F0D0FA49
:1009100001221021024801F047FB0FB000BD00008A
:10092000106402404C200140A01D00201CB5012194
:10093000042008F0C3FE0F20009003208DF804006F
:1009400000208DF807006946094802F041F90121AD
:10095000084608F0B3FE032000908DF80400002044
:100960008DF807006946034802F032F91CBD00000B
:10097000000802400000024030B50246002000237B
:100980005068104C20400D790C6844EA052420433F
:10099000506090680C4C2040D1E903542C438D6882
:1009A0002C434D7944EA450420439060D06A20F4FA
:1009B00070000C7D641EE4B2234340EA0350D06211
:1009C00030BD0000FFFEFFFCFDF7FFC0F0B50446A0
:1009D0000D4600200021092D11DDE068A5F10A0671
:1009E00006EB4607072606FA07F18843A5F10A0633
:1009F00006EB460603FA06F10843E0600CE02069C6
:100A000005EB4507072606FA07F1884305EB45067F
:100A100003FA06F108432061072A0FDA606B561EBD
:100A200006EB86071F2606FA07F18843561E06EBDB
:100A3000860605FA06F10843606322E00D2A0FDA04
:100A4000206BD61F06EB86071F2606FA07F18843A0
:100A5000D61F06EB860605FA06F10843206310E070
:100A6000E06AA2F10D0606EB86071F2606FA07F1DB
:100A70008843A2F10D0606EB860605FA06F1084347
:100A8000E062F0BD816841F080418160704710B53F
:100A900002F070FE10BD70B50446002602F020FF83
:100AA0002546E11704EB11610912A02202EB410176
:100AB000C8B202F0DFFE02F05DFFE11704EB116146
:100AC0000912A4EB0121C8B202F0D4FE02F052FFD9
:100AD00002F006FFA12002F0CDFE02F04BFF002045
:100AE00002F094FE064602F021FF304670BD70B55C
:100AF00004460E4602F0F4FE2546E11704EB1161B0
:100B00000912A02202EB4101C8B202F0B3FE02F0CA
:100B100031FFE11704EB11610912A4EB0121C8B206
:100B200002F0A8FE02F026FF304602F0A3FE02F01B
:100B300021FF02F0FBFE32200CF0B6FB70BD00007E
:100B400010B5FF20FFF7A7FF04465A2C08D138A0A4
:100B5000FFF7BEFB01203B4981F83000002010BDAB
:100B600043F2B0603849088200F084FE3648008ABB
:100B7000642190FBF1F03449097B48433249C88134
:100B80000020304908728872487230A0FFF7A0FB3D
:100B90002D48008A010A0220FFF7A9FF2A48017C9C
:100BA0000320FFF7A4FF2848C089010A0420FFF7AB
:100BB0009EFF2548817B0520FFF799FF00202949EA
:100BC000487288720846417A0620FFF790FF254850
:100BD000817A0720FFF78BFF1A48017A0820FFF778
:100BE00086FF1848817A0920FFF781FF1548417A6E
:100BF0000A20FFF77CFF5A21FF20FFF778FFFF2034
:100C0000FFF749FF044602200CF04EFB214616A0D8
:100C1000FFF75EFB5A2C08D102200A4981F8300008
:100C200018A0FFF755FB002099E7012097E7000087
:100C30005265616420415432347878204F4B210D45
:100C40000A0000009C1E00209A1F00204669727353
:100C500065205772697465204154323478782021B8
:100C60000D0A0000341F00207772697465206669E0
:100C700072737420737461203A20253032780D0A23
:100C8000000000004669727365205265616420416E
:100C90005432347878204F4B210D0A002DE9F04F63
:100CA00085B0002004908346F748407901287DD123
:100CB0000020F549487148800871084690F80A906C
:100CC00090F80BA0BAF1010FF1D190F80C80B8F1B7
:100CD000610F6CD01ADCB8F1090F69D00CDCB8F1E7
:100CE000010F2ED0B8F1060F7ED0B8F1070F7CD0DF
:100CF000B8F1080F7AD128E1B8F1100F77D0B8F128
:100D0000110F75D0B8F1150FF4D134E0B8F1750FAB
:100D10006FD00CDCB8F1620F6CD0B8F1630F6AD001
:100D2000B8F1640F68D0B8F1710FE3D10AE2B8F1FD
:100D3000770F79D0B8F1810F77D0B8F1820FD9D180
:100D4000B5E20020D14988830846007E01280FD1F2
:100D50000020CF490880488008460168009140681B
:100D600003460A46FF210190012009F06BF901E0DA
:100D700009F08AFD9DE20020C4494883C248C08929
:100D80000390C148008A0290BDF80C1088B20DF0A3
:100D9000EDF804B2BDF8081088B20DF0E7F807B21C
:100DA00040F2DC50844204DD044606E082E295E134
:100DB000A5E0B848844200DA044604B98FB10020A7
:100DC000B2490875B44908750120B049C8750020BA
:100DD00008740320C8770020AF4981F82C0081F8FF
:100DE0003800AA48007E08E014E1A1E060E2CBE010
:100DF000F3E0BDE186E190E19AE1012804D0A74843
:100E000090F82400012816D1A448007F01280DD1B4
:100E10000020A249088048800A46B2F90210B2F9BF
:100E2000000009F06FFD69E0FFE115E201210846CD
:100E300009F032FD62E09548007E01285ED09348BB
:100E4000007D28BB9148407900F0030020B98F480D
:100E5000C07A00F0010030B1002C04DD00208F4981
:100E6000088048801BE08948407900F0300020B9B4
:100E70008648C07A00F0020030B1002C04DA00206D
:100E80008649088048800AE084480480478006E05C
:100E90008148008D814908807F48408D48807F4887
:100EA0000088E0B97D484088C8B97D48007D00F0E1
:100EB0000100A0B97948407F012808D17748007F18
:100EC000012804D10021084609F0E6FC16E0734A27
:100ED000B2F90210B2F9000009F014FD0EE06F48FB
:100EE000007F20B90121084609F0D6FC06E06B4AD4
:100EF000B2F90210B2F9000009F004FDD9E1684826
:100F0000007D654991F8381008436049486264489B
:100F1000017B5E488162634908780978491C614B0E
:100F200019705A49D1E90923494609F0F9F8C0E195
:100F30005648C37A427949465B48007809F02CF854
:100F40005148C07B51498873B3E15548007D00F09A
:100F5000010090B94C4890F80EB04C48C07F012871
:100F60000BD001204949C87781F830004A490875FB
:100F70000020464908750120C8755A4649464A4826
:100F8000007808F011FE94E1484890ED080AF2EE6E
:100F9000040A20EE200ABDEEC00A10EE100A00B2CC
:100FA0003A498885414890ED030AF2EE040A20EEA2
:100FB000200ABDEEC00A10EE100A01B23348C18506
:100FC000384908780978491C364B197000232F4995
:100FD000CA6A494608F0DCFE6BE12B48807B2A494F
:100FE000CD7B60F31F250846007C4E7C60F31F26F6
:100FF0003146284602F00EFA33462A462949087837
:101000000978491CDFF89CE08EF80010494608F08A
:1010100047FE4EE11C48807B401F05284BD2DFE88D
:1010200000F0030F1B2747002048007840F0100015
:101030001E4908700846007820F0400008703EE025
:101040001A48007840F020001849087008460078D7
:1010500020F08000087032E01448007840F0400032
:10106000124908700846007820F01000087026E049
:101070000E48007840F080000C490870084600785F
:1010800020F0200008701AE0B84F00209C1E0020BD
:101090000001002024FAFFFF601E0020741F0020C2
:1010A0009A1F00200901002008010020341F0020A1
:1010B00002F0C0F903E000208049087000BF00BFC3
:1010C0007F498A7B7F4908780978491CDFF8F4C199
:1010D0008CF80010494608F021FEEAE07848807B51
:1010E000794981F820007648C07B81F82100754954
:1010F00008780978491C734B1970744A494608F0FE
:10110000C9FED6E06F4908780978491C6D4B197003
:101110006F4A494609F0CEF8CBE06A490878097869
:10112000491C684B19706A4A494608F075FDC0E0D1
:10113000644908780978491C624B1970494608F0DF
:10114000EBFEB6E05E48C17B807B41EA00205F4950
:10115000C8800020C870CA885A4908780978491C94
:10116000DFF860C18CF80010494609F027F8A0E0CC
:10117000524890F90A0000EE100AB8EEC00A4F4833
:10118000D0ED030A30EE200ADFED520A30EE600A9D
:10119000BDEEC00A10EE100A40B2484988720846F7
:1011A00090F909005A3000EE100AB8EEC00A08465D
:1011B000D0ED080A30EE600ABDEEC00A10EE100A4B
:1011C00040B248729FED430A084680ED030A9FED46
:1011D000410A80ED080A90F9090000EE100AB8EE05
:1011E000C00AF0EE400A9FED3B0A09F025FC3348A7
:1011F00090F90A0000EE100AB8EEC00AF0EE400ABC
:101200009FED340A09F042FC2C4991F90A3091F91A
:1012100009202C4908780978491CDFF8A8E08EF8E5
:101220000010494609F0F4FA43E02548807B26493E
:1012300008722348C07B48722148007C88720A7A71
:10124000204908780978491CDFF878C08CF800102C
:10125000494609F081FB2CE01948807B1B49C87284
:101260004FF6FF70C8801648C07B40B21A4981F81B
:1012700048001348007CC8701148407C81F84A003F
:10128000084690F8480020B100200F49C875022098
:10129000C8770E49CA7A0B4908780978491CDFF8E3
:1012A00024C08CF80010494608F0BAFD01E000E0C7
:1012B00000BF00BF05B0BDE8F08F0000341F002064
:1012C000B84F0020080100209C1E0020681F00204D
:1012D000201F00200000B442D01E002010B501F0F5
:1012E0001BFE5848007E00F0200068B95548007E7B
:1012F00040F02000534908760846007E00F02000A8
:10130000087600F023FB96E04E48407E002860D12E
:101310004C48007E00F0FE004A4908760846007BF3
:10132000D0B90846807BB8B90020474908704549C4
:1013300048768876022081F826000846006A4EF634
:101340006021884273D93F48007E40F040003D490B
:101350000876012048756AE03A48007E40F00100B6
:101360003849087600203849087004203549487605
:1013700000F0CAFB3348007C48B13248807C30B969
:10138000022030498876062081F826004FE02D485B
:10139000007C48B92B48807C30B1032029498876ED
:1013A000022081F8260042E02648007C48B125480A
:1013B000807C30B1012023498876052081F8260001
:1013C00035E02048807E1F498876022081F826007B
:1013D0002DE000F099FB00F0CFFA00F085FA1949F2
:1013E00091F8260000F096FA164991F8260000F0D0
:1013F0002DF81448407E042801D100F05FFB11480D
:10140000007B88B90F48807B70B90F480078401C7A
:101410000D49087008460078C82808DD00200870CB
:1014200008494876887602E0002007490870054898
:10143000002101608160034991F8260000F006F860
:1014400010BD0000601E0020EC0000203F49097E16
:10145000012903D1002000213D4A117008286FD2D4
:10146000DFE800F06E6855186E04412D38490978A0
:1014700081420ED03649087042F21061354A11841B
:1014800043F2106151846FF03B01334A1185002112
:10149000518559E02E49097881420FD02C490870B6
:1014A00042F210612B4A118443F2106151846FF0B3
:1014B0002701294A11856FF0F501518544E024493F
:1014C000097881420ED02249087042F21061214A07
:1014D000118443F2106151846FF027011E4A118577
:1014E000F621518530E01A49097881420ED0184919
:1014F000087042F22061174A118443F2206151843E
:101500000021154A11856FF0F90151851CE0104941
:10151000097881420DD00E49087042F220610D4ACF
:10152000118443F22061518400210B4A1185FA2174
:10153000518509E05A21074A1181518104E0FFE7F2
:101540000021034A117000BF00BF70479C1E00209D
:10155000F6000020741F0020601E00200EB500BFA2
:101560007AE03E48007D012862D13D48007D00F0D0
:101570000100002850D13B48C07D012842D13948A4
:1015800090F8380002283DD0002036498875C820E0
:10159000088500204885642033490881488142F24B
:1015A0002060088443F2206048844FF4FA600BF016
:1015B0007BFE00202B49088548852B4908814881FE
:1015C000C8200BF071FE00202649C87581F82C0058
:1015D000084690F83900401C81F83900084690F818
:1015E000390003282FDB022081F8380000201B4936
:1015F00008750320C87700201A4981F8390081F85E
:101600002C0020E0FFF76AFE1648407D01281AD121
:1016100000201249087516E042F210601249088451
:1016200043F2106048846FF03B00088148810AE073
:1016300000200C49088548850B490881488102A98A
:101640000A4804F003FD02A80021C8230A46CDE998
:101650000010084604F0FAFD83E700009C1E0020FD
:101660009A1F0020601E0020741F0020A82900205F
:101670001CB50121082008F021F84FF400700090FB
:1016800001208DF8040000208DF806008DF8070079
:1016900003208DF805006946044801F099FA4FF4DB
:1016A0000071024801F008FB1CBD0000000C024064
:1016B0001FB5684608F052F8019804B010BD00BF8D
:1016C000FEE710B500F020F800F01AF810BD000099
:1016D00010B5002400BF00BFFEF7E2FD044600BFC6
:1016E00000BF1021054802F01AFD00BF00BF2046D0
:1016F000FEF7DAFD00BF00BF10BD0000140200209D
:1017000010B5FFF7E5FF10BD10B5002002490860D5
:1017100000F00AF810BD0000100000200149086028
:10172000704700001000002010B5FFF7C1FF04460D
:101730000848006840F080700649086000200649AB
:1017400048600846006840F0010008602046FFF746
:10175000E5FF10BDFCED00E0001000E00149486825
:1017600070470000001000E010B50246002006E0BF
:1017700013784340034CE05C521C4B1ED9B2002945
:10178000F6DC10BD38EA000870B502464FF6FF706F
:10179000002413E012F8015B684000230AE000F027
:1017A000010525B140084AF20105684000E0400803
:1017B0005D1CEBB2082BF2DB651CECB28C42E9DB62
:1017C00070BD00000EB500BF45E0FFF767FA224884
:1017D000007848B12148807C30B901201F498874C5
:1017E00002A91F4804F046F91E48C07A28B91D48CE
:1017F000C0884FF6FF71884209D01848C07C30B9C4
:1018000001201649C87402A9174804F033F9174893
:10181000007D012816D11148007D98B90F48C07D80
:1018200001280FD10D49C877002010490876012002
:101830000A4908750020C8750C49487502A90C486A
:1018400004F018F902A8002103230A46CDE900108C
:10185000084604F0FBFCB8E7341F00209C1E002063
:101860005C270020681F0020E4280020601E002064
:10187000A82900201A48008800EB80004FF6FF716D
:1018800001EA4000174908800846008845F6507173
:10189000884203DA05201349087320E011480088C4
:1018A00046F2D011884203DA14200E49087316E07C
:1018B0000C48008846F29051884203DA32200949E8
:1018C00008730CE00748008846F67811884203DA6E
:1018D0004B200449087302E05A20024908737047FC
:1018E000941D00209A1F0020074890F84C0000F03B
:1018F000030020B90548C07A00F0020010B10020B2
:101900000349087670470000D01E00209C1E00206E
:10191000601E002010B50446A01E062813D2DFE882
:1019200000F00F0612030C090BF00CF90CE00BF0A1
:1019300085FA09E00BF0C8F906E00BF0EFFB03E0D5
:101940000BF03AFB00E000BF00BF10BD00200949CA
:1019500048768876888308628884487581F82600EE
:10196000084600210160416081600020014981F842
:1019700026007047601E00200448006A44F620617B
:10198000884202D90020014988767047601E0020F5
:101990000D48006A401C0C4908620846808B401CB8
:1019A00088830A48C07F012809D10948007D00F0DA
:1019B000010020B90846808C401C888402E0002089
:1019C0000149888470470000601E00209C1E002092
:1019D0009A1F002010B52DED048B344890ED090AB4
:1019E000B5EEC00AF1EE10FA2ADD90ED080AD0ED4E
:1019F000090A30EE600A10EE101A08460CF098FE44
:101A000041EC190BB0EE490AF0EE690A0BF078F8D8
:101A1000B0EE408AF0EE608A9FED250B53EC102B60
:101A200051EC180B0CF02AFC0AD22048007820F068
:101A300050001E4908709FED200A084680ED090AF3
:101A40001A4890ED040AB5EEC00AF1EE10FA2ADD4C
:101A500090ED030AD0ED040A30EE600A10EE101A81
:101A600008460CF065FE41EC190BB0EE490AF0EEA9
:101A7000690A0BF045F8B0EE408AF0EE608A9FEDFF
:101A80000C0B53EC102B51EC180B0CF0F7FB0AD29B
:101A90000648007820F0A000044908709FED060A6F
:101AA000084680ED040ABDEC048B10BD341F0020F5
:101AB000000000000000E03F000000001148007C32
:101AC00030B11048807C18B902200E49887617E0A2
:101AD0000C48007C30B90B48807C18B103200949C0
:101AE00088760DE00748007C30B10648807C18B14C
:101AF00001200449887603E00248807E0149887607
:101B000070470000601E00204648007850281ED113
:101B10004448807A02281AD14248407E042803D1E2
:101B20000120404948767BE03F480078401C3E4910
:101B3000087008460078012872DB002008703B49D5
:101B400008703B49087001203649487668E03548FE
:101B50000078502822D13348007A50281ED13148CD
:101B6000407E042803D102202E49487658E02F48B1
:101B70000078401C2D49087000202D4908702A4922
:101B800008702A48007801284ADB0020274908709D
:101B90002749087002202349487641E0214880788F
:101BA00002281FD11F48807A02281BD11D48407E81
:101BB000042803D103201B49487631E000201B494B
:101BC0000870194908701A480078401C18490870B4
:101BD00008460078012823DB002008700320114903
:101BE00048761DE00F48407E042812D10D48C07B86
:101BF00030B10C48407C18B902200A49487608E008
:101C00000848C07B28B90748407C10B1032005492B
:101C10004876002005490870054908700249087097
:101C200070470000601E0020F9000020F70000202F
:101C3000F80000200EB500BFE4E07348007800F023
:101C4000100000286AD17148808840F62821884217
:101C500032DB6F48C07D70BB32200BF025FB0020CB
:101C60006B490885488564200BF01EFB6748808817
:101C700040F6282188421DDB6548C07D002819D127
:101C80006148007840F010005F4908700120604909
:101C900081F82C00002081F8380081F839004021BB
:101CA0005C4801F009F800205B4908705B49087541
:101CB000574908759DE0FFE75948007D00F0FE0098
:101CC000574908754021534800F0F8FF00204E495D
:101CD00008705248C07DE0B94D48807D0128E9D1A7
:101CE00001F01AF9C8200BF0DFFA01204849C87545
:101CF000002008760120494908750020C87544492C
:101D0000487501204549C87702A9464803F0B2FE4C
:101D10006FE000203E49C87588756AE03A4800784F
:101D200000F0200088BB3948C08840F2C671884264
:101D300015DA39480078401C3749087008460078A1
:101D40000A2856DD002008702F48007840F0200057
:101D50002D49087040212F4800F0B0FF49E02B4882
:101D6000C08840F60501884205DA2848008840F618
:101D70005A2188423DDB2A48007D40F00100284975
:101D8000087500202449087033E0FFE71F48808869
:101D900040F62821884217DC4FF448700BF084FA93
:101DA0001A48808840F62821884222DC0020164903
:101DB00008704021174800F081FF1948007D00F0AD
:101DC000FE001749087514E013480078401C1249BA
:101DD00008700846007805280BDD002008700A48C6
:101DE000007800F0DF00084908704021094800F041
:101DF00063FF02A8002164230A46CDE900100846CB
:101E000004F024FA19E7000086010020941D002048
:101E1000601E002000000240870100209C1E002060
:101E20009A1F0020A82900201CB50121084607F0B0
:101E300045FC4FF48050009000208DF804000120F4
:101E40008DF8070002208DF8050069460B4800F068
:101E5000BFFE0121102007F031FC4FF480500090AC
:101E600000208DF8040001208DF8070002208DF875
:101E700005006946024800F0ABFE1CBD00000240B0
:101E80000010024010B502F0F5FE0749074800F0C7
:101E900059F828B10449054800F024F80BF06AFA13
:101EA00002F0FEFE10BD0000208000101064024011
:101EB0000246094B9A4201D2084801E00648103810
:101EC00001F000531BB1064B0B40C36002E0044B12
:101ED0000B408360704700001064024000600240C5
:101EE0007D0F7D0F0246094B9A4201D2084801E05E
:101EF0000648103801F000531BB1064B0B40C3607D
:101F000002E0044B0B408360704700001064024005
:101F1000006002407D0F7D0F21B1026842F0010296
:101F2000026003E0026822F001020260704701468D
:101F300000200A6802F001020AB1012000E000203E
:101F40007047000070B50246002000240025124EA4
:101F5000B24201D2114B01E00F4B103B104E0E402C
:101F600036B11E2606EAD124166806EA040502E008
:101F7000566906F0800501F000560EB15C6800E07D
:101F80001C68084E344004EA010616B10DB1012068
:101F900000E0002070BD00001064024000600240BC
:101FA0003C0F3C0F7D0F7D0F10B501F080034BB14E
:101FB00022B1436943F08003436103E0436923F0A6
:101FC0008003436180290BD02AB1036801F01E040D
:101FD0002343036004E0036801F01E04A34303608D
:101FE00010BD000010B500220268134B1A40CC68E7
:101FF0000B6823434C6923438C692343CC692343F7
:102000000C6A23434C6A23438C6A23434C6B23435F
:102010008C6B23431A430260426922F00702D1E924
:102020000B3423431A4342610B6943604B6883605E
:102030008B68C36010BD00003F801CF0704700003B
:1020400010B502F017FE012000F0E8FB00287DD05B
:102050007348007800F0400040284DD07048007868
:1020600000F02000202810D001216E4800F01BFE57
:10207000012809D16C4800886C49088068480078BC
:1020800040F0200066490870C4E00121654800F076
:102090000AFE0028F8D16448008865490880604835
:1020A000007800F0DF005E490870614800885F49F1
:1020B0000988884209DA5E4800884FF6FF710844B3
:1020C0005A490988401A84B205E05948008857499E
:1020D0000988401A84B2B4F5B97FD5DB40F22620D6
:1020E0008442D1DA4E48007840F040004C490870F4
:1020F0000020504908708DE04948007800F0200029
:10210000202810D00121474800F0CDFD0128BBD187
:1021100045480088454908804148007840F0200043
:102120003F49087076E001213E4800F0BCFD0028E0
:1021300070D13D4800883E4908803948007800F059
:10214000DF00374908703A48008800E065E0374909
:102150000988884209DA364800884FF6FF7108443A
:1021600032490988401A84B205E0314800882F4975
:102170000988401A84B2142C06DB5A2C04DA2D4844
:1021800000782C49087015E0642C08DBD22C06DAA4
:102190002848007840F00100264908700AE0DC2C4D
:1021A00002DBB4F5877F05DBB4F5967F02DB002008
:1021B0001B4908701A48007800F01F0006281EDB33
:1021C0000020174908701B480078502802D11A498E
:1021D00008701FE0174800780C2802D11649487093
:1021E00018E014480078022802D11349887011E0E1
:1021F000104800780A280DD10F49C8700AE0084835
:102200000078401C064908700A4800784006000E15
:1022100008490870012000F0FBFA02F041FD10BDF2
:1022200020010020000402402E0100202201002095
:102230002401002026010020601E002010B502F0BD
:1022400019FD4FF4006000F0E9FA002863D033482C
:10225000007800F02000202859D13048007800F0A4
:102260008000802853D02D48007800F0400040289E
:1022700011D04FF400612A4800F015FD012846D125
:1022800028480088284908802448007840F0400009
:10229000224908703BE04FF40061214800F003FD43
:1022A000A8BB2048008821490880084600881E49AC
:1022B0000988884209DA1D4800884FF6FF710844F2
:1022C00019490988401A84B205E01848008816495F
:1022D0000988401A84B2322060431D2190FBF1F03E
:1022E0000E49488008464088B0F5FA6F02DD4FF489
:1022F000FA6048800948007800F00F00074908702C
:102300000846007840F080000870002088804FF474
:10231000006000F07DFA02F0C3FC10BDC401002093
:10232000001002402E010020400100204201002048
:1023300010B502F09FFC022000F070FA00287DD05A
:102340007548007800F0400040284DD07248007871
:1023500000F02000202810D00221704800F0A3FCDB
:10236000012809D16E4800886E4908806A480078C3
:1023700040F0200068490870C7E00221674800F07B
:1023800092FC0028F8D166480088674908806248B6
:10239000007800F0DF0060490870634800886149F8
:1023A0000988884209DA604800884FF6FF710844BE
:1023B0005C490988401A84B205E05B4800885949A5
:1023C0000988401A84B2B4F5B97FD5DB40F22620E3
:1023D0008442D1DA5048007840F040004E490870FD
:1023E00000205249087090E04B48007800F020002F
:1023F000202810D00221494800F055FC0128BBD10B
:1024000047480088474908804348007840F020004A
:102410004149087079E00221404800F044FC00285E
:1024200073D13F480088404908803B48007800F05D
:10243000DF00394908703C48008800E068E039490D
:102440000988884209DA384800884FF6FF71084445
:1024500034490988401A84B205E03348008831497C
:102460000988401A84B2142C06DB642C04DA2F4845
:1024700000782E49087015E0642C08DBDC2C06DAA5
:102480002A48007840F00100284908700AE0E62C4C
:1024900002DBB4F5877F05DBB4F5967F02DB002015
:1024A0001D4908701C48007800F01F00062821DB39
:1024B0000020194908701D480078502802D11C4995
:1024C000087222E0194800780C2803D10C21184822
:1024D00041721AE015480078022803D102211448FD
:1024E000817212E0114800780A280ED10A211048A2
:1024F000C1720AE008480078401C074908700B4880
:1025000000784006000E09490870022000F080F9AA
:1025100002F0C6FB10BD00002701002000040240AD
:102520002E010020280100202A0100202C0100207B
:10253000601E002010B502F09DFB042000F06EF933
:1025400010B1042000F064F902F0AAFB10BD10B530
:1025500002F090FB102000F061F910B1102000F0A3
:1025600057F902F09DFB10BD10B502F083FB20204F
:1025700000F054F9002860D09948007800F020005D
:10258000202857D19648007800F08000802851D04C
:102590009348007800F04000402810D02021914856
:1025A00000F081FB012845D18F4800888F490880C1
:1025B0008B48007840F04000894908703AE02021BB
:1025C000884800F070FBA8BB8748008888490880CD
:1025D0000846008885490988884209DA84480088C5
:1025E0004FF6FF71084481490988401A84B205E01A
:1025F0007F4800887D490988401A84B232206043B0
:102600001D2190FBF1F07649488008464088B0F5DE
:10261000FA6F02DD4FF4FA6048807148007800F0EC
:102620000F006F4908700846007840F0800008707D
:1026300000208880202000F0EBF8802000F0EEF8E9
:10264000002860D06B48007800F02000202857D187
:102650006848007800F08000802851D065480078F4
:1026600000F04000402810D080215E4800F01BFBA5
:10267000012845D15C4800885F4908805D480078A2
:1026800040F040005B4908703AE08021554800F076
:102690000AFBA8BB544800885849088008460088AF
:1026A00055490988884209DA544800884FF6FF7175
:1026B000084451490988401A84B205E04F4800880F
:1026C0004D490988401A84B2322060431D2190FB95
:1026D000F1F04849488008464088B0F5FA6F02DDBD
:1026E0004FF4FA6048804348007800F00F004149F9
:1026F00008700846007840F080000870002088804C
:10270000802000F085F84FF4007000F087F8002872
:1027100063D03B48007800F02000202859D1384889
:10272000007800F08000802853D03548007800F011
:102730004000402811D04FF40071324800F0B3FA45
:10274000012846D1284800882F4908802C48007865
:1027500040F040002A4908703BE04FF400712948DE
:1027600000F0A1FAA8BB2048008828490880084644
:10277000008825490988884209DA244800884FF6EC
:10278000FF71084420490988401A84B205E01F48B7
:1027900000881D490988401A84B2322060431D21F7
:1027A00090FBF1F01649488008464088B0F5FA6F72
:1027B00002DD4FF4FA6048801148007800F00F0005
:1027C0000F4908700846007840F08000087000202B
:1027D00088804FF4007000F01BF802F061FA10BD21
:1027E000B8010020000C02402E010020380100201A
:1027F0003A010020B20100203401002036010020FF
:10280000BE010020001002403C0100203E010020DB
:102810000149086070470000143C01400146002057
:10282000034A12680A400AB1012000E00020704704
:10283000143C0140002123498279002A3AD00A46FB
:10284000126803689A430B461A600A1D12680368EF
:102850009A430B1D1A60027911440A6803681A43EF
:102860000A60184A0832126803689A43154B083305
:102870001A601A1D126803689A43124B0C331A60CF
:102880004279102A0ED11A1F126803681A430D4BA1
:1028900008331A601A1D126803681A43094B0C3377
:1028A0001A600DE00749427911440A6803681A4327
:1028B0000A6005E0027911440A6803689A430A60D5
:1028C00070470000003C01400EB500BF10E0002042
:1028D000084948700870487107F078FF02A8002185
:1028E0004FF4FA730A46CDE90010084603F0AEFC37
:1028F000EDE70000F44F00200EB500BF0CE000F043
:102900000DF80AF0C7F802A800210A230A46CDE90B
:102910000010084603F09AFCF1E7000070B52DEDB9
:10292000028B38484079012868D136484478A01E87
:102930003449891D0A5C601E085C42EA0025A01E1D
:10294000C1B23048801DFEF71FFF86B2B5424FD19D
:102950002D492C48B0F80900088008880BF006FBC8
:10296000294908802748B0F80B00488048880BF0B8
:10297000FDFA254948802348B0F80D00C880C88872
:102980000BF0F4FA204908811E48B0F80F00488186
:1029900048890BF0EBFA1C4948811A48B0F811003D
:1029A000C880C8880BF0E2FA00EE100AB8EE408A40
:1029B000BCEEC80A10EE100A1349C8801148B0F8DE
:1029C0001300888088880BF0D1FA00EE100AF8EE28
:1029D000408ABDEEE80A10EE100A0B4988800948CB
:1029E000B0F81500888188890BF0C0FA0649888103
:1029F000002004494870087048804871BDEC028B83
:102A000070BD0000D64F0020201F00200EB500BF73
:102A1000CBE001F03FF865484088B0F57A7F05DBF0
:102A20004FF47A70614948800120087160484088FD
:102A3000B0F57A7F05DB4FF47A705D49488001205C
:102A400008715C48408B41F28831884203DA59486A
:102A5000808B884207DB41F288305649488388835F
:102A6000012088770CE05348408BB0F57A7F07DC73
:102A70005048808BB0F57A7F02DC00204D49887782
:102A80004A480079012803D04A48807F01283BD179
:102A90004848007E012813D14748007F20B9012112
:102AA000084607F0F9FE2FE00020434908804880DF
:102AB0000A46B2F90210B2F9000007F023FF23E042
:102AC0003D48407F012814D13B48007F012804D1B4
:102AD0000021084607F0E0FE16E000203649088095
:102AE00048800A46B2F90210B2F9000007F00AFF66
:102AF0000AE000203049088048800A46B2F90210F6
:102B0000B2F9000007F0FEFE2C48007870B92848A2
:102B10000079012822D12021294800F0CDF8012098
:102B20002649087000202749088017E025480088BA
:102B3000401C2449088008460088642808DD0020DD
:102B4000088020211E4800F0B9F800201A490877B3
:102B50001748007910B9002018490870164890F8F5
:102B60002400012815D11848408943F6982188424D
:102B700012DD16480078401C144908700846007899
:102B80000A2809DD0020087020210D4800F094F883
:102B900002E000200D49087002A8002164230A46C3
:102BA000CDE90010084603F051FB32E7B84F002092
:102BB000305000209C1E0020741F00207C0100204B
:102BC000000002407E0100209A1F002080010020AA
:102BD000F0B50A4600210023002400BF3DE0012596
:102BE00005FA01F3156805EA03049C4234D105682F
:102BF0004F000326BE40B543056015794E00B54031
:102C00000668354305601579012D02D01579022D2E
:102C100016D185684F000326BE40B54385605579BF
:102C20004E00B540866835438560456801268E4074
:102C3000B5434560456896798E40B6B235434560E8
:102C4000C5684F000326BE40B543C560D5794E0028
:102C5000B540C6683543C560491C1029BFD3F0BDD7
:102C6000F0B5002300244D07ED0E02FA05F3CE1057
:102C700000F1200555F826504E07F70E0F26BE40EE
:102C8000B543CF1000F1200646F82750CE1000F1D2
:102C9000200555F8265045EA0304CE1000F1200522
:102CA00045F82640F0BD0246002013690B400BB1E9
:102CB000012000E000207047418370470183704786
:102CC0004FF6FF7101600021017141718171C17185
:102CD0007047000070B504460D468748007868B913
:102CE0000120854908708548008A642190FBF1F035
:102CF0008249C98991FBF0F08149086081480078D8
:102D0000401C40B27F4908707F48006828447E49D3
:102D100008607E48006820447C490860794890F942
:102D200000003C2879DB784800683C21B0FBF1F0DA
:102D300077490860754800683C2190FBF1F07549BF
:102D400008600968002911DA724909683C2291FB80
:102D5000F2F0002801DB014600E04142674AD289D7
:102D6000914203DD00206549C88109E06948006897
:102D70003C2190FBF1F06149C98908445F49C88151
:102D80006348006846F2D011884207D85B48007D4E
:102D900000F0110010B10120584988755C480068A6
:102DA00045F26041884208D25448007D00F001009D
:102DB00018B996205149C8814FE05548006846F639
:102DC0006051884232D94D48007D00F0010068B35F
:102DD00050480068B0F5487F28DA4848807D0128CF
:102DE0001CD14648C0894549098A884216DC4348B7
:102DF000C08942F21071884210DB4048C0893F49C7
:102E000008820846008A010A0220FDF770FE3B484E
:102E1000017C0320FDF76BFE04E069E03748008A7F
:102E20003649C88100203549887516E03348C08985
:102E30003249098A884204DB3048008A2F49C88118
:102E40000BE02E48C089962803DC96202B49C881C8
:102E500003E02A48C0892949C8812D48006846F600
:102E60006051884207D22548007D00F0010010B96A
:102E70000020224988752148008A642190FBF1F0E6
:102E80001E49C98991FBF0F01D4908600846006899
:102E9000142811D91E48006846F2D01188420BD878
:102EA0001C48006810F5FA6F06DB4FF416601349F2
:102EB000C88114201249086011480068052810D9FB
:102EC00013480068B0F5AF4F0BD81248006810F5F2
:102ED000FA6F06DB4FF416700849C88105200849CF
:102EE0000860002008490860064908700749086022
:102EF0000348007870BD0000740100209A1F002074
:102F00007801002068010020600100206401002099
:102F10006C0100207001002018480078174949789A
:102F200008431649897808431449C9780843134966
:102F300008730846007A497A08431049897A084399
:102F40000E49C97A08430D49887308460078097A02
:102F500008430A49C87308464078497A0843074934
:102F6000087408468078897A0843044948740846FA
:102F7000C078C97A0843014988747047601E0020F0
:102F800010B54FF480512148FFF78DFE48B9204815
:102F9000007840F001001E49087000201D4908809B
:102FA00010E01C480088401C1A4908800846008828
:102FB000012807DD002008801548007800F0FE0099
:102FC000134908704FF480511348FFF76CFE48B95D
:102FD0000020124908800E48007840F002000C4999
:102FE000087010E00D480088401C0C490880084615
:102FF0000088012807DD002008800548007800F0DF
:10300000FD00034908700248007810BD000002402E
:10301000D8010020D401002000100240D601002079
:10302000024600202F4BD87349F27040824217DBD2
:103030002D480078401C2C4B187000202B4B18702A
:103040002948007803284ADB29480078401C284B8F
:1030500018700020244B18700120264B18703EE099
:1030600023480078032823DA2148007802280DD16C
:1030700021480078401C204B187018460078F02832
:1030800004DB00201A4B18701B4B1870174800788F
:10309000401C164B18700020134B18701348007812
:1030A0000F281CDD0020114B1870124B187016E011
:1030B00011480078401C104B18700120094BD87340
:1030C0001846807B012803D00B480078F02806DBE7
:1030D0000020074B1870074B1870024BD873054837
:1030E000007870479C1E00205301002054010020EE
:1030F000550100205201002056010020054800899A
:1031000000EBC000000142F2D87190FBF1F080B2F8
:1031100070470000681F0020B8B3012802D00228C1
:103120004CD11AE02749497801F0010121B925491C
:10313000897801F0010121B142F2D871214A11814F
:103140000AE02049098942F2D872914204DA1D4905
:103150000989491C1B4A118131E01A49497801F05B
:10316000020121B91749897801F0020119B1002142
:10317000144A118108E013490989002904DD114925
:103180000989491E0F4A118119E0FFE70D49497865
:1031900001F0010121B142F2D8710A4A11810CE01B
:1031A0000849497801F0020119B10021054A11814D
:1031B00003E004490989034A118100E000BF00BF10
:1031C00070470000681F002010B500244FF4005124
:1031D0000E48FFF768FD30B90D4880883C2802DDB5
:1031E00044F0010401E004F0FE044FF4804107487C
:1031F000FFF759FD30B9064880881E2802DA44F0EE
:10320000020401E004F0FD04204610BD001002405D
:10321000681F00200246002A42D0012A02D0022A5A
:103220003FD11EE02148007800F0FD001F4B1870D0
:10323000B1F57A7F11DD1E480078401C1C4B1870D8
:103240001846007814280BDB002018701748007807
:1032500040F00100154B187002E00020144B18706C
:1032600020E01248007800F0FE00104B1870B1F515
:103270007A7F11DD0E480078401C0D4B18701846FF
:1032800000780A280BDB002018700848007840F00E
:103290000200064B187002E00020054B187001E098
:1032A00000E000BF00BF01480078704750010020D7
:1032B0004F0100202DE9F0412DED028B80460D4697
:1032C00016461F4640460AF0AEFF41EC180B9FED34
:1032D000490B53EC102B0BF00BF910D24748B0F907
:1032E00000000AF0A0FF41EC180B9FED450B53ECDA
:1032F000102B0AF0C3FF02D24FF4AF541CE040463B
:103300000AF091FF41EC180B9FED3D0B53EC102B95
:103310000AF0B4FF0FD23948B0F900000AF083FF79
:1033200041EC180B9FED330B53EC102B0BF0E0F836
:1033300001D2354C00E00024304800882044A0EB46
:10334000080000B23080B6F90000C11700EB91719F
:103350008910318028460AF066FF41EC180B9FED7A
:10336000250B53EC102B0BF0C3F80FD22748B0F904
:1033700000000AF058FF41EC180B9FED210B53ECB5
:10338000102B0AF07BFF01D21F4C1DE028460AF0EB
:103390004AFF41EC180B9FED1A0B53EC102B0AF06F
:1033A0006DFF10D21948B0F900000AF03CFF41EC63
:1033B000180B9FED100B53EC102B0BF099F802D269
:1033C0004FF4AF5400E00024601910490988401AF6
:1033D00000B23880B7F90000C11700EB9171891075
:1033E00039800648A0F8008008480580BDEC028BB3
:1033F000BDE8F081000000000068B04058010020E6
:103400000000000000E0954020EAFFFF5A01002084
:1034100000BFFEE770B504460D4600EE105AB8EE48
:10342000C00A00F005F900EE104AB8EEC00A00F03C
:1034300071F870BD10B50748D0ED050AB0EE600A0E
:1034400000F0F6F80348D0ED0A0AB0EE600A00F08A
:1034500061F810BD341F002010B51D48007880B100
:103460001B48007800F0100018B1022000F0AEFEFA
:1034700007E01748007800F0400010B1032000F08A
:10348000A5FE1348007800F0200018B1022000F0DB
:103490004FFF0EE00E48007800F0800018B10320C6
:1034A00000F046FF05E00A480078092801D1FFF73F
:1034B000C1FF0748007800F0F00010B9002004496F
:1034C00008700348007808B1FEF784FA10BD0000C8
:1034D000341F00200EB500BF14E0FFF7BDFF0A48FF
:1034E000007830B900200949887402A9084802F020
:1034F000ADFD02A8002114230A46CDE900100846BC
:1035000002F0A4FEE9E70000341F00209C1E00200A
:103510005C27002010B52DED088BB0EE408A3548B1
:1035200080ED098A90ED090A10EE101A08460BF09A
:10353000FFF841EC1B0B9FED300B53EC102B0AF006
:1035400061FD41EC190B2B4890ED080A10EE101AA2
:1035500008460BF0EDF841EC1A0B53EC192B0AF06E
:10356000C7FF0BD22348007840F0100021490870B3
:103570000846007820F04000087037E01D4890EDC4
:10358000090A10EE101A08460BF0D2F841EC1B0B9A
:103590009FED190B53EC102B0AF0E0FF41EC190BD7
:1035A000144890ED080A10EE101A08460BF0C0F807
:1035B00041EC1A0B53EC192B0AF060FE0BD20D48AC
:1035C000007840F040000B4908700846007820F071
:1035D000100008700AE00748007820F01000054944
:1035E00008700846007820F040000870BDEC088B99
:1035F00010BD0000341F0020000000000000E03F6C
:1036000070B504460D46012C02D0022C0AD104E00C
:103610002946064808F0A9F805E02946034808F0BD
:10362000A6F800E000BF00BF70BD00000008004029
:1036300010B52DED088BB0EE408A354880ED048A38
:1036400090ED040A10EE101A08460BF071F841ECE8
:103650001B0B9FED300B53EC102B0AF07FFF41EC5E
:10366000190B2B4890ED030A10EE101A08460BF0C8
:103670005FF841EC1A0B53EC192B0AF0FFFD0BD24B
:103680002348007840F0200021490870084600785F
:1036900020F08000087037E01D4890ED040A10EE1D
:1036A000101A08460BF044F841EC1B0B9FED190B68
:1036B00053EC102B0AF0A6FC41EC190B144890EDCA
:1036C000030A10EE101A08460BF032F841EC1A0B00
:1036D00053EC192B0AF00CFF0BD20D48007840F088
:1036E00080000B4908700846007820F02000087020
:1036F0000AE00748007820F02000054908700846D5
:10370000007820F080000870BDEC088B10BD000030
:10371000341F0020000000000000E03F10B51248F8
:10372000006820F44040104908600846006840F4F2
:103730008040086000200D490860022009F0EEFD7D
:1037400001200B49C1F89802022009F0E7FD002092
:103750000649091F0860022009F0E0FD0120044924
:10376000C1F89C0210BD0000000402409C8240424F
:10377000008040421CB50121022005F09FFFC020BF
:10378000009001208DF8040000208DF80600032031
:103790008DF8050001208DF8070069460448FFF701
:1037A00017FA0120034908600349C1F89C021CBDB7
:1037B00000040240988240420080404210B5104808
:1037C000006820F440400E4908600846006840F454
:1037D0008040086001200B490860022009F09EFD2E
:1037E00001200949C1F89802022009F097FD002044
:1037F0000449091F0860022009F090FD10BD000077
:10380000000402409C8240420080404270B5054660
:1038100000241548006820F4404013490860084619
:1038200000680860002615E06006040E01200F49BC
:103830000860022009F072FD0D48D0F81C0208B1A2
:10384000601CC4B2002009490860012009F066FD2F
:10385000701CC6B2082EE7DB15B9FFF7AFFF01E019
:10386000FFF75CFF204670BD000402409882404292
:103870000080404270B504461648006820F440407D
:10388000144908600846006840F48040086000253C
:103890001CE0E009104908606006040E022009F0EF
:1038A0003DFD01200D49C1F89802022009F036FDC6
:1038B00000200949091F0860022009F02FFD072D8B
:1038C00002D1012004490860681CC5B2082DE0DB64
:1038D00070BD0000000402409C82404200804042D3
:1038E00010B50F48006820F440400D4908600846B4
:1038F000006840F48040086001200A4908600A49D5
:10390000C1F89802042009F009FD0020054908606B
:10391000042009F003FD00200349C1F8980210BDFE
:10392000000402409C8240420080404210B50E4894
:10393000006820F440400C4908600846006840F4E4
:103940008040086001200949086000200849C1F84A
:103950009C02042009F0E2FC01200449091D0860D2
:10396000042009F0DBFC10BD0004024098824042B4
:103970000080404210B500241448006820F4404004
:103980001249086008460068086001201049086074
:1039900009F0C4FC01200F49C1F8980209F0BEFCEF
:1039A0000AE0601CC4B2FA2C06DD0BA0FCF790FC08
:1039B000FFF7BCFF012010BD0548803800680028D3
:1039C000EFD10349091F086000BFF4E7000402407B
:1039D0009C824042008040426969632074696D6541
:1039E0006F75740D0A00000007480088401C0649E6
:1039F0000880084600884FF6FF71884202DB0020ED
:103A000001490880704700002E0100201FB50121E8
:103A1000022005F053FE0121880305F07FFE0320FC
:103A2000029000208DF80C0001208DF80F0002A9F3
:103A30001348FFF7CDF80121084606F095F802205B
:103A4000009000208DF8040010208DF80500012062
:103A50008DF806006846FEF7EDFE0021012006F015
:103A600083F80120009000208DF8040010208DF8CC
:103A7000050001208DF806006846FEF7DBFE1FBD3D
:103A8000000402404CF6CC40014908607047000039
:103A90000030004010B500F013F810BD70B50546B9
:103AA0000C4645F2555000F01FF8284600F010F87B
:103AB000204600F013F800F003F8FFF7E3FF70BDB5
:103AC0004AF6AA2001490860704700000030004013
:103AD000014948607047000000300040014988609B
:103AE0007047000000300040014908607047000046
:103AF000003000401CB50121042005F0DFFD20202E
:103B0000009001208DF8040000208DF806000120AF
:103B10008DF8070000208DF8050069461D48FFF765
:103B200057F80121042005F0C9FD10200090012064
:103B30008DF8040000208DF8060001208DF80700A4
:103B400000208DF8050069461248FFF741F8012171
:103B5000082005F0B3FD4FF48070009001208DF82F
:103B6000040000208DF8060001208DF807000020D9
:103B70008DF8050069460848FFF72AF81020054926
:103B80001A31088020200880C1000348FFF794F80C
:103B90001CBD000000080240000C02400EB500BF32
:103BA000E1E07148006880F480706F4908606F48F8
:103BB000007D00F00100A8B16C48007B5F2806DBA7
:103BC00010206B4908802020891E088006E0102004
:103BD0006749891E08802020891C088000206549CB
:103BE000087060E06148007D00F00100F8B95F48AE
:103BF000B0F9020010F57A7F19DD10205C490880C9
:103C0000202008805B480078401C5A49087008460C
:103C10000078142847DD0020087005F02BFB4FF4D6
:103C2000967009F041FB012005F024FB3BE052486F
:103C30000079012808D110204D49088020200880F3
:103C400000204C4908702EE04C48007901280AD128
:103C500010204749891E08802020891C08800020E8
:103C6000444908701FE04148007D00F0100070B129
:103C70003F48801F006880F010003D49891F0860A0
:103C80002020891D088000203A4908700BE0102090
:103C900037490880881F006880F02000891F08606D
:103CA00000203449087034480079012803D0334893
:103CB0000079012812D14FF480512B481438FEF7B7
:103CC000FBFF4FF4806128481438FEF7F7FF4FF4EC
:103CD000006125481438FEF7EFFF29E02348007DF6
:103CE00000F0100090B14FF480511F481438FEF7D7
:103CF000E5FF4FF480611C481438FEF7DDFF4FF4F8
:103D0000006119481438FEF7D7FF11E04FF48051D5
:103D100015481438FEF7D0FF4FF48061124814386C
:103D2000FEF7CAFF4FF400610F481438FEF7C6FFD4
:103D3000134890F82100012805D141030A4814389E
:103D4000FEF7BCFF05E04FF4005107481438FEF7BA
:103D5000B3FF02A800214FF4FA730A46CDE9001020
:103D6000084602F073FA1CE7140C02409A1F002068
:103D70001A0802409D010020B84F0020305000205A
:103D80009C1E00201CB50121082005F097FC4FF473
:103D90007050009001208DF8040000208DF806007E
:103DA00001208DF8070000208DF8050069460E48B7
:103DB000FEF70EFF0121042005F080FC4FF4806126
:103DC0000948FEF779FF4FF400610748FEF774FFDA
:103DD0004FF480510448FEF76FFF4FF40051024842
:103DE000FEF76AFF1CBD0000000C0240018890290C
:103DF0000AD120494978012902D11E4AD17037E001
:103E000001211C4AD17233E0018859B91949497816
:103E1000022903D10121174AD17029E00221154A54
:103E2000D17225E0134989880288914210DA11493C
:103E300089880288914205DB00210E4AD172012156
:103E4000D17015E001210B4AD1720021D1700FE031
:103E5000084989880288914205DC0021054AD1720F
:103E60000121D17004E00221024AD1720021D170F7
:103E700070470000681F00201CB50121042005F0D8
:103E80001DFC4FF44070009001208DF804000020CC
:103E90008DF806008DF8070002208DF805006946B0
:103EA0001448FEF795FE0121084605F007FC4FF483
:103EB0008070009001208DF8040000208DF806002D
:103EC0008DF8070002208DF8050069460A48FEF7C4
:103ED0007FFE4FF480710748FEF7F0FE4FF400714B
:103EE0000448FEF7E9FE4FF480710348FEF7E4FE54
:103EF0001CBD0000000802400000024010B5FFF7A2
:103F000063F910494870104A11890E4AD07AFFF7B8
:103F100081F90C498870FFF7F1F80A498880084652
:103F2000C0884FF6FF71884204D00648801DFFF715
:103F30005DFF02E000200349C8700249C87A00F022
:103F400005F810BD681F0020941D002010B5044620
:103F5000002C6BD0012C02D0022C72D129E0002061
:103F6000394988720846407800F0010020B90846B7
:103F7000807800F0010028B14FF480713348FEF7DB
:103F80009DFE15E03048008942F2D871884205DB79
:103F90004FF480712D48FEF791FE09E04FF4007157
:103FA0002A48FEF78BFE4FF480712848FEF784FE06
:103FB00048E02548807A012804D101022348FEF711
:103FC0007DFE32E02048407800F0020020B91E4813
:103FD000807800F00200F0B14FF480711B48FEF7CA
:103FE0006DFE322009F060F94FF400711748FEF7BA
:103FF00065FE4FF480711548FEF75EFE4FF4967033
:1040000009F052F94FF480711048FEF757FE012075
:104010000D49887209E04FF400710C48FEF74CFE20
:104020004FF480710948FEF747FE0BE04FF48071B2
:104030000648FEF743FE4FF6FF700349C88001E0D3
:10404000FFE700BF00BF10BD681F0020000802404E
:104050000EB500BF1FE0FFF751FF0F48C07A88B9C7
:104060000D48C0884FF6FF7188420BD100200B49E4
:10407000C8740949C872C87AFFF768FF02A90848DE
:1040800001F0E4FF02A800210A230A46CDE900104E
:10409000084602F0DBF8DEE7681F00209C1E0020C7
:1040A000E42800201CB50121102005F007FB4FF487
:1040B0000050009000208DF8040001208DF80700CA
:1040C00003208DF8050069460B48FEF781FD0121AC
:1040D000102005F0F3FA4FF48040009000208DF896
:1040E000040001208DF8070003208DF805006946C3
:1040F0000148FEF76DFD1CBD001002400EB500BF6B
:104100000AE000F099F902A8002105230A46CDE94A
:104110000010084602F09AF8F3E700BFFEE730B55A
:1041200005460C4622460021284600F001F830BD25
:104130002DE9F04105460B4694460027002402E095
:104140003F021F43641C042CFAD3604605F00306AB
:10415000294646B1344603E001F8013B401E641C89
:1041600008B1042CF8D30A4601E080C2001F0428DD
:10417000FBD2114602E001F8013B401E0028FAD1B3
:10418000BDE8F08170B503460C464FF6FF71002282
:1041900014E09E5C00250EE086EA010000F00100BC
:1041A00020B14AF2010080EA610000E048100146B7
:1041B0007610681CC5B2082DEEDB521CA242E8DB6B
:1041C000080240EA212080B270BD000010B52DED3C
:1041D000068B0446022C02D0032C7AD14DE05148C4
:1041E00090ED0C0A10EE101A08460AF0A1FA41EC04
:1041F0001A0B9FED4D0B53EC102B09F003FF41EC14
:10420000180B484890ED080A10EE101A08460AF0FC
:104210008FFA41EC190B53EC182B0AF069F916D8F8
:10422000404890ED080A10EE101A08460AF080FA8D
:1042300041EC190B9FED3C0B53EC102B0AF08EF95F
:1042400041EC180B09F0ACFE3649086204E0354831
:1042500090ED0C0A80ED080A324890F9090001EE51
:10426000100AB8EEC11AF0EE410A2E4890ED081A75
:10427000B0EE410A06F0E0FB50E02A4890ED0B0A50
:1042800010EE101A08460AF053FA41EC1A0B9FED93
:10429000260B53EC102B0AF061F941EC180B214866
:1042A00090ED080A10EE101A08460AF041FA41ECA7
:1042B000190B53EC182B09F0E1FF18D8194890EDB1
:1042C000080A10EE101A08460AF032FA41EC190BEF
:1042D00000E022E09FED140B53EC102B09F092FE4E
:1042E00041EC180B09F05CFE0E49086204E00D4831
:1042F00090ED0B0A80ED080A0A4890F9090001EEDA
:10430000100AB8EEC11AF0EE410A064890ED081AFC
:10431000B0EE410A06F090FB00E000BF00BFBDEC2C
:10432000068B10BD341F0020000000000000E03F9D
:1043300010B52DED048B0446022C02D0032C60D165
:104340002FE0324890ED030AD0ED060AB4EEE00A01
:10435000F1EE10FA14D290ED030A10EE101A08468E
:104360000AF0E6F941EC190B9FED290B53EC102BE9
:1043700009F048FE41EC180B09F012FE2349C86011
:10438000224890F90A0001EE100AB8EEC11AF0EEC8
:10439000410A1E4890ED031AB0EE410A06F076FB82
:1043A00030E01A4890ED030AD0ED070AB4EEE00AB7
:1043B000F1EE10FA14DD90ED030A10EE101A084623
:1043C0000AF0B6F941EC190B9FED110B53EC102BD1
:1043D0000AF0C4F841EC180B09F0E2FD0B49C86083
:1043E0000A4890F90A0001EE100AB8EEC11AF0EE80
:1043F000410A064890ED031AB0EE410A06F046FB6A
:1044000000E000BF00BFBDEC048B10BD341F0020D6
:10441000000000000000E03F06488089401C05497C
:1044200088810846C089401CC8810846008A401C13
:1044300008827047D01E00202DE9FC5FC0484079FB
:1044400001287DD10A2008F069FF0020BC4948718D
:104450004880087108468079012872D1487800EBBD
:10446000D0714910A0EB410121B1B5484078401E00
:10447000B3494870B2484078401EB149891D0A5C72
:10448000881F4078801E085C42EA0026881F40781A
:10449000811EAB48801DFFF775FE074637463E4636
:1044A000B742DAD1A64890F80780B8F1430F36D06A
:1044B000B8F1440F7ED0B8F1450F7CD0B8F1EA0FC7
:1044C0002CD1017A407A41EA002000B29D498881CE
:1044D0009B48817AC07A41EA002000B29949C8819C
:1044E0000846808928B90846C08910B90120487754
:1044F00002E00020934948779348007970B99348C7
:10450000408BB0F5FA6F09DA8E48C08983B28D48C6
:10451000808982B2FF21012005F08AFE0AE18848E5
:10452000417A007A41EA00248548C17A807A41EADA
:104530000025B4F5A04F16D1B5F5A24F13D101E077
:10454000FCE0F8E07E48417B007B41EA002000B2BD
:104550007C4908827A48C17B807B41EA002000B216
:104560007849488244E045F20200844203D145F292
:10457000021085423CD045F20400844238D145F215
:104580000410854234D16E48417B007B41EA002013
:104590006C49C8826A48C17B807B41EA0020694936
:1045A00088820A46D28A11B2664A928A10B2684B51
:1045B0009A1E01E01DE05CE0FEF77CFE6248007997
:1045C00088B96248808B41F2883188420BDA6048B2
:1045D000801E01680091406803460A46FF21019051
:1045E000012005F02FFD00205949891E08804880D0
:1045F000A0E05348417A007A41EA00245048C17A49
:10460000807A41EA002542F21830844210D143F208
:10461000183085420CD14A4A537B127B43EA02226E
:1046200010B2474AD37B927B43EA022211B21FE0C9
:10463000B4F5045F1CD1B5F5445F19D1404890F83A
:104640000DB0C07B0190BBF1010F02D00198012891
:1046500003D101203B49087702E00020394908775F
:10466000384AB2F90210B2F9000006F04BF900BF67
:1046700060E03348417A007A41EA00243048C17A48
:10468000807A41EA002542F21060844203D042F26F
:10469000206084424DD12A48417B007B41EA0020C2
:1046A00000B2284988812648C17B807B41EA0020EE
:1046B00000B22449C8812248417C007C41EA0020A4
:1046C0000FFA80F91E48C17C807C41EA00200FFA75
:1046D00080FA1F48801E0088484400B21C49891E89
:1046E000088008464088504400B248801448417D04
:1046F000007D41EA002000B2124908831048C17DC4
:10470000807D41EA002000B20E4948830E480079BE
:1047100078B90E48408B41F28831884209DA09485D
:10472000C08983B20748808982B2FF21012005F049
:104730007FFD00BF00BF002001494870BDE8FC9F1D
:1047400030500020741F0020B84F00209C1E002015
:10475000020100200020054908778881C8818882ED
:10476000C88248800880887770470000741F002046
:10477000704708B54FF4C06000F010F925208DF89F
:10478000000001208DF8010007208DF802000120B3
:104790008DF80300684600F0C5F826208DF800006B
:1047A00001208DF8010006208DF8020001208DF80F
:1047B0000300684600F0B6F827208DF800000020BE
:1047C0008DF8010004208DF8020001208DF803000F
:1047D000684600F0A7F834208DF8000000208DF81E
:1047E000010005208DF8020001208DF803006846C5
:1047F00000F098F835208DF8000001208DF80100B8
:1048000000208DF8020001208DF80300684600F0BA
:1048100089F819208DF8000000208DF8010006208D
:104820008DF8020001208DF80300684600F07AF848
:104830002E208DF8000000208DF8010007208DF853
:10484000020001208DF80300684600F06BF81C2080
:104850008DF8000001208DF8010007208DF802007E
:1048600001208DF80300684600F05CF837208DF8D1
:10487000000001208DF8010006208DF802000120C3
:104880008DF80300684600F04DF838208DF80000E0
:1048900001208DF8010005208DF8020001208DF81F
:1048A0000300684600F03EF806208DF80000002066
:1048B0008DF8010002208DF8020001208DF8030020
:1048C000684600F02FF807208DF8000000208DF8D2
:1048D000010003208DF8020001208DF803006846D6
:1048E00000F020F817208DF8000001208DF801005D
:1048F00003208DF8020001208DF80300684600F0C7
:1049000011F828208DF8000001208DF80100042006
:104910008DF8020001208DF80300684600F002F8CF
:1049200008BD000070B5002100230F22C4781CB31D
:10493000174C246804F4E064C4F5E064C4F3072170
:10494000C1F10404E3B20A4144789C40E1B28478A6
:10495000144021430C07210E0E4C05786155047854
:1049600004F01F050124AC4005786D11AD0005F180
:10497000E025C5F8004109E0047804F01F05012492
:10498000AC40054D0678761145F8264070BD000014
:104990000CED00E000E400E080E100E002490143AA
:1049A000024A1160704700000000FA050CED00E0BB
:1049B00015481648164817481748184818481948FF
:1049C00019481A481A481B481B481C481C481D48CF
:1049D0001D481E481E481F481F482048204821489F
:1049E000214822482248234823482448244825486F
:1049F000254826482648274827482848284829483F
:104A0000294800BF70470000C8E8000828E80008EF
:104A10002CE8000830E8000834E8000838E800080E
:104A20003CE8000840E8000844E8000848E80008BE
:104A30004CE8000850E8000854E8000858E800086E
:104A40005CE8000860E8000864E8000868E800081E
:104A50006CE8000870E8000874E8000878E80008CE
:104A60007CE8000880E8000884E8000888E800087E
:104A70008CE8000890E8000894E8000898E800082E
:104A80009CE80008A0E80008A4E80008A8E80008DE
:104A9000ACE80008B0E80008B4E80008B8E800088E
:104AA000BCE80008C0E80008C4E8000810B50348E6
:104AB000006810B101480068804710BD2C0000203C
:104AC00070B5044600F0C2F8002048490870484913
:104AD00008704849087048490860484908604849D2
:104AE00008704849087048490870484908604849B2
:104AF00008604849086048490870484800680A2129
:104B0000B0FBF1F0464908604648006858B1464895
:104B1000056845B14348066803E0761E002028601A
:104B20002D1D002EF9D10020404908604049086041
:104B300040490860404908604049086040490860B1
:104B4000404908604049087002F088FC02F068FDA6
:104B5000204601F0FBFD208800B170BD204602F028
:104B6000DDF9208800B1F8E7204602F0FFF920883F
:104B700000B1F2E7204602F0E3FA208800B1ECE74A
:104B8000204602F09BFC208800B1E6E7204602F0B8
:104B9000D3FE208800B1E0E7204603F0F5F9208835
:104BA00000B1DAE7204602F025F9208800B1D4E709
:104BB000204601F03DFF208800B1CEE7204604F0FA
:104BC00053F9208800B1C8E7204603F021F9208876
:104BD00000B1C2E7204604F0B7F9208800B1BCE775
:104BE00001F0DCFCFFF7E4FE00BFB6E74000002068
:104BF0004100002088000020E0000020E4000020A8
:104C00006E0000206F000020700000207C0000205B
:104C100080000020840000209000002088E8000828
:104C20008C00002058E8000854E80008200000200C
:104C300024000020280000202C000020300000204C
:104C40003400002038000020BE0000200648006824
:104C50000649096800EB81000549086008460068BC
:104C600020F007000860704754E8000858E8000882
:104C70001400002008480078012800D07047074839
:104C80000078FA2800DBF9E704480078401C034963
:104C9000087000BFF2E70000410000204000002043
:104CA00010B500242D480078012800D010BD00BFA9
:104CB000FBF7F6FA044600BF2948007828B900BF80
:104CC0002046FBF7F1FA00BFF0E725480078401EC8
:104CD0002349087008460078002805DD00BF2046FB
:104CE000FBF7E2FA00BFE1E71E480078002805DD87
:104CF00000BF2046FBF7D8FA00BFD7E702F09AFBC7
:104D0000194908700846007800EB4000174951F82F
:104D1000200017490860084600681649096888425B
:104D200005D100BF2046FBF7BFFA00BFBEE7104821
:104D30000068D0F89000401C0D490968C1F8900047
:104D40000D480068401C0C490860FBF7CDFC00BF13
:104D50002046FBF7A9FA00BF00BFA7E741000020EB
:104D600040000020880000206F000020481800202C
:104D7000E4000020E0000020B40000202DE9F04114
:104D800004460E461546002729480078002804DD11
:104D900042F6E1602880BDE8F0811CB945F6C350B9
:104DA0002880F8E700BF00BF00BFFBF779FA07468D
:104DB00000BF00BF1F480078401C1E49087000BF9C
:104DC00000BF3846FBF770FA00BF00BF00BF1A48AB
:104DD000206066600020206284F82500A0624020E8
:104DE00084F8240004F1080002F03EFA204602F0A4
:104DF0008FF912480088401C1049088000BF00BF8E
:104E000000BFFBF74DFA074600BF00BF0948007816
:104E1000401E0849087000BF00BF3846FBF744FA3F
:104E200000BF00BF00BF0020288000BFB3E7000024
:104E300040000020880000204D5554586C00002090
:104E400010B500241F480078002800DD10BD1E4862
:104E50000078002800DDF9E700BFFBF721FA0446DF
:104E600000BF02F0E7FA194908700846007800EB25
:104E70004000174951F820001649086008460068AC
:104E800015490968884205D100BF2046FBF70CFA96
:104E900000BFDBE70F480068D0F89000401C0D49C8
:104EA0000968C1F890000D480068401C0B49086073
:104EB000FBF715FC00BF2046FBF7F6F900BF00BF6B
:104EC000C4E7000040000020880000206F000020A0
:104ED00048180020E4000020E0000020B40000207A
:104EE00070B50446002518480078002803DD46F612
:104EF0006250208070BD15480078012803D045F627
:104F000089602080F6E712480078FA2803DB45F232
:104F100009202080EEE700BF00BFFBF7C1F905467E
:104F200000BF00BF0A480078401C0949087002F021
:104F300057FC00BF00BF2846FBF7B6F900BF00BF13
:104F40000020208000BFD5E7400000204100002065
:104F5000880000202DE9F04105460C461646002742
:104F600000BF00BFFBF79CF9074600BF00BF012D43
:104F700003D000200D49087002E001200B490870A1
:104F800014B10B48046006E00A4800680A21B0FB2F
:104F9000F1F00749086000BF00BF3846FBF784F90D
:104FA00000BF00BF00203080BDE8F08190000020ED
:104FB0008C00002088E8000870B5044600252048D1
:104FC0000078002803DD46F66550208070BD1D483E
:104FD0000078012803D045F689602080F6E71A485A
:104FE000007818B946F664502080EFE700BF00BF94
:104FF000FBF756F9054600BF00BF13480078401E76
:10500000114908700846007800280ADD00BF00BF7B
:105010002846FBF749F900BF00BF46F663502080E1
:10502000D4E702F0EBFB00BF00BF2846FBF73CF9DA
:1050300000BF00BFFFF704FF0020208000BFC5E7CE
:105040004000002041000020880000202DE9F041B0
:1050500004460E4617461D464FF0000826480078C5
:10506000002804DD42F6E1602880BDE8F0811CB92B
:1050700045F6C3502880F8E700BF00BF00BFFBF72C
:105080000FF9804600BF00BF1C480078401C1B4938
:10509000087000BF00BF4046FBF706F900BF00BF25
:1050A00000BF17482060276200206062666004F13C
:1050B000080002F0D9F8204602F026FC11480088CA
:1050C000401C1049088000BF00BF00BFFBF7E8F894
:1050D000804600BF00BF09480078401E074908709D
:1050E00000BF00BF4046FBF7DFF800BF00BF00BFB6
:1050F0000020288000BFB8E7400000208800002082
:1051000053454D41980000202DE9F04788B00646F0
:10511000894690461C46109D4FF0000A6E48007864
:10512000002806DD46F2AE102880002008B0BDE859
:10513000F08726B945F6C35028800020F6E7B8F17D
:10514000000F03D0B8F5004F02D100E000BF04E02B
:1051500045F6256028800020E8E700BF5F493068F9
:10516000884204D045F6C45028800020DEE70CB108
:105170000020206000BF00BFFBF792F8824600BF0E
:1051800000BF306A88B1306A401E30620CB1706A6C
:105190002060376A00BF00BF5046FBF785F800BFAC
:1051A00000BF002028803846C0E708F4004060B106
:1051B000376A00BF00BF5046FBF776F800BF00BF5C
:1051C00046F2B01028803846B0E7454800780028FD
:1051D0000BDD00BF00BF5046FBF766F800BF00BF05
:1051E00046F6635028800020A0E700BF3C480078C6
:1051F000401C3B49087000BF00BF5046FBF754F805
:1052000000BF00BF00BF4B4606223146684601F092
:10521000A3FF00BF00BF00BFFBF742F8824600BFFC
:1052200000BF2F480078401E2D49087000BF00BF06
:105230005046FBF739F800BF00BF00BFFFF700FE84
:1052400000BF00BFFBF72CF8824600BF00BF254817
:10525000006890F8350030B101280CD002281AD02F
:10526000032821D110E01CB11E480068006C2060AA
:105270000020288024E01CB11A480068006C2060DF
:1052800046F2A91028801BE00CB10020206047F2F4
:10529000D920288014E01CB112480068006C2060FE
:1052A00045F6C25028800BE046F62E60288000BFED
:1052B00000BF5046FAF7F8FF00BF00BF002035E7F7
:1052C00000BF376A00BF00BF5046FAF7EDFF00BFCE
:1052D00000BF38462AE700004000002053454D41FA
:1052E00088000020E00000202DE9FF4105460F4620
:1052F000144635B945F6C3502080002004B0BDE8FF
:10530000F0814FB1B7F5007F07D0B7F5004F05D05A
:10531000B7F5024F04D102E000BF00BF00BF04E0B8
:1053200045F6256020800020E8E700BF1249286884
:10533000884204D045F6C45020800020DEE7FCF708
:105340000DFA06460D48007800280CDD00200346C3
:1053500002462946CDE9017603940090064801F003
:105360009FFB0020CAE7234632463946284602F012
:10537000EFFA80464046C1E753454D4140000020CA
:1053800010B5044612480078E8B902F053F8114904
:10539000087008460078104908700E48007800EB45
:1053A00040000E4951F820000D4908600846006889
:1053B0000C490860012006490870FBF77FF943F6A5
:1053C0009920208002E045F68A60208010BD000010
:1053D000410000206F0000206E00002048180020CF
:1053E000E4000020E00000202DE9F04107464FF0E6
:1053F000000800BF00BFFAF753FF804600BF00BFA0
:1054000000203D4908603D4908803D4908803D49EC
:1054100008603D4908603D4908603D4908603D49D4
:10542000088100BF00BF4046FAF73EFF00BF00BF43
:1054300000BF00BFFAF734FF804600BF00BF364808
:10544000046800BF00BF4046FAF72EFF00BF00BF50
:1054500021E000BF00BFFAF723FF804600BF00BF76
:1054600000207834E06320602063A061A082E082A5
:105470006062A062FCF772F92062783C04F1640675
:105480000020B081D4F8BC4000BF00BF4046FAF70E
:105490000BFF00BF00BF002CDBD100BF00BFFAF73D
:1054A000FFFE804600BF00BF1C48056800BF00BF6C
:1054B0004046FAF7F9FE00BF00BF12E000BF00BF90
:1054C000FAF7EEFE804600BF00BF05F1200600207F
:1054D000B081AD6900BF00BF4046FAF7E5FE00BFEE
:1054E00000BF002DEAD103F09BFB03F029FE002052
:1054F0003880BDE8F0810000540000204E000020FC
:105500009E000020B0000020C4000020D000002039
:10551000800000203C180020B8000020740000200B
:10552000F8B5044600266946324800F08FFDBDF804
:10553000000018B1BDF800002080F8BD6A460021C7
:10554000022000F0F7FDBDF8000018B1BDF8000022
:105550002080F2E700BF00BFFAF7A2FE064600BFB8
:1055600000BF00202449086000BF00BF3046FAF7A2
:105570009BFE00BF00BF0025204800682049096845
:10558000884205D91D4800681D490968B0FBF1F53E
:1055900025B91A4800680A21B0FBF1F56A460021D6
:1055A000284600F0C7FD6946124800F063FABDF8CE
:1055B000000018B1BDF800002080BEE700BF00BFAA
:1055C000FAF76EFE064600BF00BF00200D490860D6
:1055D000094800680C49086001200C49087000BFA8
:1055E00000BF3046FAF760FE00BF00BF00202080F9
:1055F00000BFA2E7D01C0020A000002088E800081F
:1056000070E80008B0000020A4000020AC000020DA
:1056100010B50348006810B101480068804710BD0C
:10562000300000202DE9FF4F87B004469046DDE9A9
:105630001BA5DDE91496179F00200390874800788A
:10564000002805DD47F24A1028800BB0BDE8F08F36
:105650001CB947F2AD102880F7E7B8F1000F03D16D
:1056600047F24F102880F0E71EB946F62F602880D9
:10567000EBE77B480068874203D246F6306028801B
:10568000E3E71698B84203D346F631602880DCE79A
:10569000B9F1400F03D346F273202880D5E7B9F162
:1056A000000F06D16F48844203D046F27320288051
:1056B000CBE7B9F13F0F06D16B48844203D046F2E5
:1056C00073202880C1E7204602F06EFC002028806D
:1056D0000AF0010090B10AF0020078B105960020AE
:1056E000069008E00021059801600598001D0590CE
:1056F0000698401C06900698B842F3D3169806EB1D
:1057000080000490CDE9007A32464046049B0A9915
:1057100000F06EFB0590C4F828800A98E0620898B3
:10572000206284F83790059820600498A06019984A
:105730006065199818B94D480068A06501E019988E
:10574000A0651A9860606662A763A4F83CA04FF059
:10575000000B08E0002104F17C0040F82B100BF155
:10576000010000F0FF0BBBF1000FF3D004F1640067
:10577000189901F047FC204600F082F800BF00BFF6
:1057800000BFFAF78DFD039000BF00BF38480078D6
:10579000401C3749087000BF00BF0398FAF784FD2A
:1057A00000BF00BF00BF94F8370001F063FE204641
:1057B00001F07EFF204602F0ADFB2E480088401C21
:1057C0002C4908802C48007801282DD000BF00BF4C
:1057D00000BFFAF765FD039000BF00BF24480078C2
:1057E000401E2349087008460078A0B92348008865
:1057F000002809DD00BF00BF0398FAF755FD00BF80
:1058000000BF01F0C3FF0DE000BF00BF0398FAF72F
:105810004BFD00BF06E000BF00BF0398FAF744FD50
:1058200000BF00BF00BF10E700BF00BF00BFFAF716
:1058300037FD039000BF00BF0D480078401E0C49A3
:10584000087000BF00BF0398FAF72EFD00BF00BF2D
:1058500000BFFFF7F5FA00BFF7E6000040000020A8
:1058600084E8000878170020B41600208C0000207F
:1058700088000020BC000020410000204C000020D7
:1058800010B504460348006818B12046014909686C
:10589000884710BD2000002070B504460D46002644
:1058A00067480078002803DD47F24E10288070BD5D
:1058B0006448844203D147F24C102880F7E76248DD
:1058C000844203D147F24D102880F0E77CB900BF35
:1058D00000BFFAF7E5FC064600BF00BF5B4804685E
:1058E00000BF00BF3046FAF7DFFC00BF00BF00BFBB
:1058F00000BF00BFFAF7D4FC064600BF00BF544803
:105900000078401C5249087000BF00BF3046FAF7CB
:10591000CBFC00BF00BF00BF94F8360008282DD292
:10592000DFE800F004090E10080A0F11204601F00C
:10593000FFFE54E053E000BF204603F055F94EE06F
:1059400000BF00BF00BF204603F04EF994F83400BA
:10595000082810D2DFE800F004070508090A0B0642
:1059600000BF00BF08E000BF00BF00BF00BF20466F
:1059700001F0B2FC00E000BF00BF30E000BF00BF9C
:1059800000BFFAF78DFC064600BF00BF3048007824
:10599000401E2F49087008460078A0B92D4800889D
:1059A000002809DD00BF00BF3046FAF77DFC00BFCC
:1059B00000BF01F0EBFE0DE000BF00BF3046FAF77C
:1059C00073FC00BF06E000BF00BF3046FAF76CFC76
:1059D00000BF00BF00BF46F62D60288067E700BF0C
:1059E00004F1640001F0ECFA204600F037F820469C
:1059F00002F0A8FA18480088401E1749088020467F
:105A000002F0D2FAFF2084F8360000BF00BF00BFCA
:105A1000FAF746FC064600BF00BF0D480078401E5E
:105A20000B49087000BF00BF3046FAF73DFC00BFCD
:105A300000BF00BF00202880FFF702FA00BF36E752
:105A400040000020B416002078170020E00000205D
:105A5000880000204C000020BC00002010B5044647
:105A60000348006818B1204601490968884710BDFD
:105A7000240000207FB504460D46002600BF00BF6D
:105A8000FAF70EFC064600BF00BF1CB115480068BF
:105A900084420AD100BF00BF3046FAF705FC00BFC0
:105AA00000BF47F2571028807FBD00BF00BF3046BF
:105AB000FAF7FAFB00BF00BF0B48007800280BDDA7
:105AC000002000900190034602462146CDE90205E0
:105AD000064800F0E5FFE7E72946204602F0DCFB38
