:020000040800F2
:10000000602B0120790200080D41000839300008FA
:10001000D53D000847170008B1BF000800000000E8
:100020000000000000000000000000000195000832
:10003000A5200008000000001307000861A50008C3
:10004000930200089302000893020008930200083C
:100050009302000893020008A920000899230008D1
:100060009D25000893020008B725000893020008A8
:10007000930200089302000893020008930200080C
:1000800093020008930200089302000893020008FC
:10009000930200089302000893020008D12500088B
:1000A00093020008ADA8000893020008930200081C
:1000B000D9A80008930200089302000893020008E0
:1000C00093020008930200089302000893020008BC
:1000D000930200084DB600082DB8000829B90008A1
:1000E000A52200089302000893020008930200086A
:1000F0009302000893020008DDAB00089302000899
:10010000930200089302000893020008930200087B
:1001100089B30008B9B400089302000899AB00083D
:10012000ED1E0008930200089302000893020008E5
:10013000930200089302000893020008930200084B
:10014000930200089302000893020008930200083B
:10015000930200089302000893020008930200082B
:10016000930200089302000893020008930200081B
:10017000930200089302000893020008930200080B
:10018000930200089302000800F002F800F064F8FF
:100190000AA090E8000C82448344AAF10107DA45E2
:1001A00001D100F059F8AFF2090EBAE80F0013F0D0
:1001B000010F18BFFB1A43F001031847B4DE00001B
:1001C000D4DE00000A444FF0000C10F8013B13F09D
:1001D000070408BF10F8014B1D1108BF10F8015BA0
:1001E000641E05D010F8016B641E01F8016BF9D193
:1001F00013F0080F1EBF10F8014BAD1C0C1B09D1EA
:100200006D1E58BF01F801CBFAD505E014F8016B5B
:1002100001F8016B6D1EF9D59142D6D370470000ED
:100220000023002400250026103A28BF78C1FBD8FF
:10023000520728BF30C148BF0B607047642900F0E7
:100240008B80782900F0C480002070471FB50DF026
:100250004CFD1FBD10B510BD00F00EFA1146FFF7A2
:10026000F5FF0CF019FB00F02CFA03B4FFF7F2FFD6
:1002700003BC0BF0B0FE0000094880470948004766
:10028000FEE7FEE7FEE7FEE7FEE7FEE7FEE7FEE746
:10029000FEE7FEE704480549054A064B70470000A3
:1002A00085A500088901000860250120602B012038
:1002B000602701206027012072B6704762B6704740
:1002C000EFF3108072B6704780F31088704730BF2C
:1002D000704720BF7047B0FA80F0704790FAA0F0E6
:1002E000B0FA80F0704790FAA0F0704770470000B5
:1002F0000FB4044910B503AA029800F08FF910BC9E
:100300005DF814FB2402002070B50446856900687E
:10031000C10601D5302600E02026C00707D070BDF9
:10032000D4E9012130469047206A401C20626D1EAE
:10033000F6D570BD70B5044685690078C00707D151
:1003400070BDD4E9012120209047206A401C206222
:100350006D1EF6D570BD00002DE9F0410646002463
:1003600010687529314616A510D0AFF3008000281B
:1003700002DA404213A507E031688A0701D512A5C9
:1003800002E0490704D511A5012401E0AFF3008084
:1003900000210A2206F1240709E0B0FBF2FCB0FBC1
:1003A000F2F302FB1C00303078541846491C002838
:1003B000F3D123462A463046BDE8F04100F0D4B8D8
:1003C000000000002D0000002B00000020000000B5
:1003D00070B504460D4621461068AFF300802188B1
:1003E000090502D50F4A7A4402E00E4A7A440E32D9
:1003F000002104F1240305E000F00F060009965DDA
:100400005E54491C0028F7D120780023000704D54A
:10041000702D02D009B1022311322046BDE8704090
:1004200000F0A2B84ADC00002DE9F05F89460446DE
:100430004FF0000ADFF824B1FB44C0F820A02046AA
:10044000E168884700287DD0252806D0D4E901211D
:100450009047206A401C2062F1E700255F46204655
:10046000E16888472028064607DB312E05D2B819F7
:1004700010F8200C08B10543F1E7A80701D525F0D5
:100480000405C4F81CA00027C4F818A02A2E09D01F
:1004900030460BF099FD38B304EB8708303EC8F8BE
:1004A000186019E059F8041B204604EB870291619B
:1004B000E1688847012F064618D1E069002820DA54
:1004C00025F020051DE0D8F8180000EB800006EBB1
:1004D00040003038C8F818002046E16888470646D2
:1004E0000BF072FD0028EED1012F0AD02E2E08D17C
:1004F0002046E16888477F1C0646022F45F020050C
:10050000C4DBA069002803DA404245F00105A06180
:10051000E80701D025F01005A6B1A6F14100192881
:1005200002D8203645F400654A463146204625600B
:100530004D46FFF783FE60B1012807D0ED1D25F081
:10054000070000E007E000F1080978E705F1040979
:1005500075E730467AE7206ABDE8F09F20DC0000AE
:1005600070477047704770472DE9F0470D46994630
:100570009246044600F124080168880604D5E06923
:1005800021F01001216000E00120A84201DD471B9D
:1005900000E00027A1697A1902EB0900081AA0619E
:1005A0002078C00602D42046FFF7AEFE002608E001
:1005B000D4E901211AF806009047206A401C761CF5
:1005C00020624E45F4DB2078C0060AD52046FFF7AE
:1005D0009BFE06E0D4E9012130209047206A401CB0
:1005E0002062381EA7F10107F4DC07E0D4E90121FD
:1005F00018F805009047206A401C2062281EA5F1CB
:100600000105F3DC2046FFF795FE2078000602D5B1
:100610000220BDE8F0870120FBE70000074B70B522
:100620000D467B4400F011F80446284600F020F8FF
:1006300010B14FF0FF3070BD204670BD57C20000B2
:1006400001694A1C02610878704700B58FB0CDE996
:1006500001310021059105497944CDE90310114686
:100660006846FFF7E1FE0FB000BD0000E5FFFFFFA9
:10067000007B00F080007047754600F02BF8AE4616
:1006800005006946534620F00700854618B020B59E
:10069000FFF700FEBDE820404FF000064FF00007D6
:1006A0004FF000084FF0000B21F00701AC46ACE81A
:1006B000C009ACE8C009ACE8C009ACE8C0098D4687
:1006C000704710B50446AFF300802046BDE81040E7
:1006D000FFF7CBBD004870470025012022484FF6A8
:1006E000FF710170002080F309882048016881F3C0
:1006F00008881F484FF08051016062B6FEE71C4831
:100700004FF080510160704719484FF080510160EF
:10071000704772B6EFF3098050B11EF0100F08BF9A
:1007200020ED108A203880E8F00F1249096808602F
:1007300000B5114880475DF804EB104810490A786D
:1007400002700C480F490A680260106890E8F00FC8
:1007500020301EF0100F08BFB0EC108A80F309881B
:100760004EF0040E62B6704722ED00E01400002047
:1007700004ED00E0E0000020495A00086E0000206F
:100780006F000020E400002000B58BB001210802BA
:1007900008F092FC00F0DAF800F096F80121080267
:1007A00008F09AFC00214FF4807008F095FC0020BE
:1007B000099007904FF48030089000200A9007A815
:1007C00000F054F80020019001208DF808008DF809
:1007D000090000200390059006208DF8180001A95B
:1007E0001B4800F0D9F80121194800F033F806231E
:1007F00001220B21164800F0F9F8062302220A21F3
:10080000134800F0F3F8062303220C21104800F0EF
:10081000EDF80623042201210D4800F0E7F8062335
:10082000052200210A4800F0E1F806231A460D21AE
:10083000074800F0DBF8064800F034F901210448CD
:1008400000F037F80121024800F028F80BB000BD95
:100850000020014021B1826842F00102826003E081
:10086000826822F001028260704700000021084A7D
:100870001168084A1140D0E900231A4383681A43DB
:10088000C3681A431143044AC2F8041370470000B6
:1008900004230140E030FCFF0020014021B18268C8
:1008A00042F48072826003E0826822F48072826087
:1008B000704721B1826842F40072826003E082686E
:1008C00022F400728260704700B58FB00121880564
:1008D00008F0C2FB00BF1A4801F05DFB0028FAD106
:1008E0000090184801901848029000200390602062
:1008F0000490002005904FF480600690400007901F
:100900000890C010099040020A9000200B9001202E
:100910000C9000200D900E906946094801F096FB5E
:100920000121074801F02CFB1021054801F0F4FAE1
:1009300001221021024801F06BFB0FB000BD000046
:10094000106402404C200140B81D00201CB501215C
:10095000042008F081FB0F20009003208DF8040094
:1009600000208DF807006946094802F073F801215C
:10097000084608F071FB032000908DF80400002069
:100980008DF807006946034802F064F81CBD0000BA
:10099000000802400000024030B50246002000235B
:1009A0005068104C20400D790C6844EA052420431F
:1009B000506090680C4C2040D1E903542C438D6862
:1009C0002C434D7944EA450420439060D06A20F4DA
:1009D00070000C7D641EE4B2234340EA0350D062F1
:1009E00030BD0000FFFEFFFCFDF7FFC0F0B5044680
:1009F0000D4600200021092D11DDE068A5F10A0651
:100A000006EB4607072606FA07F18843A5F10A0612
:100A100006EB460603FA06F10843E0600CE02069A5
:100A200005EB4507072606FA07F1884305EB45065F
:100A300003FA06F108432061072A0FDA606B561E9D
:100A400006EB86071F2606FA07F18843561E06EBBB
:100A5000860605FA06F10843606322E00D2A0FDAE4
:100A6000206BD61F06EB86071F2606FA07F1884380
:100A7000D61F06EB860605FA06F10843206310E050
:100A8000E06AA2F10D0606EB86071F2606FA07F1BB
:100A90008843A2F10D0606EB860605FA06F1084327
:100AA000E062F0BD816841F080418160704710B51F
:100AB00002F074FC10BD70B50446002602F024FD5F
:100AC0002546E11704EB11610912A02202EB410156
:100AD000C8B202F0E3FC02F061FDE11704EB116122
:100AE0000912A4EB0121C8B202F0D8FC02F056FDB5
:100AF00002F00AFDA12002F0D1FC02F04FFD00201F
:100B000002F098FC064602F025FD304670BD70B537
:100B100004460E4602F0F8FC2546E11704EB11618D
:100B20000912A02202EB4101C8B202F0B7FC02F0A8
:100B300035FDE11704EB11610912A4EB0121C8B2E4
:100B400002F0ACFC02F02AFD304602F0A7FC02F0F5
:100B500025FD02F0FFFC32200BF000FE70BD00000E
:100B600010B5FF20FFF7A7FF0446512C08D138A08D
:100B7000FFF7BEFB01203B4981F83000002010BD8B
:100B800043F2B0603849088200F09CFE3648008A83
:100B9000642190FBF1F03449097B48433249C88114
:100BA0000020304908728872487230A0FFF7A0FB1D
:100BB0002D48008A010A0220FFF7A9FF2A48017C7C
:100BC0000320FFF7A4FF2848C089010A0420FFF78B
:100BD0009EFF2548817B0520FFF799FF4620294984
:100BE00048723C2088720846417A0620FFF78FFF42
:100BF0002448817A0720FFF78AFF1A48017A0820E3
:100C0000FFF785FF1748817A0920FFF780FF154815
:100C1000417A0A20FFF77BFF5121FF20FFF777FF82
:100C2000FF20FFF748FF044602200BF097FD214606
:100C300015A0FFF75DFB512C08D10220094981F86E
:100C4000300018A0FFF754FB002098E7012096E73A
:100C50005265616420415432347878204F4B210D25
:100C60000A000000B41E0020BE1F002046697273F7
:100C70006520577269746520415432347878202198
:100C80000D0A0000581F002077726974652066699C
:100C900072737420737461203A20253032780D0A03
:100CA000000000004669727365205265616420414E
:100CB0005432347878204F4B210D0A002DE9F04F43
:100CC00089B0002008900590FA48407901287DD12C
:100CD0000020F849487148800871084690F80AA039
:100CE00090F80BB0BBF1010FF1D190F80C90B9F175
:100CF000610F6CD01DDCB9F1080F69D00CDCB9F1C3
:100D0000010F31D0B9F1040F6FD0B9F1060F6DD0DA
:100D1000B9F1070F6BD135E1B9F1090F68D0B9F11D
:100D2000100F7CD0B9F1110F7AD0B9F1150FF1D1B4
:100D30003CE0B9F1750F74D00CDCB9F1620F71D0E1
:100D4000B9F1630F6FD0B9F1640F6DD0B9F1710FC4
:100D5000E0D131E2B9F1770F67D0B9F1810F65D0F9
:100D6000B9F1820FD6D1E7E20020D349C883084603
:100D7000807E012817D1D149087200200880488060
:100D800008460089ADF800000846016802914168F4
:100D900003910089ADF810000B46FF210120029A53
:100DA00008F066FE01E009F023FAC7E20020C2491C
:100DB0008883C048C0890790BE48008A0690BDF865
:100DC0001C1088B20CF03EFB04B202E0B7E2BFE1B7
:100DD000E5E0BDF8181088B20CF034FB07B240F221
:100DE000DC50844205DD044607E0A6E04BE1A4E2C6
:100DF000AFE0B348844200DA044604B9DFB1002012
:100E0000AD498875AF4908750120AB494876002087
:100E10008874032081F820000020AA4907E0ECE054
:100E200014E1DFE1A8E1B2E1BCE138E258E281F887
:100E30002C0081F83800A048807E012804D0A24808
:100E400090F82400012814D19F48007F01280BD17D
:100E500000209D49088048800A46B2F90210B2F984
:100E6000000009F003FA67E00121084609F0C8F91B
:100E700062E09148807E01285ED08F48807D28BB4B
:100E80008D48407900F0030020B98B48C07A00F00B
:100E9000010030B1002C04DD00208B49088048801F
:100EA0001BE08548407900F0300020B98248C07AC4
:100EB00000F0020030B1002C04DA002082490880E2
:100EC00048800AE080480480478006E07D48008D25
:100ED0007D4908807B48408D48807B480088E0B988
:100EE00079484088C8B97948007D00F00100A0B970
:100EF0007548407F012808D17348007F012804D13C
:100F00000021084609F07CF916E06F4AB2F9021098
:100F1000B2F9000009F0AAF90EE06B48007F20B991
:100F20000121084609F06CF906E0674AB2F902109F
:100F3000B2F9000009F09AF900E26248408D83B2EC
:100F40006048008D82B251466148007808F032FB5B
:100F5000F4E15E48007D5B4991F83810084356493A
:100F600048625A48017B544881625A490878097896
:100F7000491C584B19705049D1E90923514608F0D2
:100F8000E7FDDBE14C48C37A42795146504800788E
:100F900008F018FD4748C07B47498873CEE14548B3
:100FA00090F80E80B8F1000F03D1002042498875F7
:100FB0001CE0B8F1010F19D14448007D00F0010098
:100FC000A0B93C48807B05903B4890F82000012860
:100FD0000CD00120384981F8200081F830003949CF
:100FE00008750020344988750120487651463848F4
:100FF0000078059A08F0A6FAA0E1374890ED080AB3
:10100000F2EE040A20EE200ABDEEC00A10EE100A2D
:1010100000B229498885304890ED030AF2EE040AAF
:1010200020EE200ABDEEC00A10EE100A01B22248DE
:10103000C185284908780978491C264B1970002376
:101040001D49CA6A514608F0B9FB77E11948807B0F
:101050001849CD7B60F31F250846007C4E7C60F369
:101060001F263146284601F0E9FF33462A46194932
:1010700008780978491CDFF85CE08EF800105146CA
:1010800008F024FB5AE10B48807B401F05284CD216
:10109000DFE800F00324303C48000F48007840F0BF
:1010A00010000D4908700846007820F040000870D4
:1010B0003FE00000DC4F0020B41E0020E81E0020AE
:1010C00024FAFFFF781E0020981F0020BE1F00207A
:1010D0001801002019010020581F002099480078AD
:1010E00040F02000974908700846007820F0800002
:1010F00008701EE09348007840F040009149087065
:101100000846007820F01000087012E08D48007842
:1011100040F080008B4908700846007820F02000DD
:10112000087006E001F09AFF03E00020854908708E
:1011300000BF00BF84498A7B844908780978491C2C
:10114000DFF808C28CF80010514608F0FDFAF5E00F
:101150007D48807B7E4981F821007B48C07B81F8F7
:1011600022007A4908780978491C784B1970794A25
:10117000514608F0A5FBE1E0744908780978491C5C
:10118000724B1970744A514608F06AFDD6E06F49F7
:1011900008780978491C6D4B19706F4A514608F060
:1011A00051FACBE0694908780978491C674B1970F6
:1011B000514608F0C7FBC1E06348C17B807B41EA30
:1011C00000206449C8800020C870CA885F49087838
:1011D0000978491CDFF874C18CF80010514608F0FA
:1011E00005FDABE0574890F90A0000EE100AB8EE92
:1011F000C00A5448D0ED030A30EE200ADFED570A4A
:1012000030EE600ABDEEC00A10EE100A40B24D4941
:101210008872084690F909005A3000EE100AB8EEBC
:10122000C00A0846D0ED080A30EE600ABDEEC00ADA
:1012300010EE100A40B248729FED480A084680ED51
:10124000030A9FED460A80ED080A90F9090000EEB6
:10125000100AB8EEC00AF0EE400A9FED400A09F00D
:10126000A3F8384890F90A0000EE100AB8EEC00A58
:10127000F0EE400A9FED390A09F0C0F8314991F9C2
:101280000A3091F90920314908780978491CDFF8BA
:10129000BCE08EF80010514608F06EFF4EE02A4880
:1012A000807B2B4908722848C07B48722648007C06
:1012B00088722548407C08742348807C487408461E
:1012C000007C00900B7C0A7A204908780978491C38
:1012D000DFF878E08EF80010514608F0F1FF2DE0BD
:1012E0001948807B1B49C8724FF6FF70C8801648AA
:1012F000C07B40B21A4981F848001348007CC8708E
:101300001148407C81F84A00084690F8480028B10E
:1013100000200F494876022081F820000D49CA7A42
:101320000A4908780978491CDFF820C08CF80010B9
:10133000514608F08BFA01E000E000BF00BF09B0A1
:10134000BDE8F08F581F0020DC4F0020180100205E
:10135000B41E00208C1F0020441F00200000B44257
:10136000F41E002010B501F059FD5848007E00F031
:10137000200068B95548007E40F0200053490876A7
:101380000846007E00F02000087600F007FB96E09B
:101390004E48407E002860D14C48007E00F0FE00A0
:1013A0004A4908760846007BD0B90846807BB8B920
:1013B000002047490870454948768876022081F820
:1013C00026000846006A4EF66021884273D93F48DD
:1013D000007E40F040003D490876012048756AE0F3
:1013E0003A48007E40F0010038490876002038492C
:1013F000087004203549487600F0AEFB3348007C85
:1014000048B13248807C30B90220304988760620C5
:1014100081F826004FE02D48007C48B92B48807C9D
:1014200030B1032029498876022081F8260042E065
:101430002648007C48B12548807C30B101202349F2
:101440008876052081F8260035E02048807E1F49F7
:101450008876022081F826002DE000F07DFB00F068
:10146000B3FA00F069FA194991F8260000F07AFA07
:10147000164991F8260000F02DF81448407E042803
:1014800001D100F043FB1148007B88B90F48807BF5
:1014900070B90F480078401C0D4908700846007864
:1014A000C82808DD0020087008494876887602E0E0
:1014B0000020074908700548002101608160034948
:1014C00091F8260000F006F810BD0000781E0020FC
:1014D000040100203F49897E012903D10020002119
:1014E0003D4A117008286FD2DFE800F06E68551889
:1014F0006E04412D3849097881420ED03649087072
:1015000042F21061354A118443F2106151846FF048
:101510003B01334A11850021518559E02E49097854
:1015200081420FD02C49087042F210612B4A11847D
:1015300043F2106151846FF02701294A11856FF041
:10154000F501518544E02449097881420ED02249B1
:10155000087042F21061214A118443F210615184F3
:101560006FF022011E4A1185D721518530E01A49BA
:10157000097881420ED01849087042F22061174A5A
:10158000118443F2206151840021154A11856FF0C6
:10159000F90151851CE01049097881420DD00E49AE
:1015A000087042F220610D4A118443F22061518497
:1015B00000210B4A1185FA21518509E05A21074A79
:1015C0001181518104E0FFE70021034A117000BF3F
:1015D00000BF7047B41E00200E010020981F00209D
:1015E000781E00200EB500BF7BE03E48807D0128BC
:1015F00063D13D48007D00F00100002851D13B48F7
:10160000C07D012843D1394890F8380002283ED0E7
:10161000002036498875C820088500204885642048
:1016200033490881488142F22060088443F22060F7
:1016300048844FF4FA600BF091F800202B4908859C
:1016400048852B4908814881C8200BF087F8002085
:101650002649C87581F82C00084690F83900401CCE
:1016600081F83900084690F83900032830DB022061
:1016700081F8380000201B498875032081F820007C
:1016800000201A4981F8390081F82C0020E0FFF78A
:1016900069FE1648407D01281AD10020114988753D
:1016A00016E042F210601249088443F21060488448
:1016B0006FF03B00088148810AE000200B49088553
:1016C00048850B490881488102A90A4804F08CF931
:1016D00002A80021C8230A46CDE90010084604F0FC
:1016E00083FA82E7B41E0020BE1F0020781E00206F
:1016F000981F0020CC2900201CB50121082007F0EC
:10170000ABFC4FF40070009001208DF80400002025
:101710008DF806008DF8070003208DF80500694656
:10172000044801F097F94FF40071024801F006FAFD
:101730001CBD0000000C02401FB5684607F0DCFC31
:10174000019804B010BD00BFFEE710B500F020F80E
:1017500000F01AF810BD000010B5002400BF00BF53
:10176000FEF7AEFD044600BF00BF1021054802F0A1
:1017700033FB00BF00BF2046FEF7A6FD00BF00BF41
:1017800010BD00002C02002010B5FFF7E5FF10BDD2
:1017900010B500200249086000F00AF810BD0000F2
:1017A0001000002001490860704700001000002070
:1017B00010B5FFF7C1FF04460848006840F080708C
:1017C000064908600020064948600846006840F065
:1017D000010008602046FFF7E5FF10BDFCED00E0CA
:1017E000001000E00149486870470000001000E068
:1017F00010B50246002006E013784340034CE05C3D
:10180000521C4B1ED9B20029F6DC10BD10DF0008B7
:101810000EB500BF46E0FFF751FA2348007848B103
:101820002248007D30B901202049087502A92048CE
:1018300003F0EEFD1F48C07A28B91E48C0884FF655
:10184000FF71884209D01948407D30B901201749FD
:10185000487502A9184803F0DBFD1848007D0128EF
:1018600017D11248807DA0B91048407E012810D1C0
:101870000E4981F8200000201049087601200B490C
:101880008875002048760D49487502A90C4803F078
:10189000BFFD02A8002103230A46CDE90010084637
:1018A00004F0A2F9B7E70000581F0020B41E002082
:1018B000802700208C1F002008290020781E00208F
:1018C000CC2900201A48008800EB80004FF6FF71F9
:1018D00001EA4000174908800846008845F6507123
:1018E000884203DA05201349087320E01148008874
:1018F00046F2D011884203DA14200E49087316E02C
:101900000C48008846F29051884203DA3220094997
:1019100008730CE00748008846F67811884203DA1D
:101920004B200449087302E05A20024908737047AB
:10193000AC1D0020BE1F0020074890F84C0000F0AE
:10194000030020B90548C07A00F0020010B1002061
:101950000349087670470000F41E0020B41E0020E2
:10196000781E002010B50446A01E062813D2DFE81A
:1019700000F00F0612030C090AF03EFB0CE00AF01F
:10198000B7FC09E00AF0FAFB06E00AF021FE03E0EA
:101990000AF06CFD00E000BF00BF10BD0020094947
:1019A00048768876888308628884487581F826009E
:1019B000084600210160416081600020014981F8F2
:1019C00026007047781E00200448006A44F6206113
:1019D000884202D90020014988767047781E00208D
:1019E0000D48006A401C0C4908620846808B401C68
:1019F00088830A4890F82000012809D10848007D12
:101A000000F0010020B90846808C401C888402E068
:101A10000020014988847047781E0020B41E0020F1
:101A2000BE1F002010B52DED048B344890ED090A3F
:101A3000B5EEC00AF1EE10FA2ADD90ED080AD0EDFD
:101A4000090A30EE600A10EE101A08460CF0DCF8B5
:101A500041EC190BB0EE490AF0EE690A0AF0AAFA55
:101A6000B0EE408AF0EE608A9FED250B53EC102B10
:101A700051EC180B0BF06EFE0AD22048007820F0D3
:101A800050001E4908709FED200A084680ED090AA3
:101A90001A4890ED040AB5EEC00AF1EE10FA2ADDFC
:101AA00090ED030AD0ED040A30EE600A10EE101A31
:101AB00008460CF0A9F841EC190BB0EE490AF0EE1B
:101AC000690A0AF077FAB0EE408AF0EE608A9FED7C
:101AD0000C0B53EC102B51EC180B0BF03BFE0AD205
:101AE0000648007820F0A000044908709FED060A1F
:101AF000084680ED040ABDEC048B10BD581F002081
:101B0000000000000000E03F000000001148007CE1
:101B100030B11048807C18B902200E49887617E051
:101B20000C48007C30B90B48807C18B1032009496F
:101B300088760DE00748007C30B10648807C18B1FB
:101B400001200449887603E00248807E01498876B6
:101B500070470000781E00204648007850281ED1AB
:101B60004448807A02281AD14248407E042803D192
:101B70000120404948767BE03F480078401C3E49C0
:101B8000087008460078012872DB002008703B4985
:101B900008703B49087001203649487668E03548AE
:101BA0000078502822D13348007A50281ED131487D
:101BB000407E042803D102202E49487658E02F4861
:101BC0000078401C2D49087000202D4908702A49D2
:101BD00008702A48007801284ADB0020274908704D
:101BE0002749087002202349487641E0214880783F
:101BF00002281FD11F48807A02281BD11D48407E31
:101C0000042803D103201B49487631E000201B49FA
:101C10000870194908701A480078401C1849087063
:101C200008460078012823DB0020087003201149B2
:101C300048761DE00F48407E042812D10D48C07B35
:101C400030B10C48407C18B902200A49487608E0B7
:101C50000848C07B28B90748407C10B103200549DB
:101C60004876002005490870054908700249087047
:101C700070470000781E0020110100200F01002095
:101C8000100100200EB500BFF1E07948007800F0A7
:101C90001000002873D17748808840F628218842B8
:101CA00039DB7548C07DA8BB32200AF057FD002003
:101CB00071490885488564200AF050FD6D48808888
:101CC00040F62821884224DB6B48C07D002820D1C3
:101CD0006748007840F010006549087001206649A7
:101CE00081F82C00002081F8380081F8390040216B
:101CF000624800F023FF0020614908706148007DC0
:101D000040F001005F49087500205F4988755A4915
:101D100008759FE0FFE75B48007D00F0FE00594931
:101D200008754021554800F00BFF0020504908700D
:101D30005548407EE8B95048807D0128E9D101F03E
:101D40006DF8C8200AF00AFD01204B49C875002033
:101D5000087601204C498875002048764649487528
:101D60000120494981F8200002A9484803F050FBAE
:101D700070E000204049C87588756BE0FFE73C487B
:101D8000007800F0200088BB3A48C08840F2C67155
:101D9000884215DA3A480078401C394908700846EC
:101DA00000780A2856DD002008703148007840F09D
:101DB00020002F4908704021304800F0C1FE49E062
:101DC0002C48C08840F60501884205DA2948008879
:101DD00040F65A2188423DDB2A48007D40F0010050
:101DE0002849087500202649087033E0FFE721489C
:101DF000808840F62821884217DC4FF448700AF0AA
:101E0000ADFC1C48808840F62821884222DC002056
:101E1000174908704021194800F092FE1948007DCA
:101E200000F0FE001749087514E015480078401CC2
:101E3000134908700846007805280BDD002008705B
:101E40000B48007800F0DF000949087040210B487A
:101E500000F074FE01F016F80B49C87202A80021C8
:101E600064230A46CDE90010084603F0BDFE0CE7E6
:101E70009E010020AC1D0020781E002000000240C2
:101E80009F010020BE1F0020B41E0020CC2900208E
:101E90001CB50121084607F0DFF84FF48050009090
:101EA00000208DF8040001208DF8070002208DF835
:101EB000050069460B4800F0CDFD0121102007F018
:101EC000CBF84FF48050009000208DF804000120E2
:101ED0008DF8070002208DF805006946024800F0E1
:101EE000B9FD1CBD000002400010024010B502F018
:101EF0008FFB0749074800F059F828B10449054805
:101F000000F024F80AF090FC02F098FB10BD0000ED
:101F100020800010106402400246094B9A4201D210
:101F2000084801E00648103801F000531BB1064B89
:101F30000B40C36002E0044B0B408360704700001D
:101F400010640240006002407D0F7D0F0246094B85
:101F50009A4201D2084801E00648103801F00053C7
:101F60001BB1064B0B40C36002E0044B0B40836087
:101F70007047000010640240006002407D0F7D0F3A
:101F800021B1026842F00102026003E0026822F01F
:101F9000010202607047014600200A6802F0010257
:101FA0000AB1012000E000207047000070B5024631
:101FB000002000240025124EB24201D2114B01E054
:101FC0000F4B103B104E0E4036B11E2606EAD124B0
:101FD000166806EA040502E0566906F0800501F07D
:101FE00000560EB15C6800E01C68084E344004EAFC
:101FF000010616B10DB1012000E0002070BD000007
:1020000010640240006002403C0F3C0F7D0F7D0FCA
:1020100010B501F080034BB122B1436943F0800356
:10202000436103E0436923F08003436180290BD0BF
:102030002AB1036801F01E042343036004E003682F
:1020400001F01E04A343036010BD000010B5002280
:102050000268134B1A40CC680B6823434C69234336
:102060008C692343CC6923430C6A23434C6A234382
:102070008C6A23434C6B23438C6B23431A430260CB
:10208000426922F00702D1E90B3423431A4342612B
:102090000B6943604B6883608B68C36010BD0000B0
:1020A0003F801CF07047000010B502F0B1FA01202B
:1020B00000F0E8FB00287DD07348007800F0400075
:1020C00040284DD07048007800F02000202810D023
:1020D00001216E4800F029FD012809D16C480088D3
:1020E0006C4908806848007840F020006649087014
:1020F000C4E00121654800F018FD0028F8D16448CB
:102100000088654908806048007800F0DF005E497B
:102110000870614800885F490988884209DA5E488A
:1021200000884FF6FF7108445A490988401A84B262
:1021300005E05948008857490988401A84B2B4F527
:10214000B97FD5DB40F226208442D1DA4E480078B0
:1021500040F040004C4908700020504908708DE064
:102160004948007800F02000202810D0012147487D
:1021700000F0DBFC0128BBD14548008845490880B8
:102180004148007840F020003F49087076E0012186
:102190003E4800F0CAFC002870D13D4800883E4906
:1021A00008803948007800F0DF00374908703A4865
:1021B000008800E065E037490988884209DA364836
:1021C00000884FF6FF71084432490988401A84B2EA
:1021D00005E0314800882F490988401A84B2142C40
:1021E00006DB5A2C04DA2D4800782C49087015E0DB
:1021F000642C08DBD22C06DA2848007840F0010075
:10220000264908700AE0DC2C02DBB4F5877F05DB89
:10221000B4F5967F02DB00201B4908701A4800784D
:1022200000F01F0006281EDB0020174908701B481D
:102230000078502802D11A4908701FE0174800782A
:102240000C2802D11649487018E01448007802287A
:1022500002D11349887011E0104800780A280DD186
:102260000F49C8700AE008480078401C0649087009
:102270000A4800784006000E08490870012000F066
:10228000FBFA02F0DBF910BD360100200004024029
:1022900044010020380100203A0100203C010020C8
:1022A000781E002010B502F0B3F94FF4006000F082
:1022B000E9FA002863D03348007800F02000202895
:1022C00059D13048007800F08000802853D02D4844
:1022D000007800F04000402811D04FF400612A48F7
:1022E00000F023FC012846D12848008828490880AE
:1022F0002448007840F04000224908703BE04FF449
:102300000061214800F011FCA8BB20480088214949
:102310000880084600881E490988884209DA1D4855
:1023200000884FF6FF71084419490988401A84B2A1
:1023300005E01848008816490988401A84B23220FE
:1023400060431D2190FBF1F00E494880084640880B
:10235000B0F5FA6F02DD4FF4FA6048800948007862
:1023600000F00F00074908700846007840F0800030
:102370000870002088804FF4006000F07DFA02F0C1
:102380005DF910BDDC010020001002404401002076
:10239000560100205801002010B502F039F9022042
:1023A00000F070FA00287DD07548007800F04000F9
:1023B00040284DD07248007800F02000202810D02E
:1023C0000221704800F0B1FB012809D16E48008855
:1023D0006E4908806A48007840F02000684908701B
:1023E000C7E00221674800F0A0FB0028F8D166484A
:1023F0000088674908806248007800F0DF00604983
:1024000008706348008861490988884209DA604891
:1024100000884FF6FF7108445C490988401A84B26D
:1024200005E05B48008859490988401A84B2B4F530
:10243000B97FD5DB40F226208442D1DA50480078BB
:1024400040F040004E49087000205249087090E06A
:102450004B48007800F02000202810D00221494885
:1024600000F063FB0128BBD147480088474908803A
:102470004348007840F020004149087079E002218B
:10248000404800F052FB002873D13F480088404983
:1024900008803B48007800F0DF00394908703C486C
:1024A000008800E068E039490988884209DA38483C
:1024B00000884FF6FF71084434490988401A84B2F5
:1024C00005E03348008831490988401A84B2142C49
:1024D00006DB642C04DA2F4800782E49087015E0DA
:1024E000642C08DBDC2C06DA2A48007840F0010076
:1024F000284908700AE0E62C02DBB4F5877F05DB8B
:10250000B4F5967F02DB00201D4908701C48007856
:1025100000F01F00062821DB0020194908701D4823
:102520000078502802D11C49087222E0194800782E
:102530000C2803D10C21184841721AE01548007884
:10254000022803D102211448817212E01148007858
:102550000A280ED10A211048C1720AE00848007802
:10256000401C074908700B4800784006000E0949D6
:102570000870022000F080F902F060F810BD000041
:102580003D01002000040240440100203E010020E3
:102590004001002042010020781E002010B502F00A
:1025A00037F8042000F06EF910B1042000F064F94F
:1025B00002F044F810BD10B502F02AF8102000F027
:1025C00061F910B1102000F057F902F037F810BD92
:1025D00010B502F01DF8202000F054F9002860D05A
:1025E0009948007800F02000202857D196480078BC
:1025F00000F08000802851D09348007800F040001F
:10260000402810D02021914800F08FFA012845D1B0
:102610008F4800888F4908808B48007840F0400040
:10262000894908703AE02021884800F07EFAA8BB6A
:1026300087480088884908800846008885490988B5
:10264000884209DA844800884FF6FF7108448149BE
:102650000988401A84B205E07F4800887D490988CE
:10266000401A84B2322060431D2190FBF1F076497C
:10267000488008464088B0F5FA6F02DD4FF4FA60F2
:1026800048807148007800F00F006F4908700846D4
:10269000007840F08000087000208880202000F042
:1026A000EBF8802000F0EEF8002860D06B4800784E
:1026B00000F02000202857D16848007800F0800002
:1026C000802851D06548007800F04000402810D0A4
:1026D00080215E4800F029FA012845D15C48008835
:1026E0005F4908805D48007840F040005B49087011
:1026F0003AE08021554800F018FAA8BB54480088F9
:10270000584908800846008855490988884209DAEE
:10271000544800884FF6FF71084451490988401A0F
:1027200084B205E04F4800884D490988401A84B2B8
:10273000322060431D2190FBF1F048494880084653
:102740004088B0F5FA6F02DD4FF4FA6048804348E4
:10275000007800F00F00414908700846007840F00A
:102760008000087000208880802000F085F84FF4F9
:10277000007000F087F8002863D03B48007800F034
:102780002000202859D13848007800F080008028A7
:1027900053D03548007800F04000402811D04FF465
:1027A0000071324800F0C1F9012846D1284800885C
:1027B0002F4908802C48007840F040002A490870D2
:1027C0003BE04FF40071294800F0AFF9A8BB204866
:1027D00000882849088008460088254909888842D9
:1027E00009DA244800884FF6FF7108442049098817
:1027F000401A84B205E01F4800881D490988401A24
:1028000084B2322060431D2190FBF1F016494880CC
:1028100008464088B0F5FA6F02DD4FF4FA60488050
:102820001148007800F00F000F4908700846007842
:1028300040F080000870002088804FF4007000F0A5
:102840001BF801F0FBFE10BDD0010020000C02407F
:10285000440100204E01002050010020CA01002048
:102860004A0100204C010020D60100200010024047
:102870005201002054010020014908607047000007
:10288000143C014001460020034A12680A400AB184
:10289000012000E000207047143C01400021234942
:1028A0008279002A3AD00A46126803689A430B4696
:1028B0001A600A1D126803689A430B1D1A60027998
:1028C00011440A6803681A430A60184A08321268F9
:1028D00003689A43154B08331A601A1D126803687F
:1028E0009A43124B0C331A604279102A0ED11A1FE8
:1028F000126803681A430D4B08331A601A1D1268D8
:1029000003681A43094B0C331A600DE007494279FA
:1029100011440A6803681A430A6005E00279114409
:102920000A6803689A430A6070470000003C01404F
:102930000EB500BF80E000F0C1FE40484088B0F511
:102940007A7F05DB4FF47A703C494880012008719A
:102950003A480079012803D03948C07E012840D187
:102960003748807E012813D13648007F20B90121E5
:10297000084607F045FC2FE00020324908804880D7
:102980000A46B2F90210B2F9000007F06FFC23E02A
:102990002C48407F012814D12A48007F012804D107
:1029A0000021084607F02CFC16E00020254908808D
:1029B00048800A46B2F90210B2F9000007F056FC4E
:1029C0000AE000201F49088048800A46B2F9021038
:1029D000B2F9000007F04AFC20211B4800F0AEF8D5
:1029E00003E02021184800F0ABF8164890F82400C6
:1029F000012815D11548408943F69821884212DDF7
:102A000013480078401C12490870084600780A28CC
:102A100009DD0020087020210B4800F08FF802E04B
:102A200000200B49087002A8002164230A46CDE962
:102A30000010084603F0D8F87DE70000DC4F0020C6
:102A4000B41E0020981F002000000240BE1F00207E
:102A500098010020F0B50A4600210023002400BFA1
:102A60003DE0012505FA01F3156805EA03049C42DF
:102A700034D105684F000326BE40B5430560157983
:102A80004E00B5400668354305601579012D02D02A
:102A90001579022D16D185684F000326BE40B54337
:102AA000856055794E00B540866835438560456838
:102AB00001268E40B5434560456896798E40B6B292
:102AC00035434560C5684F000326BE40B543C56029
:102AD000D5794E00B540C6683543C560491C1029FC
:102AE000BFD3F0BDF0B5002300244D07ED0E02FA70
:102AF00005F3CE1000F1200555F826504E07F70ECD
:102B00000F26BE40B543CF1000F1200646F82750EF
:102B1000CE1000F1200555F8265045EA0304CE10EA
:102B200000F1200545F82640F0BD0246002013695B
:102B30000B400BB1012000E000207047418370473B
:102B40000183704710B52DED068B0AF0B3F91B49D0
:102B500008600968A1F57A700AF0D1FD41EC190B03
:102B60009FED170B53EC102B0AF030FE41EC180BC5
:102B70000AF068FD1449086010490968A1F57A70E7
:102B80000AF0BDFD41EC1A0B9FED0D0B53EC102B21
:102B90000AF01CFE41EC190B9FED0C0B53EC102BB3
:102BA0000AF014FE41EC180B0AF04CFD09490860CC
:102BB00005480068BDEC068B10BD0000F800002041
:102BC000E4839ECDAACF953FF400002000000000D2
:102BD00000002440FC00002070B504460D468748E4
:102BE000007868B90120854908708548008A642109
:102BF00090FBF1F08249C98991FBF0F081490860AE
:102C000081480078401C40B27F4908707F480068C6
:102C100028447E4908607E48006820447C4908605A
:102C2000794890F900003C2879DB784800683C211D
:102C3000B0FBF1F077490860754800683C2190FBD3
:102C4000F1F0754908600968002911DA72490968CC
:102C50003C2291FBF2F0002801DB014600E04142FA
:102C6000674AD289914203DD00206549C88109E0A5
:102C7000694800683C2190FBF1F06149C98908442A
:102C80005F49C8816348006846F2D011884207D87E
:102C90005B48007D00F0110010B101205849887593
:102CA0005C48006845F26041884208D25448007D83
:102CB00000F0010018B996205149C8814FE05548ED
:102CC000006846F66051884232D94D48007D00F0D8
:102CD000010068B350480068B0F5487F28DA4848DA
:102CE000807D01281CD14648C0894549098A88420F
:102CF00016DC4348C08942F21071884210DB40481C
:102D0000C0893F4908820846008A010A0220FDF76F
:102D1000FEFE3B48017C0320FDF7F9FE04E06AE07B
:102D20003748008A3649C88100203549887516E041
:102D30003348C0893249098A884204DB3048008A16
:102D40002F49C8810BE02E48C089962803DC9620C5
:102D50002B49C88103E02A48C0892949C8812D48E8
:102D6000006846F66051884207D22548007D00F091
:102D7000010010B90020224988752148008A642189
:102D800090FBF1F01E49C98991FBF0F01D490860E4
:102D900008460068142811D91E48006846F29C3184
:102DA00088420BD81C48006810F5FA6F06DB4FF418
:102DB00016601349C8811420124908601148006840
:102DC000052811D91348006845F6C05188420BD830
:102DD0001148006810F5FA6F06DB4FF416700849C9
:102DE000C881052007490860002008490860064995
:102DF0000870074908600348007870BD8C01002006
:102E0000BE1F0020900100208001002078010020DA
:102E10007C010020840100208801002018480078EF
:102E20001749497808431649897808431449C978ED
:102E30000843134908730846007A497A0843104941
:102E4000897A08430E49C97A08430D4988730846B0
:102E50000078097A08430A49C87308464078497AD5
:102E600008430749087408468078897A084304496A
:102E700048740846C078C97A084301498874704785
:102E8000781E002010B54FF480512148FFF74DFE09
:102E900048B92048007840F001001E490870002021
:102EA0001D49088010E01C480088401C1A49088011
:102EB00008460088012807DD0020088015480078B2
:102EC00000F0FE00134908704FF480511348FFF7DB
:102ED0002CFE48B90020124908800E48007840F0C6
:102EE00002000C49087010E00D480088401C0C4995
:102EF000088008460088012807DD00200880054872
:102F0000007800F0FD00034908700248007810BD09
:102F100000000240F0010020EC01002000100240FF
:102F2000EE010020024649F64040824212DB13487F
:102F30000078401C114B18700020114B18700F487E
:102F40000078032817DB00200C4B187001200D4B74
:102F5000187010E00A480078401C094B18700020D7
:102F6000064B187006480078142804DD0020044B36
:102F70001870044B187003480078704763010020F4
:102F80006401002062010020B8B3012802D00228A9
:102F90004CD11AE02749497801F0010121B92549AE
:102FA000897801F0010121B142F2D871214A1181E1
:102FB0000AE02049098942F2D872914204DA1D4997
:102FC0000989491C1B4A118131E01A49497801F0ED
:102FD000020121B91749897801F0020119B10021D4
:102FE000144A118108E013490989002904DD1149B7
:102FF0000989491E0F4A118119E0FFE70D494978F7
:1030000001F0010121B142F2D8710A4A11810CE0AC
:103010000849497801F0020119B10021054A1181DE
:1030200003E004490989034A118100E000BF00BFA1
:10303000704700008C1F002000BFFEE770B50446FB
:103040000D4600EE105AB8EEC00A00F005F900EE89
:10305000104AB8EEC00A00F071F870BD10B507480C
:10306000D0ED050AB0EE600A00F0F6F80348D0EDA6
:103070000A0AB0EE600A00F061F810BD581F002087
:1030800010B51D48007880B11B48007800F0100092
:1030900018B1022000F0F6FE07E01748007800F0B3
:1030A000400010B1032000F0EDFE1348007800F05E
:1030B000200018B1022000F097FF0EE00E480078C3
:1030C00000F0800018B1032000F08EFF05E00A48F0
:1030D0000078092801D1FFF7C1FF0748007800F008
:1030E000F00010B90020044908700348007808B1C6
:1030F000FEF798FC10BD0000581F00200EB500BF61
:1031000014E0FFF7BDFF0A48007830B900200949F4
:10311000087502A9084802F067FC02A800211423E0
:103120000A46CDE90010084602F05EFDE9E700001E
:10313000581F0020B41E00208027002010B52DED60
:10314000088BB0EE408A354880ED098A90ED090A77
:1031500010EE101A08460AF057FD41EC1B0B9FEDCC
:10316000300B53EC102B0AF0B9F941EC190B2B483A
:1031700090ED080A10EE101A08460AF045FD41ECE1
:103180001A0B53EC192B0AF01FFC0BD223480078C2
:1031900040F01000214908700846007820F04000F7
:1031A000087037E01D4890ED090A10EE101A084625
:1031B0000AF02AFD41EC1B0B9FED190B53EC102B71
:1031C0000AF038FC41EC190B144890ED080A10EE97
:1031D000101A08460AF018FD41EC1A0B53EC192B93
:1031E0000AF0B8FA0BD20D48007840F040000B49C5
:1031F00008700846007820F0100008700AE00748C0
:10320000007820F01000054908700846007820F08A
:1032100040000870BDEC088B10BD0000581F002056
:10322000000000000000E03F70B504460D46012C90
:1032300002D0022C0AD104E02946064807F069FFB3
:1032400005E02946034807F066FF00E000BF00BF25
:1032500070BD00000008004010B52DED088BB0EEE9
:10326000408A354880ED048A90ED040A10EE101A69
:1032700008460AF0C9FC41EC1B0B9FED300B53ECE8
:10328000102B0AF0D7FB41EC190B2B4890ED030AE9
:1032900010EE101A08460AF0B7FC41EC1A0B53EC7A
:1032A000192B0AF057FA0BD22348007840F020007F
:1032B000214908700846007820F08000087037E047
:1032C0001D4890ED040A10EE101A08460AF09CFC06
:1032D00041EC1B0B9FED190B53EC102B0AF0FEF881
:1032E00041EC190B144890ED030A10EE101A084631
:1032F0000AF08AFC41EC1A0B53EC192B0AF064FB20
:103300000BD20D48007840F080000B490870084649
:10331000007820F0200008700AE00748007820F0CC
:103320002000054908700846007820F080000870E9
:10333000BDEC088B10BD0000581F002000000000ED
:103340000000E03F10B51248006820F440401049EA
:1033500008600846006840F48040086000200D497D
:103360000860022009F034FA01200B49C1F89802E4
:10337000022009F02DFA00200649091F08600220EA
:1033800009F026FA01200449C1F89C0210BD000092
:10339000000402409C824042008040421CB5012152
:1033A000022005F059FEC020009001208DF8040095
:1033B00000208DF8060003208DF8050001208DF80F
:1033C000070069460448FFF745FB012003490860F0
:1033D0000349C1F89C021CBD00040240988240428F
:1033E0000080404210B51048006820F440400E496B
:1033F00008600846006840F48040086001200B49DE
:103400000860022009F0E4F901200949C1F8980296
:10341000022009F0DDF900200449091F086002209C
:1034200009F0D6F910BD0000000402409C82404221
:103430000080404270B5054600241548006820F41D
:10344000404013490860084600680860002615E0FF
:103450006006040E01200F490860022009F0B8F947
:103460000D48D0F81C0208B1601CC4B20020094904
:103470000860012009F0ACF9701CC6B2082EE7DB29
:1034800015B9FFF7AFFF01E0FFF75CFF204670BD05
:1034900000040240988240420080404270B50446D9
:1034A0001648006820F44040144908600846006847
:1034B00040F48040086000251CE0E00910490860E5
:1034C0006006040E022009F083F901200D49C1F8BD
:1034D0009802022009F07CF900200949091F0860C0
:1034E000022009F075F9072D02D101200449086076
:1034F000681CC5B2082DE0DB70BD0000000402406E
:103500009C8240420080404210B50F48006820F481
:1035100040400D4908600846006840F4804008605B
:1035200001200A4908600A49C1F89802042009F0FC
:103530004FF9002005490860042009F049F90020EE
:103540000349C1F8980210BD000402409C82404229
:103550000080404210B50E48006820F440400C49FD
:1035600008600846006840F480400860012009496E
:10357000086000200849C1F89C02042009F028F9DD
:1035800001200449091D0860042009F021F910BD3B
:1035900000040240988240420080404210B500245E
:1035A0001448006820F4404012490860084600684A
:1035B000086001201049086009F00AF901200F494C
:1035C000C1F8980209F004F90AE0601CC4B2FA2CB0
:1035D00006DD0BA0FCF78CFEFFF7BCFF012010BD41
:1035E0000548803800680028EFD10349091F0860AA
:1035F00000BFF4E7000402409C8240420080404249
:103600006969632074696D656F75740D0A00000047
:1036100007480088401C06490880084600884FF685
:10362000FF71884202DB00200149088070470000DA
:10363000440100201FB50121022005F00DFD0121EC
:10364000880305F039FD0320029000208DF80C005E
:1036500001208DF80F0002A91348FFF7FBF90121A3
:10366000084605F04FFF0220009000208DF804006E
:1036700010208DF8050001208DF806006846FFF740
:103680000DF90021012005F03DFF012000900020F0
:103690008DF8040010208DF8050001208DF806003B
:1036A0006846FFF7FBF81FBD000402404CF6CC4013
:1036B00001490860704700000030004010B500F07C
:1036C00013F810BD70B505460C4645F2555000F094
:1036D0001FF8284600F010F8204600F013F800F01C
:1036E00003F8FFF7E3FF70BD4AF6AA20014908601E
:1036F00070470000003000400149486070470000FA
:1037000000300040014988607047000000300040F0
:103710000149086070470000003000401CB50121DD
:10372000042005F099FC2020009001208DF8040071
:1037300000208DF8060001208DF8070000208DF88C
:10374000050069461D48FFF785F90121042005F0B1
:1037500083FC1020009001208DF8040000208DF8DB
:10376000060001208DF8070000208DF8050069464D
:103770001248FFF76FF90121082005F06DFC4FF4A6
:103780008070009001208DF8040000208DF8060064
:1037900001208DF8070000208DF8050069460848D3
:1037A000FFF758F9102005491A31088020200880B9
:1037B000C1000348FFF7C2F91CBD00000008024029
:1037C000000C02400EB500BF27E19448006880F469
:1037D0008070924908609248007D00F00100A8B115
:1037E0008F48007B5F2806DB10208E490880202050
:1037F000891E088006E010208A49891E0880202042
:10380000891C08800020884908706DE08448007D8C
:1038100000F0010060BB8248B0F9020010F57A7F29
:1038200026DD10207F490880202008807E4800780F
:10383000401C7D49087008460078642854DD00204B
:10384000087005F0E5F94FF400707449091D08800F
:1038500076A0FCF74DFD4FF4967008F07FFF012035
:1038600005F0D6F94FF400706C49891D08803BE0E3
:1038700073480079012808D110206A490880202067
:1038800008800020684908702EE06E480079012801
:103890000AD110206349891E08802020891C0880D5
:1038A0000020614908701FE05D48007D00F01000B5
:1038B00070B15C48801F006880F010005949891F72
:1038C00008602020891D08800020574908700BE0FF
:1038D000102054490880881F006880F02000891F4C
:1038E00008600020504908705748007C01280BD11F
:1038F00041034A481438FFF723F94FF480514748F1
:103900001438FFF71BF92FE04F48007C02280BD139
:10391000C10242481438FFF713F94FF400513F48F1
:103920001438FFF70BF91FE04748007C03280CD13F
:103930004FF4005139481438FFF702F94FF4805121
:1039400036481438FFF7FCF80EE03F48007C58B9C1
:103950004FF4005131481438FFF7F0F84FF480511C
:103960002E481438FFF7EAF83748407C01280BD17D
:10397000C1022A481438FFF7E3F84FF48061274862
:103980001438FFF7DBF82FE02F48407C02280BD1DA
:10399000810222481438FFF7D1F84FF480611F48A4
:1039A0001438FFF7CDF81FE02748407C03280CD1DE
:1039B0004FF4006119481438FFF7C2F84FF48061E2
:1039C00016481438FFF7BCF80EE01F48407C58B981
:1039D0004FF4006111481438FFF7B0F84FF48061DC
:1039E0000E481438FFF7AAF81548007901280AD1C3
:1039F000C1020A481438FFF7A3F84FF48061074862
:103A00001438FFF79DF802A800214FF4FA730A4614
:103A1000CDE90010084602F0E7F8D6E6140C0240A3
:103A2000BE1F00201A080240B501002050435F531A
:103A30005441525455505F4F4E210D0A0000000072
:103A4000DC4F002054500020B41E00201CB5012182
:103A5000082005F001FB4FF47050009001208DF814
:103A6000040000208DF8060001208DF807000020DA
:103A70008DF8050069460E48FEF7ECFF0121042091
:103A800005F0EAFA4FF480610948FFF757F84FF460
:103A900000610748FFF752F84FF480510448FFF7E0
:103AA0004DF84FF400510248FFF748F81CBD0000E4
:103AB000000C0240018850290BD1204989884F29E8
:103AC00003DB01211D4AD17037E001211B4AD1726D
:103AD00033E0018859B919498988012903DC01219A
:103AE000164AD17029E00221144AD17225E0134907
:103AF00089880288914210DA1049898802889142A7
:103B000005DB00210D4AD1720121D17015E00121A0
:103B10000A4AD1720021D1700FE0084989880288D1
:103B2000914205DC0021054AD1720121D17004E0E7
:103B30000221024AD1720021D17070478C1F0020EF
:103B40001CB50121042005F087FA4FF44070009065
:103B500001208DF8040000208DF806008DF8070084
:103B600002208DF8050069461448FEF773FF012115
:103B7000084605F071FA4FF48070009001208DF82E
:103B8000040000208DF806008DF8070002208DF853
:103B9000050069460A48FEF75DFF4FF4807107484B
:103BA000FEF7CEFF4FF400710448FEF7C7FF4FF455
:103BB00080710348FEF7C2FF1CBD000000080240F0
:103BC0000000024010B5FEF7BDFF0A498880084694
:103BD000C0884FF6FF71884204D00648801DFFF769
:103BE00069FF02E000200349C8700249C87A00F06A
:103BF00003F810BD8C1F002010B50446002C6BD0BC
:103C0000012C02D0022C72D129E00020394988729F
:103C10000846407800F0010020B90846807800F09E
:103C2000010028B14FF480713348FEF789FF15E099
:103C30003048008942F2D871884205DB4FF4807128
:103C40002D48FEF77DFF09E04FF400712A48FEF78A
:103C500077FF4FF480712848FEF770FF48E0254851
:103C6000807A012804D101022348FEF769FF32E07F
:103C70002048407800F0020020B91E48807800F00B
:103C80000200F0B14FF480711B48FEF759FF32205B
:103C900008F064FD4FF400711748FEF751FF4FF430
:103CA00080711548FEF74AFF4FF4967008F056FDF4
:103CB0004FF480711048FEF743FF01200D498872D0
:103CC00009E04FF400710C48FEF738FF4FF48071A3
:103CD0000948FEF733FF0BE04FF480710648FEF70A
:103CE0002FFF4FF6FF700349C88001E0FFE700BFD8
:103CF00000BF10BD8C1F0020000802400EB500BFA1
:103D000033E080211948FEF710FF012812D118482E
:103D10000078401C164908700020164908701448A5
:103D20000078022816DD0020114908700120124990
:103D300088760FE000200E4908700E480078401C7D
:103D40000C49087008460078052803DD002008703B
:103D500009498876FFF736FF02A800210A230A46A0
:103D6000CDE90010084601F03FFFCAE7000002401D
:103D7000B2010020B3010020B41E00201CB50121B7
:103D8000102005F069F94FF40050009000208DF8E4
:103D9000040001208DF8070003208DF80500694616
:103DA0000B48FEF757FE0121102005F055F94FF49E
:103DB0008040009000208DF8040001208DF807005D
:103DC00003208DF8050069460148FEF743FE1CBD3F
:103DD0000010024000BFFEE730B505460C46224603
:103DE0000021284600F001F830BD2DE9F0410546DC
:103DF0000B4694460027002402E03F021F43641C48
:103E0000042CFAD3604605F00306294646B1344631
:103E100003E001F8013B401E641C08B1042CF8D3F8
:103E20000A4601E080C2001F0428FBD2114602E0CE
:103E300001F8013B401E0028FAD1BDE8F08170B5C1
:103E400003460C464FF6FF71002214E09E5C0025ED
:103E50000EE086EA010000F0010020B14AF2010004
:103E600080EA610000E0481001467610681CC5B287
:103E7000082DEEDB521CA242E8DB080240EA2120BA
:103E800080B270BD10B52DED068B0446022C02D019
:103E9000032C7AD14DE0514890ED0C0A10EE101A27
:103EA000084609F0B1FE41EC1A0B9FED4D0B53ECA7
:103EB000102B09F013FB41EC180B484890ED080A51
:103EC00010EE101A084609F09FFE41EC190B53EC56
:103ED000182B09F079FD16D8404890ED080A10EE2D
:103EE000101A084609F090FE41EC190B9FED3C0BAF
:103EF00053EC102B09F09EFD41EC180B09F0BCFAB5
:103F00003649086204E0354890ED0C0A80ED080A55
:103F1000324890F9090001EE100AB8EEC11AF0EE2D
:103F2000410A2E4890ED081AB0EE410A06F03CFA1C
:103F300050E02A4890ED0B0A10EE101A084609F0DE
:103F400063FE41EC1A0B9FED260B53EC102B09F08E
:103F500071FD41EC180B214890ED080A10EE101A83
:103F6000084609F051FE41EC190B53EC182B09F0EF
:103F7000F1FB18D8194890ED080A10EE101A0846FF
:103F800009F042FE41EC190B00E022E09FED140B1A
:103F900053EC102B09F0A2FA41EC180B09F06CFA63
:103FA0000E49086204E00D4890ED0B0A80ED080A06
:103FB0000A4890F9090001EE100AB8EEC11AF0EEB5
:103FC000410A064890ED081AB0EE410A06F0ECF9F5
:103FD00000E000BF00BFBDEC068B10BD581F0020E5
:103FE000000000000000E03F10B52DED048B0446FA
:103FF000022C02D0032C60D12FE0324890ED030A4E
:10400000D0ED060AB4EEE00AF1EE10FA14D290ED0B
:10401000030A10EE101A084609F0F6FD41EC190BE0
:104020009FED290B53EC102B09F058FA41EC180BBB
:1040300009F022FA2349C860224890F90A0001EEEB
:10404000100AB8EEC11AF0EE410A1E4890ED031AAC
:10405000B0EE410A06F0D2F930E01A4890ED030ABA
:10406000D0ED070AB4EEE00AF1EE10FA14DD90ED9F
:10407000030A10EE101A084609F0C6FD41EC190BB0
:104080009FED110B53EC102B09F0D4FC41EC180BF5
:1040900009F0F2F90B49C8600A4890F90A0001EEEC
:1040A000100AB8EEC11AF0EE410A064890ED031A64
:1040B000B0EE410A06F0A2F900E000BF00BFBDEC7F
:1040C000048B10BD581F0020000000000000E03FDE
:1040D00006488089401C054988810846C089401CE3
:1040E000C8810846008A401C08827047F41E0020E0
:1040F0000020054908778881C8818882C882488065
:104100000880887770470000981F0020704708B526
:104110004FF4C06000F010F925208DF80000012058
:104120008DF8010007208DF8020001208DF80300B2
:10413000684600F0C5F826208DF8000001208DF8B3
:10414000010006208DF8020001208DF8030068466A
:1041500000F0B6F827208DF8000000208DF801004F
:1041600004208DF8020001208DF80300684600F05D
:10417000A7F834208DF8000000208DF801000520FC
:104180008DF8020001208DF80300684600F098F8D1
:1041900035208DF8000001208DF8010000208DF8F9
:1041A000020001208DF80300684600F089F819200C
:1041B0008DF8000000208DF8010006208DF8020027
:1041C00001208DF80300684600F07AF82E208DF863
:1041D000000000208DF8010007208DF8020001206A
:1041E0008DF80300684600F06BF81C208DF8000085
:1041F00001208DF8010007208DF8020001208DF8C4
:104200000300684600F05CF837208DF800000120BC
:104210008DF8010006208DF8020001208DF80300C2
:10422000684600F04DF838208DF8000001208DF828
:10423000010005208DF8020001208DF8030068467A
:1042400000F03EF806208DF8000000208DF80100F7
:1042500002208DF8020001208DF80300684600F06E
:104260002FF807208DF8000000208DF801000320B2
:104270008DF8020001208DF80300684600F020F858
:1042800017208DF8000001208DF8010003208DF823
:10429000020001208DF80300684600F011F8282084
:1042A0008DF8000001208DF8010004208DF8020037
:1042B00001208DF80300684600F002F808BD0000F8
:1042C00070B5002100230F22C4781CB3174C24685A
:1042D00004F4E064C4F5E064C4F30721C1F104040C
:1042E000E3B20A4144789C40E1B28478144021430F
:1042F0000C07210E0E4C05786155047804F01F055B
:104300000124AC4005786D11AD0005F1E025C5F83C
:10431000004109E0047804F01F050124AC40054D7C
:104320000678761145F8264070BD00000CED00E0DF
:1043300000E400E080E100E002490143024A11602C
:10434000704700000000FA050CED00E01548164823
:1043500016481748174818481848194819481A485D
:104360001A481B481B481C481C481D481D481E482D
:104370001E481F481F4820482048214821482248FD
:1043800022482348234824482448254825482648CD
:10439000264827482748284828482948294800BF50
:1043A00070470000A0DD000800DD000804DD000803
:1043B00008DD00080CDD000810DD000814DD000831
:1043C00018DD00081CDD000820DD000824DD0008E1
:1043D00028DD00082CDD000830DD000834DD000891
:1043E00038DD00083CDD000840DD000844DD000841
:1043F00048DD00084CDD000850DD000854DD0008F1
:1044000058DD00085CDD000860DD000864DD0008A0
:1044100068DD00086CDD000870DD000874DD000850
:1044200078DD00087CDD000880DD000884DD000800
:1044300088DD00088CDD000890DD000894DD0008B0
:1044400098DD00089CDD000810B50348006810B135
:1044500001480068804710BD2C00002070B504465C
:1044600000F0C2F8002048490870484908704849DF
:104470000870484908604849086048490870484938
:104480000870484908704849086048490860484928
:10449000086048490870484800680A21B0FBF1F0FC
:1044A000464908604648006858B14648056845B125
:1044B0004348066803E0761E002028602D1D002E6C
:1044C000F9D100204049086040490860404908602F
:1044D0004049086040490860404908604049086018
:1044E0004049087002F088FC02F068FD204601F0A7
:1044F000FBFD208800B170BD204602F0DDF9208868
:1045000000B1F8E7204602F0FFF9208800B1F2E799
:10451000204602F0E3FA208800B1ECE7204602F0E2
:104520009BFC208800B1E6E7204602F0D3FE2088FD
:1045300000B1E0E7204603F0F5F9208800B1DAE7A2
:10454000204602F025F9208800B1D4E7204601F08A
:104550003DFF208800B1CEE7204604F053F92088C3
:1045600000B1C8E7204603F021F9208800B1C2E776
:10457000204604F0B7F9208800B1BCE701F0DCFC6C
:10458000FFF7E4FE00BFB6E7400000204100002036
:1045900088000020E0000020E40000206E000020E1
:1045A0006F000020700000207C00002080000020B0
:1045B000840000209000002060DD00088C000020B6
:1045C00030DD00082CDD0008200000202400002041
:1045D000280000202C0000203000002034000020A3
:1045E00038000020BE00002006480068064909681F
:1045F00000EB8100054908600846006820F00700CC
:10460000086070472CDD000830DD00081400002031
:1046100008480078012800D0704707480078FA2839
:1046200000DBF9E704480078401C0349087000BF2C
:10463000F2E70000410000204000002010B50024F7
:104640002D480078012800D010BD00BFFBF738FED0
:10465000044600BF2948007828B900BF2046FBF770
:1046600033FE00BFF0E725480078401E234908705C
:1046700008460078002805DD00BF2046FBF724FE31
:1046800000BFE1E71E480078002805DD00BF204696
:10469000FBF71AFE00BFD7E702F09AFB1949087032
:1046A0000846007800EB4000174951F820001749F0
:1046B00008600846006816490968884205D100BFAD
:1046C0002046FBF701FE00BFBEE710480068D0F8A7
:1046D0009000401C0D490968C1F890000D48006821
:1046E000401C0C490860FCF70FF800BF2046FBF7A0
:1046F000EBFD00BF00BFA7E7410000204000002005
:10470000880000206F00002060180020E4000020D6
:10471000E0000020B40000202DE9F04104460E46E0
:104720001546002729480078002804DD42F6E1609C
:104730002880BDE8F0811CB945F6C3502880F8E711
:1047400000BF00BF00BFFBF7BBFD074600BF00BFB7
:104750001F480078401C1E49087000BF00BF384643
:10476000FBF7B2FD00BF00BF00BF1A4820606660C3
:104770000020206284F82500A062402084F82400F4
:1047800004F1080002F03EFA204602F08FF91248C8
:104790000088401C1049088000BF00BF00BFFBF725
:1047A0008FFD074600BF00BF09480078401E08493A
:1047B000087000BF00BF3846FBF786FD00BF00BF92
:1047C00000BF0020288000BFB3E7000040000020A9
:1047D000880000204D5554586C00002010B500246E
:1047E0001F480078002800DD10BD1E480078002812
:1047F00000DDF9E700BFFBF763FD044600BF02F0F0
:10480000E7FA194908700846007800EB400017499C
:1048100051F82000164908600846006815490968E3
:10482000884205D100BF2046FBF74EFD00BFDBE705
:104830000F480068D0F89000401C0D490968C1F885
:1048400090000D480068401C0B490860FBF757FFBB
:1048500000BF2046FBF738FD00BF00BFC4E70000E3
:1048600040000020880000206F0000206018002019
:10487000E4000020E0000020B400002070B50446F1
:10488000002518480078002803DD46F66250208095
:1048900070BD15480078012803D045F68960208056
:1048A000F6E712480078FA2803DB45F20920208059
:1048B000EEE700BF00BFFBF703FD054600BF00BFEA
:1048C0000A480078401C0949087002F057FC00BFF4
:1048D00000BF2846FBF7F8FC00BF00BF0020208087
:1048E00000BFD5E7400000204100002088000020E4
:1048F0002DE9F04105460C461646002700BF00BFD3
:10490000FBF7DEFC074600BF00BF012D03D00020EF
:104910000D49087002E001200B49087014B10B48E2
:10492000046006E00A4800680A21B0FBF1F007497C
:10493000086000BF00BF3846FBF7C6FC00BF00BFE1
:1049400000203080BDE8F081900000208C00002025
:1049500060DD000870B50446002520480078002876
:1049600003DD46F66550208070BD1D4800780128A3
:1049700003D045F689602080F6E71A48007818B918
:1049800046F664502080EFE700BF00BFFBF798FCBD
:10499000054600BF00BF13480078401E114908704B
:1049A0000846007800280ADD00BF00BF2846FBF754
:1049B0008BFC00BF00BF46F663502080D4E702F0B6
:1049C000EBFB00BF00BF2846FBF77EFC00BF00BF2B
:1049D000FFF704FF0020208000BFC5E74000002053
:1049E00041000020880000202DE9F04104460E46D9
:1049F00017461D464FF0000826480078002804DDC1
:104A000042F6E1602880BDE8F0811CB945F6C3504C
:104A10002880F8E700BF00BF00BFFBF751FC8046CD
:104A200000BF00BF1C480078401C1B49087000BF35
:104A300000BF4046FBF748FC00BF00BF00BF17485F
:104A40002060276200206062666004F1080002F0C6
:104A5000D9F8204602F026FC11480088401C104975
:104A6000088000BF00BF00BFFBF72AFC804600BFE4
:104A700000BF09480078401E0749087000BF00BF0A
:104A80004046FBF721FC00BF00BF00BF002028808C
:104A900000BFB8E7400000208800002053454D418A
:104AA000980000202DE9F04788B0064689469046D8
:104AB0001C46109D4FF0000A6E480078002806DD65
:104AC00046F2AE102880002008B0BDE8F08726B975
:104AD00045F6C35028800020F6E7B8F1000F03D058
:104AE000B8F5004F02D100E000BF04E045F62560B4
:104AF00028800020E8E700BF5F493068884204D082
:104B000045F6C45028800020DEE70CB1002020606C
:104B100000BF00BFFBF7D4FB824600BF00BF306A76
:104B200088B1306A401E30620CB1706A2060376A0A
:104B300000BF00BF5046FBF7C7FB00BF00BF00200F
:104B400028803846C0E708F4004060B1376A00BFEB
:104B500000BF5046FBF7B8FB00BF00BF46F2B010E5
:104B600028803846B0E74548007800280BDD00BFB4
:104B700000BF5046FBF7A8FB00BF00BF46F66350DE
:104B800028800020A0E700BF3C480078401C3B493B
:104B9000087000BF00BF5046FBF796FB00BF00BF88
:104BA00000BF4B4606223146684601F0A3FF00BF16
:104BB00000BF00BFFBF784FB824600BF00BF2F4849
:104BC0000078401E2D49087000BF00BF5046FBF71B
:104BD0007BFB00BF00BF00BFFFF700FE00BF00BFB0
:104BE000FBF76EFB824600BF00BF2548006890F8C7
:104BF000350030B101280CD002281AD0032821D169
:104C000010E01CB11E480068006C20600020288065
:104C100024E01CB11A480068006C206046F2A9101C
:104C200028801BE00CB10020206047F2D9202880AA
:104C300014E01CB112480068006C206045F6C250B8
:104C400028800BE046F62E60288000BF00BF50464B
:104C5000FBF73AFB00BF00BF002035E700BF376A13
:104C600000BF00BF5046FBF72FFB00BF00BF384618
:104C70002AE700004000002053454D4188000020F5
:104C8000E00000202DE9FF4105460F46144635B9E6
:104C900045F6C3502080002004B0BDE8F0814FB13C
:104CA000B7F5007F07D0B7F5004F05D0B7F5024F35
:104CB00004D102E000BF00BF00BF04E045F625605C
:104CC00020800020E8E700BF12492868884204D00D
:104CD00045F6C45020800020DEE7FCF783FD064641
:104CE0000D48007800280CDD0020034602462946C6
:104CF000CDE9017603940090064801F09FFB002067
:104D0000CAE7234632463946284602F0EFFA804683
:104D10004046C1E753454D414000002010B50446D0
:104D200012480078E8B902F053F8114908700846B3
:104D30000078104908700E48007800EB40000E49DA
:104D400051F820000D490860084600680C490860C9
:104D5000012006490870FBF7C1FC43F6992020802A
:104D600002E045F68A60208010BD0000410000206E
:104D70006F0000206E00002060180020E40000207A
:104D8000E00000202DE9F04107464FF0000800BF89
:104D900000BFFBF795FA804600BF00BF00203D49E9
:104DA00008603D4908803D4908803D4908603D490B
:104DB00008603D4908603D4908603D49088100BFE1
:104DC00000BF4046FBF780FA00BF00BF00BF00BF36
:104DD000FBF776FA804600BF00BF3648046800BF84
:104DE00000BF4046FBF770FA00BF00BF21E000BFE4
:104DF00000BFFBF765FA804600BF00BF0020783493
:104E0000E06320602063A061A082E0826062A06213
:104E1000FCF7E8FC2062783C04F164060020B081D5
:104E2000D4F8BC4000BF00BF4046FBF74DFA00BFBE
:104E300000BF002CDBD100BF00BFFBF741FA80466A
:104E400000BF00BF1C48056800BF00BF4046FBF71D
:104E50003BFA00BF00BF12E000BF00BFFBF730FA13
:104E6000804600BF00BF05F120060020B081AD697B
:104E700000BF00BF4046FBF727FA00BF00BF002D70
:104E8000EAD103F09BFB03F029FE00203880BDE847
:104E9000F0810000540000204E0000209E00002001
:104EA000B0000020C4000020D000002080000020BE
:104EB00054180020B800002074000020F8B5044603
:104EC00000266946324800F08FFDBDF8000018B199
:104ED000BDF800002080F8BD6A460021022000F0E5
:104EE000F7FDBDF8000018B1BDF800002080F2E722
:104EF00000BF00BFFBF7E4F9064600BF00BF00207B
:104F00002449086000BF00BF3046FBF7DDF900BF51
:104F100000BF00252048006820490968884205D95B
:104F20001D4800681D490968B0FBF1F525B91A480C
:104F300000680A21B0FBF1F56A460021284600F01E
:104F4000C7FD6946124800F063FABDF8000018B1C9
:104F5000BDF800002080BEE700BF00BFFBF7B0F93E
:104F6000064600BF00BF00200D49086009480068E0
:104F70000C49086001200C49087000BF00BF304692
:104F8000FBF7A2F900BF00BF0020208000BFA2E70E
:104F9000E81C0020A000002060DD000848DD0008BB
:104FA000B0000020A4000020AC00002010B5034891
:104FB000006810B101480068804710BD3000002033
:104FC0002DE9FF4F87B004469046DDE91BA5DDE9DA
:104FD0001496179F0020039087480078002805DD6D
:104FE00047F24A1028800BB0BDE8F08F1CB947F299
:104FF000AD102880F7E7B8F1000F03D147F24F104A
:105000002880F0E71EB946F62F602880EBE77B4842
:105010000068874203D246F630602880E3E716989E
:10502000B84203D346F631602880DCE7B9F1400F7F
:1050300003D346F273202880D5E7B9F1000F06D1DB
:105040006F48844203D046F273202880CBE7B9F141
:105050003F0F06D16B48844203D046F2732028806C
:10506000C1E7204602F06EFC002028800AF0010013
:1050700090B10AF0020078B105960020069008E091
:105080000021059801600598001D05900698401CB8
:1050900006900698B842F3D3169806EB8000049069
:1050A000CDE9007A32464046049B0A9900F06EFB37
:1050B0000590C4F828800A98E0620898206284F875
:1050C0003790059820600498A06019986065199839
:1050D00018B94D480068A06501E01998A0651A98B4
:1050E00060606662A763A4F83CA04FF0000B08E084
:1050F000002104F17C0040F82B100BF1010000F0BE
:10510000FF0BBBF1000FF3D004F16400189901F01C
:1051100047FC204600F082F800BF00BF00BFFBF74D
:10512000CFF8039000BF00BF38480078401C3749D3
:10513000087000BF00BF0398FBF7C6F800BF00BFB0
:1051400000BF94F8370001F063FE204601F07EFFB7
:10515000204602F0ADFB2E480088401C2C490880F8
:105160002C48007801282DD000BF00BF00BFFBF7FE
:10517000A7F8039000BF00BF24480078401E2349D1
:10518000087008460078A0B923480088002809DD87
:1051900000BF00BF0398FBF797F800BF00BF01F006
:1051A000C3FF0DE000BF00BF0398FBF78DF800BF01
:1051B00006E000BF00BF0398FBF786F800BF00BF02
:1051C00000BF10E700BF00BF00BFFBF779F80390F6
:1051D00000BF00BF0D480078401E0C49087000BF9A
:1051E00000BF0398FBF770F800BF00BF00BFFFF7D8
:1051F000F5FA00BFF7E60000400000205CDD000883
:1052000090170020CC1600208C0000208800002081
:10521000BC000020410000204C00002010B50446D6
:105220000348006818B1204601490968884710BD45
:105230002000002070B504460D460026674800781F
:10524000002803DD47F24E10288070BD6448844278
:1052500003D147F24C102880F7E76248844203D11B
:1052600047F24D102880F0E77CB900BF00BFFBF784
:1052700027F8064600BF00BF5B48046800BF00BFB8
:105280003046FBF721F800BF00BF00BF00BF00BFE2
:10529000FBF716F8064600BF00BF54480078401CD4
:1052A0005249087000BF00BF3046FBF70DF800BF41
:1052B00000BF00BF94F8360008282DD2DFE800F0C8
:1052C00004090E10080A0F11204601F0FFFE54E0F9
:1052D00053E000BF204603F055F94EE000BF00BF89
:1052E00000BF204603F04EF994F83400082810D28D
:1052F000DFE800F004070508090A0B0600BF00BF3D
:1053000008E000BF00BF00BF00BF204601F0B2FCB4
:1053100000E000BF00BF30E000BF00BF00BFFAF7F1
:10532000CFFF064600BF00BF30480078401E2F491F
:10533000087008460078A0B92D480088002809DDCB
:1053400000BF00BF3046FAF7BFFF00BF00BF01F04B
:10535000EBFE0DE000BF00BF3046FAF7B5FF00BF1F
:1053600006E000BF00BF3046FAF7AEFF00BF00BF47
:1053700000BF46F62D60288067E700BF04F1640097
:1053800001F0ECFA204600F037F8204602F0A8FAC7
:1053900018480088401E17490880204602F0D2FABB
:1053A000FF2084F8360000BF00BF00BFFAF788FF77
:1053B000064600BF00BF0D480078401E0B4908702C
:1053C00000BF00BF3046FAF77FFF00BF00BF00BF3D
:1053D00000202880FFF702FA00BF36E740000020D7
:1053E000CC16002090170020E0000020880000204C
:1053F0004C000020BC00002010B5044603480068A3
:1054000018B1204601490968884710BD24000020D2
:105410007FB504460D46002600BF00BFFAF750FFD7
:10542000064600BF00BF1CB11548006884420AD17F
:1054300000BF00BF3046FAF747FF00BF00BF47F28A
:10544000571028807FBD00BF00BF3046FAF73CFFF1
:1054500000BF00BF0B48007800280BDD0020009043
:105460000190034602462146CDE90205064800F0B8
:10547000E5FFE7E72946204602F0DCFB00BFE1E755
:10548000E0000020400000205452455310B504466F
:105490000348006818B1204601490968884710BDD3
:1054A000280000202DE9F04780460E4614461D4690
:1054B0004FF000097D480078002805DD46F2AE1067
:1054C00028800020BDE8F0871EB1B6F5004F02D15C
:1054D00000E000BF04E045F6256028800020F1E7E9
:1054E00000BF0CB10020206000BF00BFFAF7E8FE4B
:1054F000814600BF00BF6E480068406CA8B36C488E
:105500000068406C401E6A49096848646848006841
:10551000476C1CB166480068006C2060FCF762F9BB
:1055200063490968096C401A61490968C1F8A40017
:105530005F480068D0F8A8005D490968D1F8A41058
:10554000884207D25A480068D0F8A4005849096830
:10555000C1F8A80000BF00BF4846FAF7B5FE00BF7B
:1055600000BF002028803846ACE7FFE706F4004083
:1055700058B100BF00BF4846FAF7A6FE00BF00BF03
:1055800046F2B010288000209CE74A4800780028A6
:105590000BDD00BF00BF4846FAF796FE00BF00BF14
:1055A00046F66350288000208CE700BF4148007811
:1055B000401C4049087000BF00BF4846FAF784FE0F
:1055C00000BF00BF00BF434607220021084601F08C
:1055D00091FA00BF00BF00BFFAF772FE814600BF1C
:1055E00000BF34480078401E3249087000BF00BF39
:1055F0004846FAF769FE00BF00BF00BFFFF7EEF8AC
:1056000000BF00BFFAF75CFE814600BF00BF28481C
:10561000006890F8350020B1012826D0032834D145
:105620002CE0FCB122480068006C2060FCF7DAF83E
:105630001F490968096C401A1D490968C1F8A4008E
:105640001B480068D0F8A80019490968D1F8A410CF
:10565000884207D216480068D0F8A40014490968A7
:10566000C1F8A8000020288013E01CB11048006891
:10567000006C206046F2A91028800AE00CB10020DE
:10568000206047F2D920288003E046F62E6028806B
:1056900000BF00BF06480068476C00BF00BF484617
:1056A000FAF712FE00BF00BF38460BE740000020AB
:1056B000E0000020880000202DE9F04705460E4656
:1056C00017461C464FF0000A2E480078002804DDDB
:1056D00047F259102080BDE8F0871EB946F2D52068
:1056E0002080F8E71FB946F2D5202080F3E700BFFD
:1056F00000BFFAF7E5FD824600BF00BF0DB92248A2
:105700000568286868B900BF00BF5046FAF7DCFD9D
:1057100000BF00BF00203060386047F25210208088
:10572000D9E795F83C0000F0010068B900BF00BF60
:105730005046FAF7C9FD00BF00BF00203060386056
:1057400047F254102080C6E700BF00BF5046FAF76A
:10575000BBFD00BF00BF4FF00008D5F8249003E068
:1057600009F1040908F10108D9F800000028F7D070
:10577000C6F80080A86BA0EB0800386000202080ED
:1057800000BFA8E740000020E0000020F0B504467C
:10579000DDE9055602EB850020F007004FF0000C14
:1057A000071F3846C7F800C04FF4805C071F384613
:1057B000C7F800C04FF0150C071F3846C7F800C0E7
:1057C0004FF0140C071F3846C7F800C04FF0130CF9
:1057D000071F3846C7F800C04FF0120C071F3846A5
:1057E000C7F800C04FF0110C071F3846C7F800C0BB
:1057F0004FF0100C071F3846C7F800C04FF0090CD7
:10580000071F3846C7F800C04FF0080C071F38467E
:10581000C7F800C04FF0070C071F3846C7F800C094
:105820004FF0060C071F3846C7F800C04FF0050CB4
:10583000071F3846C7F800C04FF0040C071F384652
:10584000C7F800C04FF0030C071F3846C7F800C068
:105850004FF0020C071F3846C7F800C04FF0010C8C
:10586000071F3846C7F800C04FF0000C071F384626
:10587000C7F800C04FF0807C071F3846C7F800C04B
:10588000071F38463C60DFF85CC1071F3846C7F881
:1058900000C04FF0123C071F3846C7F800C04FF059
:1058A000033C071F3846C7F800C04FF0023C071FF3
:1058B0003846C7F800C0071F38463B60071F384608
:1058C00039604FF0310C071F3846C7F800C04FF061
:1058D000300C071F3846C7F800C04FF0290C071FCF
:1058E0003846C7F800C04FF0280C071F3846C7F8E5
:1058F00000C04FF0270C071F3846C7F800C04FF014
:10590000260C071F3846C7F800C04FF0250C071FAC
:105910003846C7F800C04FF0240C071F3846C7F8B8
:1059200000C04FF0230C071F3846C7F800C04FF0E7
:10593000220C071F3846C7F800C04FF0210C071F84
:105940003846C7F800C04FF0200C071F3846C7F88C
:1059500000C04FF0190C071F3846C7F800C04FF0C1
:10596000180C071F3846C7F800C04FF0170C071F68
:105970003846C7F800C04FF0160C071F3846C7F866
:1059800000C04FF0113C071F3846C7F800C04FF069
:10599000103C071F3846C7F800C04FF0093C071FEE
:1059A0003846C7F800C04FF0083C071F3846C7F814
:1059B00000C04FF0073C071F3846C7F800C04FF043
:1059C000063C071F3846C7F800C04FF0053C071FCC
:1059D0003846C7F800C04FF0043C071F3846C7F8E8
:1059E00000C0F0BD757D00087FB505460C46124825
:1059F000854203D147F25B1020807FBD0F4885426E
:105A000003D147F25C102080F7E70D4800780028AA
:105A10000BDD002000900190034602462946CDE9A7
:105A20000204084800F00AFDE7E72146284602F094
:105A30000FFC00BFE1E70000CC160020901700200B
:105A4000400000205453555310B51D48006810B154
:105A50001B4800688047FBF7C5FE044619480068EC
:105A600019490968884215D016480068D0F898008E
:105A7000201A14490968C1F8940012480068D0F847
:105A80009C0010490968D1F8941008440D49096830
:105A9000C1F89C000C480068C0F8984009480068AC
:105AA000D0F8B40009490968884205D2074800685F
:105AB00004490968C1F8B40000200449086010BD19
:105AC00034000020E0000020E400002084000020DA
:105AD0002DE9F04105460E46144600273F48007860
