:020000040800F2
:10000000402B0120790200080146000875330008E2
:10001000AB3F0008EF1600081DC9000800000000F3
:10002000000000000000000000000000F59900083A
:1000300071200008000000001307000881AA0008D2
:10004000930200089302000893020008930200083C
:100050009302000893020008752000086523000839
:100060006925000893020008832500089302000810
:10007000930200089302000893020008930200080C
:1000800093020008930200089302000893020008FC
:100090009302000893020008930200089D250008BF
:1000A00093020008CDAD00089302000893020008F7
:1000B000F9AD0008930200089302000893020008BB
:1000C00093020008930200089302000893020008BC
:1000D000930200082DBB00080DBD000809BE0008F2
:1000E000712200089302000893020008930200089E
:1000F0009302000893020008FDB000089302000874
:10010000930200089302000893020008930200087B
:1001100069B8000899B9000893020008B9B000084E
:10012000B91E000893020008930200089302000819
:10013000930200089302000893020008930200084B
:10014000930200089302000893020008930200083B
:10015000930200089302000893020008930200082B
:10016000930200089302000893020008930200081B
:10017000930200089302000893020008930200080B
:10018000930200089302000800F002F800F064F8FF
:100190000AA090E8000C82448344AAF10107DA45E2
:1001A00001D100F059F8AFF2090EBAE80F0013F0D0
:1001B000010F18BFFB1A43F00103184724E90000A0
:1001C00044E900000A444FF0000C10F8013B13F022
:1001D000070408BF10F8014B1D1108BF10F8015BA0
:1001E000641E05D010F8016B641E01F8016BF9D193
:1001F00013F0080F1EBF10F8014BAD1C0C1B09D1EA
:100200006D1E58BF01F801CBFAD505E014F8016B5B
:1002100001F8016B6D1EF9D59142D6D370470000ED
:100220000023002400250026103A28BF78C1FBD8FF
:10023000520728BF30C148BF0B607047642900F0E7
:100240008B80782900F0C480002070471FB50EF025
:1002500084FA1FBD10B510BD00F00EFA1146FFF76D
:10026000F5FF0DF005F800F02CFA03B4FFF7F2FFEC
:1002700003BC0CF09CFB000009488047094800477C
:10028000FEE7FEE7FEE7FEE7FEE7FEE7FEE7FEE746
:10029000FEE7FEE704480549054A064B70470000A3
:1002A000A5AA00088901000840250120402B012053
:1002B000402701204027012072B6704762B6704780
:1002C000EFF3108072B6704780F31088704730BF2C
:1002D000704720BF7047B0FA80F0704790FAA0F0E6
:1002E000B0FA80F0704790FAA0F0704770470000B5
:1002F0000FB4044910B503AA029800F08FF910BC9E
:100300005DF814FB1802002070B50446856900688A
:10031000C10601D5302600E02026C00707D070BDF9
:10032000D4E9012130469047206A401C20626D1EAE
:10033000F6D570BD70B5044685690078C00707D151
:1003400070BDD4E9012120209047206A401C206222
:100350006D1EF6D570BD00002DE9F0410646002463
:1003600010687529314616A510D0AFF3008000281B
:1003700002DA404213A507E031688A0701D512A5C9
:1003800002E0490704D511A5012401E0AFF3008084
:1003900000210A2206F1240709E0B0FBF2FCB0FBC1
:1003A000F2F302FB1C00303078541846491C002838
:1003B000F3D123462A463046BDE8F04100F0D4B8D8
:1003C000000000002D0000002B00000020000000B5
:1003D00070B504460D4621461068AFF300802188B1
:1003E000090502D50F4A7A4402E00E4A7A440E32D9
:1003F000002104F1240305E000F00F060009965DDA
:100400005E54491C0028F7D120780023000704D54A
:10041000702D02D009B1022311322046BDE8704090
:1004200000F0A2B8BAE600002DE9F05F8946044664
:100430004FF0000ADFF824B1FB44C0F820A02046AA
:10044000E168884700287DD0252806D0D4E901211D
:100450009047206A401C2062F1E700255F46204655
:10046000E16888472028064607DB312E05D2B819F7
:1004700010F8200C08B10543F1E7A80701D525F0D5
:100480000405C4F81CA00027C4F818A02A2E09D01F
:1004900030460CF085FA38B304EB8708303EC8F8D4
:1004A000186019E059F8041B204604EB870291619B
:1004B000E1688847012F064618D1E069002820DA54
:1004C00025F020051DE0D8F8180000EB800006EBB1
:1004D00040003038C8F818002046E16888470646D2
:1004E0000CF05EFA0028EED1012F0AD02E2E08D192
:1004F0002046E16888477F1C0646022F45F020050C
:10050000C4DBA069002803DA404245F00105A06180
:10051000E80701D025F01005A6B1A6F14100192881
:1005200002D8203645F400654A463146204625600B
:100530004D46FFF783FE60B1012807D0ED1D25F081
:10054000070000E007E000F1080978E705F1040979
:1005500075E730467AE7206ABDE8F09F90E6000034
:1005600070477047704770472DE9F0470D46994630
:100570009246044600F124080168880604D5E06923
:1005800021F01001216000E00120A84201DD471B9D
:1005900000E00027A1697A1902EB0900081AA0619E
:1005A0002078C00602D42046FFF7AEFE002608E001
:1005B000D4E901211AF806009047206A401C761CF5
:1005C00020624E45F4DB2078C0060AD52046FFF7AE
:1005D0009BFE06E0D4E9012130209047206A401CB0
:1005E0002062381EA7F10107F4DC07E0D4E90121FD
:1005F00018F805009047206A401C2062281EA5F1CB
:100600000105F3DC2046FFF795FE2078000602D5B1
:100610000220BDE8F0870120FBE70000074B70B522
:100620000D467B4400F011F80446284600F020F8FF
:1006300010B14FF0FF3070BD204670BD2FCC0000D0
:1006400001694A1C02610878704700B58FB0CDE996
:1006500001310021059105497944CDE90310114686
:100660006846FFF7E1FE0FB000BD0000E5FFFFFFA9
:10067000007B00F080007047754600F02BF8AE4616
:1006800005006946534620F00700854618B020B59E
:10069000FFF700FEBDE820404FF000064FF00007D6
:1006A0004FF000084FF0000B21F00701AC46ACE81A
:1006B000C009ACE8C009ACE8C009ACE8C0098D4687
:1006C000704710B50446AFF300802046BDE81040E7
:1006D000FFF7CBBD00487047E024012022484FF6C9
:1006E000FF710170002080F309882048016881F3C0
:1006F00008881F484FF08051016062B6FEE71C4831
:100700004FF080510160704719484FF080510160EF
:10071000704772B6EFF3098050B11EF0100F08BF9A
:1007200020ED108A203880E8F00F1249096808602F
:1007300000B5114880475DF804EB104810490A786D
:1007400002700C480F490A680260106890E8F00FC8
:1007500020301EF0100F08BFB0EC108A80F309881B
:100760004EF0040E62B6704722ED00E01400002047
:1007700004ED00E0E00000203D5F00086E00002076
:100780006F000020E400002000B58BB001210802BA
:1007900008F00CFF00F0DAF800F096F801210802EA
:1007A00008F014FF00214FF4807008F00FFF0020C4
:1007B000099007904FF48030089000200A9007A815
:1007C00000F054F80020019001208DF808008DF809
:1007D000090000200390059006208DF8180001A95B
:1007E0001B4800F0D9F80121194800F033F806231E
:1007F00001220B21164800F0F9F8062302220A21F3
:10080000134800F0F3F8062303220C21104800F0EF
:10081000EDF80623042201210D4800F0E7F8062335
:10082000052200210A4800F0E1F806231A460D21AE
:10083000074800F0DBF8064800F034F901210448CD
:1008400000F037F80121024800F028F80BB000BD95
:100850000020014021B1826842F00102826003E081
:10086000826822F001028260704700000021084A7D
:100870001168084A1140D0E900231A4383681A43DB
:10088000C3681A431143044AC2F8041370470000B6
:1008900004230140E030FCFF0020014021B18268C8
:1008A00042F48072826003E0826822F48072826087
:1008B000704721B1826842F40072826003E082686E
:1008C00022F400728260704700B58FB00121880564
:1008D00008F03CFE00BF1A4801F043FB0028FAD1A3
:1008E0000090184801901848029000200390602062
:1008F0000490002005904FF480600690400007901F
:100900000890C010099040020A9000200B9001202E
:100910000C9000200D900E906946094801F07CFB78
:100920000121074801F012FB1021054801F0DAFA15
:1009300001221021024801F051FB0FB000BD000060
:10094000106402404C200140AC1D00201CB5012168
:10095000042008F0FBFD0F20009003208DF8040018
:1009600000208DF807006946094802F04BF9012183
:10097000084608F0EBFD032000908DF804000020ED
:100980008DF807006946034802F03CF91CBD0000E1
:10099000000802400000024030B50246002000235B
:1009A0005068104C20400D790C6844EA052420431F
:1009B000506090680C4C2040D1E903542C438D6862
:1009C0002C434D7944EA450420439060D06A20F4DA
:1009D00070000C7D641EE4B2234340EA0350D062F1
:1009E00030BD0000FFFEFFFCFDF7FFC0F0B5044680
:1009F0000D4600200021092D11DDE068A5F10A0651
:100A000006EB4607072606FA07F18843A5F10A0612
:100A100006EB460603FA06F10843E0600CE02069A5
:100A200005EB4507072606FA07F1884305EB45065F
:100A300003FA06F108432061072A0FDA606B561E9D
:100A400006EB86071F2606FA07F18843561E06EBBB
:100A5000860605FA06F10843606322E00D2A0FDAE4
:100A6000206BD61F06EB86071F2606FA07F1884380
:100A7000D61F06EB860605FA06F10843206310E050
:100A8000E06AA2F10D0606EB86071F2606FA07F1BB
:100A90008843A2F10D0606EB860605FA06F1084327
:100AA000E062F0BD816841F080418160704710B51F
:100AB00002F012FE10BD70B50446002602F0C2FE20
:100AC0002546E11704EB11610912A02202EB410156
:100AD000C8B202F081FE02F0FFFEE11704EB1161E3
:100AE0000912A4EB0121C8B202F076FE02F0F4FE76
:100AF00002F0A8FEA12002F06FFE02F0EDFE002041
:100B000002F036FE064602F0C3FE304670BD70B5F8
:100B100004460E4602F096FE2546E11704EB1161ED
:100B20000912A02202EB4101C8B202F055FE02F008
:100B3000D3FEE11704EB11610912A4EB0121C8B245
:100B400002F04AFE02F0C8FE304602F045FE02F016
:100B5000C3FE02F09DFE32200CF0ECFA70BD0000E6
:100B600010B5FF20FFF7A7FF04465A2C08D138A084
:100B7000FFF7BEFB01203B4981F83000002010BD8B
:100B800043F2B0603849088200F08EFE3648008A91
:100B9000642190FBF1F03449097B48433249C88114
:100BA0000020304908728872487230A0FFF7A0FB1D
:100BB0002D48008A010A0220FFF7A9FF2A48017C7C
:100BC0000320FFF7A4FF2848C089010A0420FFF78B
:100BD0009EFF2548817B0520FFF799FF00202949CA
:100BE000487288720846417A0620FFF790FF254830
:100BF000817A0720FFF78BFF1A48017A0820FFF758
:100C000086FF1848817A0920FFF781FF1548417A4D
:100C10000A20FFF77CFF5A21FF20FFF778FFFF2013
:100C2000FFF749FF044602200CF084FA214616A083
:100C3000FFF75EFB5A2C08D102200A4981F83000E8
:100C400018A0FFF755FB002099E7012097E7000067
:100C50005265616420415432347878204F4B210D25
:100C60000A000000A81E0020A61F0020466972731B
:100C70006520577269746520415432347878202198
:100C80000D0A0000401F00207772697465206669B4
:100C900072737420737461203A20253032780D0A03
:100CA000000000004669727365205265616420414E
:100CB0005432347878204F4B210D0A002DE9F04F43
:100CC00085B0002004908346F948407901287DD101
:100CD0000020F749487148800871084690F80A904A
:100CE00090F80BA0BAF1010FF1D190F80C80B8F197
:100CF000610F6CD01ADCB8F1090F69D00CDCB8F1C7
:100D0000010F2ED0B8F1060F7ED0B8F1070F7CD0BE
:100D1000B8F1080F7AD129E1B8F1100F77D0B8F106
:100D2000110F75D0B8F1150FF4D134E0B8F1750F8B
:100D30006FD00CDCB8F1620F6CD0B8F1630F6AD0E1
:100D4000B8F1640F68D0B8F1710FE3D10EE2B8F1D9
:100D5000770F7AD0B8F1810F78D0B8F1820FD9D15E
:100D6000BEE20020D349C8830846407E01280FD147
:100D70000020D149088048800846016800914068F9
:100D800003460A46FF210190012009F0A3F801E083
:100D900009F0C2FCA6E20020C6498883C448C08985
:100DA0000390C348008A0290BDF80C1088B20DF081
:100DB00081F804B2BDF8081088B20DF07BF807B2D4
:100DC00040F2DC50844204DD044606E08BE299E107
:100DD000A6E0BA48844200DA044604B997B100207C
:100DE000B4494875B64908750120B2490876002013
:100DF0004874032081F820000020B14981F82C00BC
:100E000081F83800AB4808E017E1A2E069E2CEE0E3
:100E1000F6E0C1E18AE194E19EE1407E012804D040
:100E2000A84890F82400012816D1A648007F012880
:100E30000DD10020A349088048800A46B2F902106B
:100E4000B2F9000009F0A6FC69E002E21CE201210F
:100E5000084609F069FC62E09648407E01285ED0B1
:100E60009448407D28BB9348407900F0030020B9A6
:100E70009048C07A00F0010030B1002C04DD002061
:100E80009049088048801BE08A48407900F0300093
:100E900020B98848C07A00F0020030B1002C04DA92
:100EA00000208849088048800AE0864804804780FE
:100EB00006E08348008D834908808148408D488042
:100EC00080480088E0B97F484088C8B97E48007DE6
:100ED00000F00100A0B97B48407F012808D1794883
:100EE000007F012804D10021084609F01DFC16E00E
:100EF000744AB2F90210B2F9000009F04BFC0EE09E
:100F00007048007F20B90121084609F00DFC06E079
:100F10006C4AB2F90210B2F9000009F03BFCE1E1C1
:100F20006948007D664991F8381008436149486274
:100F30006548017B5F488162644908780978491CEB
:100F4000624B19705B49D1E90923494609F030F831
:100F5000C8E15848C37A427949465D48007808F0AC
:100F600063FF5348C07B53498873BBE15648007DFB
:100F700000F00100A0B94E4890F80EB04D4890F82E
:100F8000200001280CD001204A4981F8200081F876
:100F900030004B4908750020464948750120087605
:100FA0005A4649464A48007808F046FD9AE14948C1
:100FB00090ED080AF2EE040A20EE200ABDEEC00A07
:100FC00010EE100A00B23B498885424890ED030AB2
:100FD000F2EE040A20EE200ABDEEC00A10EE100A5E
:100FE00001B23448C185394908780978491C374B22
:100FF000197000232F49CA6A494608F011FE71E1B1
:101000002B48807B2A49CD7B60F31F250846007C56
:101010004E7C60F31F263146284602F0ADF9334678
:101020002A462A4908780978491CDFF8A0E08EF89A
:101030000010494608F07CFD54E11D48807B401FAC
:1010400005284CD2DFE800F0030F1B274800214899
:10105000007840F010001F4908700846007820F022
:10106000400008703FE01B48007840F0200019491C
:1010700008700846007820F08000087033E01548BA
:10108000007840F04000134908700846007820F0CE
:101090001000087027E00F48007840F080000D49EC
:1010A00008700846007820F0200008701BE000005F
:1010B000C44F0020A81E00201001002024FAFFFFCA
:1010C0006C1E0020801F0020A61F00201901002098
:1010D00018010020401F002002F05EF903E000200C
:1010E0008249087000BF00BF81498A7B8149087826
:1010F0000978491CDFF8FCC18CF80010494608F05B
:1011000055FDEFE07A48807B7B4981F821007848E3
:10111000C07B81F82200774908780978491C754B13
:101120001970764A494608F0FDFDDBE07149087800
:101130000978491C6F4B1970714A494609F002F849
:10114000D0E06C4908780978491C6A4B19706C4AE0
:10115000494608F0A9FCC5E0664908780978491CA9
:10116000644B1970494608F01FFEBBE06048C17B24
:10117000807B41EA00206149C8800020C870CA888D
:101180005C4908780978491CDFF868C18CF80010C0
:10119000494608F05BFFA5E0544890F90A0000EECC
:1011A000100AB8EEC00A5148D0ED030A30EE200A0A
:1011B000DFED540A30EE600ABDEEC00A10EE100AF0
:1011C00040B24A498872084690F909005A3000EE48
:1011D000100AB8EEC00A0846D0ED080A30EE600AE0
:1011E000BDEEC00A10EE100A40B248729FED450AEB
:1011F000084680ED030A9FED430A80ED080A90F946
:10120000090000EE100AB8EEC00AF0EE400A9FEDA9
:101210003D0A09F059FB354890F90A0000EE100A22
:10122000B8EEC00AF0EE400A9FED360A09F076FBF0
:101230002E4991F90A3091F909202E490878097848
:10124000491CDFF8B0E08EF80010494609F028FA92
:1012500048E02748807B284908722548C07B4872AF
:101260002348007C88720A7A224908780978491C48
:10127000DFF880C08CF80010494609F0B5FA1C4828
:10128000407C1D4908742DE01948807B1B49C872B9
:101290004FF6FF70C8801648C07B40B21A4981F8EB
:1012A00048001348007CC8701148407C81F84A000F
:1012B000084690F8480028B100200F49087602201F
:1012C00081F820000D49CA7A0A4908780978491C32
:1012D000DFF820C08CF80010494608F0E9FC01E076
:1012E00000E000BF00BF05B0BDE8F08F401F002048
:1012F000C44F002018010020A81E0020741F0020E9
:101300002C1F00200000B442DC1E002010B501F0AC
:1013100039FE5848007E00F0200068B95548007E2C
:1013200040F02000534908760846007E00F0200077
:10133000087600F025FB96E04E48407E002860D1FC
:101340004C48007E00F0FE004A4908760846007BC3
:10135000D0B90846807BB8B9002047490870454994
:1013600048768876022081F826000846006A4EF604
:101370006021884273D93F48007E40F040003D49DB
:101380000876012048756AE03A48007E40F0010086
:1013900038490876002038490870042035494876D5
:1013A00000F0CCFB3348007C48B13248807C30B937
:1013B000022030498876062081F826004FE02D482B
:1013C000007C48B92B48807C30B1032029498876BD
:1013D000022081F8260042E02648007C48B12548DA
:1013E000807C30B1012023498876052081F82600D1
:1013F00035E02048807E1F498876022081F826004B
:101400002DE000F09BFB00F0D1FA00F087FA1949BB
:1014100091F8260000F098FA164991F8260000F09D
:101420002DF81448407E042801D100F061FB1148DA
:10143000007B88B90F48807B70B90F480078401C4A
:101440000D49087008460078C82808DD002008709B
:1014500008494876887602E0002007490870054868
:10146000002101608160034991F8260000F006F830
:1014700010BD00006C1E0020FC0000203F49497E8A
:10148000012903D1002000213D4A117008286FD2A4
:10149000DFE800F06E6855186E04412D3849097870
:1014A00081420ED03649087042F21061354A1184EB
:1014B00043F2106151846FF03B01334A11850021E2
:1014C000518559E02E49097881420FD02C49087086
:1014D00042F210612B4A118443F2106151846FF083
:1014E0002701294A11856FF0F501518544E024490F
:1014F000097881420ED02249087042F21061214AD7
:10150000118443F2106151846FF027011E4A118546
:10151000F621518530E01A49097881420ED01849E8
:10152000087042F22061174A118443F2206151840D
:101530000021154A11856FF0F90151851CE0104911
:10154000097881420DD00E49087042F220610D4A9F
:10155000118443F22061518400210B4A1185FA2144
:10156000518509E05A21074A1181518104E0FFE7C2
:101570000021034A117000BF00BF7047A81E002061
:1015800006010020801F00206C1E00200EB500BF49
:101590007BE03E48407D012863D13D48007D00F05E
:1015A0000100002851D13B48C07D012843D1394872
:1015B00090F8380002283ED0002036498875C820AF
:1015C000088500204885642033490881488142F21B
:1015D0002060088443F2206048844FF4FA600BF0E6
:1015E000A9FD00202B49088548852B4908814881A1
:1015F000C8200BF09FFD00202649C87581F82C00FB
:10160000084690F83900401C81F83900084690F8E7
:101610003900032830DB022081F8380000201B4904
:101620004875032081F8200000201A4981F839000C
:1016300081F82C0020E0FFF769FE1648407D012864
:101640001AD100201149487516E042F21060124983
:10165000088443F2106048846FF03B0008814881A1
:101660000AE000200B49088548850B49088148811C
:1016700002A90A4804F032FC02A80021C8230A4645
:10168000CDE90010084604F029FD82E7A81E0020DD
:10169000A61F00206C1E0020801F0020B4290020FF
:1016A0001CB50121082007F051FF4FF40070009095
:1016B00001208DF8040000208DF806008DF8070049
:1016C00003208DF805006946044801F09BFA4FF4A9
:1016D0000071024801F00AFB1CBD0000000C024032
:1016E0001FB5684607F082FF019804B010BD00BF27
:1016F000FEE710B500F020F800F01AF810BD000069
:1017000010B5002400BF00BFFEF7DAFD044600BF9D
:1017100000BF1021054802F04AFC00BF00BF204670
:10172000FEF7D2FD00BF00BF10BD00002002002068
:1017300010B5FFF7E5FF10BD10B5002002490860A5
:1017400000F00AF810BD00001000002001490860F8
:10175000704700001000002010B5FFF7C1FF0446DD
:101760000848006840F0807006490860002006497B
:1017700048600846006840F0010008602046FFF716
:10178000E5FF10BDFCED00E0001000E001494868F5
:1017900070470000001000E010B50246002006E08F
:1017A00013784340034CE05C521C4B1ED9B2002915
:1017B000F6DC10BD80E9000870B502464FF6FF70F8
:1017C000002413E012F8015B684000230AE000F0F7
:1017D000010525B140084AF20105684000E04008D3
:1017E0005D1CEBB2082BF2DB651CECB28C42E9DB32
:1017F00070BD00000EB500BF46E0FFF75FFA23485A
:10180000007848B12248C07C30B901202049C87412
:1018100002A9204804F076F81F48C07A28B91E486B
:10182000C0884FF6FF71884209D01948007D30B951
:1018300001201749087502A9184804F063F81848F0
:10184000007D012817D11248407DA0B91048007EC4
:10185000012810D10E4981F8200000201049087697
:1018600001200B494875002008760D49487502A9EA
:101870000C4804F047F802A8002103230A46CDE9EA
:101880000010084604F02AFCB7E70000401F0020C3
:10189000A81E002068270020741F0020F0280020C8
:1018A0006C1E0020B42900201A48008800EB80003C
:1018B0004FF6FF7101EA400017490880084600888A
:1018C00045F65071884203DA05201349087320E079
:1018D0001148008846F2D011884203DA14200E49DC
:1018E000087316E00C48008846F29051884203DAEB
:1018F0003220094908730CE00748008846F6781141
:10190000884203DA4B200449087302E05A20024956
:1019100008737047A01D0020A61F0020074890F8FC
:101920004C0000F0030020B90548C07A00F0020026
:1019300010B100200349087670470000DC1E00202B
:10194000A81E00206C1E002010B50446A01E06280C
:1019500013D2DFE800F00F0612030C090BF038F881
:101960000CE00BF0B1F909E00BF0F4F806E00BF035
:101970001BFB03E00BF066FA00E000BF00BF10BDE8
:1019800000200949487688768883086288844875EB
:1019900081F8260008460021016041608160002036
:1019A000014981F8260070476C1E00200448006A37
:1019B00044F62061884202D90020014988767047A8
:1019C0006C1E00200D48006A401C0C490862084645
:1019D000808B401C88830A4890F82000012809D198
:1019E0000848007D00F0010020B90846808C401CAA
:1019F000888402E000200149888470476C1E002022
:101A0000A81E0020A61F002010B52DED048B344821
:101A100090ED090AB5EEC00AF1EE10FA2ADD90ED5C
:101A2000080AD0ED090A30EE600A10EE101A0846D6
:101A30000CF022FE41EC190BB0EE490AF0EE690AF7
:101A40000AF0A4FFB0EE408AF0EE608A9FED250B0D
:101A500053EC102B51EC180B0CF0B4FB0AD22048BD
:101A6000007820F050001E4908709FED200A0846BB
:101A700080ED090A1A4890ED040AB5EEC00AF1EEAD
:101A800010FA2ADD90ED030AD0ED040A30EE600A68
:101A900010EE101A08460CF0EFFD41EC190BB0EEF9
:101AA000490AF0EE690A0AF071FFB0EE408AF0EEE2
:101AB000608A9FED0C0B53EC102B51EC180B0CF0C3
:101AC00081FB0AD20648007820F0A0000449087083
:101AD0009FED060A084680ED040ABDEC048B10BD9C
:101AE000401F0020000000000000E03F0000000058
:101AF0001148007C30B11048807C18B902200E4992
:101B0000887617E00C48007C30B90B48807C18B10F
:101B10000320094988760DE00748007C30B106486B
:101B2000807C18B101200449887603E00248807E59
:101B300001498876704700006C1E002046480078F6
:101B400050281ED14448807A02281AD14248407E4B
:101B5000042803D10120404948767BE03F480078C3
:101B6000401C3E49087008460078012872DB0020BE
:101B700008703B4908703B49087001203649487697
:101B800068E035480078502822D13348007A502840
:101B90001ED13148407E042803D102202E494876C8
:101BA00058E02F480078401C2D49087000202D492E
:101BB00008702A4908702A48007801284ADB00206A
:101BC000274908702749087002202349487641E0D8
:101BD0002148807802281FD11F48807A02281BD113
:101BE0001D48407E042803D103201B49487631E07C
:101BF00000201B490870194908701A480078401CD9
:101C00001849087008460078012823DB0020087076
:101C10000320114948761DE00F48407E042812D168
:101C20000D48C07B30B10C48407C18B902200A49ED
:101C3000487608E00848C07B28B90748407C10B1C6
:101C400003200549487600200549087005490870B9
:101C500002490870704700006C1E00200901002036
:101C600007010020080100200EB500BFE5E0734821
:101C7000007800F0100000286BD17148808840F691
:101C80002821884232DB6F48C07D70BB32200BF0C8
:101C900051FA00206B490885488564200BF04AFA08
:101CA0006748808840F6282188421DDB6548C07D52
:101CB000002819D16148007840F010005F49087091
:101CC0000120604981F82C00002081F8380081F85B
:101CD000390040215C4801F009F800205B49087098
:101CE0005B494875574908759EE0FFE75948007DF4
:101CF00000F0FE00574908754021534800F0F8FFF6
:101D000000204E4908705248007EE8B94D48807D59
:101D10000128E9D101F036F9C8200BF00BFA0120B7
:101D20004849C875002008760120494948750020B7
:101D30000876444948750120454981F8200002A9E8
:101D4000454803F0DFFD6FE000203E49C875887507
:101D50006AE03A48007800F0200088BB3848C08824
:101D600040F2C671884215DA38480078401C37497D
:101D70000870084600780A2856DD002008702F48B1
:101D8000007840F020002D49087040212E4800F0D6
:101D9000AFFF49E02A48C08840F60501884205DACD
:101DA0002748008840F65A2188423DDB2948007DBB
:101DB00040F001002749087500202449087033E0ED
:101DC000FFE71F48808840F62821884217DC4FF43F
:101DD00048700BF0AFF91A48808840F628218842F5
:101DE00022DC0020154908704021174800F080FFD0
:101DF0001848007D00F0FE001649087514E01348ED
:101E00000078401C114908700846007805280BDD51
:101E1000002008700948007800F0DF0007490870CA
:101E20004021094800F062FF02A8002164230A460D
:101E3000CDE90010084604F051F918E7920100209E
:101E4000A01D00206C1E0020000002409301002015
:101E5000A81E0020A61F0020B42900201CB50121C7
:101E6000084607F073FB4FF48050009000208DF877
:101E7000040001208DF8070002208DF80500694656
:101E80000B4800F0BFFE0121102007F05FFB4FF46C
:101E90008050009000208DF8040001208DF807008C
:101EA00002208DF805006946024800F0ABFE1CBD1B
:101EB000000002400010024010B502F023FE074966
:101EC000074800F059F828B10449054800F024F803
:101ED0000BF096F902F02CFE10BD000020800010DF
:101EE000106402400246094B9A4201D2084801E0C0
:101EF0000648103801F000531BB1064B0B40C3607D
:101F000002E0044B0B408360704700001064024005
:101F1000006002407D0F7D0F0246094B9A4201D2BC
:101F2000084801E00648103801F000531BB1064B89
:101F30000B40C36002E0044B0B408360704700001D
:101F400010640240006002407D0F7D0F21B10268E5
:101F500042F00102026003E0026822F00102026026
:101F60007047014600200A6802F001020AB1012010
:101F700000E000207047000070B5024600200024F9
:101F80000025124EB24201D2114B01E00F4B103B23
:101F9000104E0E4036B11E2606EAD124166806EA17
:101FA000040502E0566906F0800501F000560EB106
:101FB0005C6800E01C68084E344004EA010616B173
:101FC0000DB1012000E0002070BD0000106402404F
:101FD000006002403C0F3C0F7D0F7D0F10B501F0FB
:101FE00080034BB122B1436943F08003436103E0B6
:101FF000436923F08003436180290BD02AB1036831
:1020000001F01E042343036004E0036801F01E0492
:10201000A343036010BD000010B500220268134BFB
:102020001A40CC680B6823434C6923438C692343D3
:10203000CC6923430C6A23434C6A23438C6A2343B1
:102040004C6B23438C6B23431A430260426922F09A
:102050000702D1E90B3423431A4342610B69436001
:102060004B6883608B68C36010BD00003F801CF02C
:102070007047000010B502F045FD012000F0E8FBBC
:1020800000287DD07348007800F0400040284DD0F3
:102090007048007800F02000202810D001216E4800
:1020A00000F01BFE012809D16C4800886C490880AB
:1020B0006848007840F0200066490870C4E00121BB
:1020C000654800F00AFE0028F8D164480088654998
:1020D00008806048007800F0DF005E4908706148C1
:1020E00000885F490988884209DA5E4800884FF60F
:1020F000FF7108445A490988401A84B205E05948DA
:10210000008857490988401A84B2B4F5B97FD5DBF5
:1021100040F226208442D1DA4E48007840F0400058
:102120004C4908700020504908708DE049480078FB
:1021300000F02000202810D00121474800F0CDFDFC
:102140000128BBD1454800884549088041480078AE
:1021500040F020003F49087076E001213E4800F041
:10216000BCFD002870D13D4800883E4908803948B0
:10217000007800F0DF00374908703A48008800E036
:1021800065E037490988884209DA364800884FF601
:10219000FF71084432490988401A84B205E0314889
:1021A00000882F490988401A84B2142C06DB5A2C67
:1021B00004DA2D4800782C49087015E0642C08DBFF
:1021C000D22C06DA2848007840F001002649087031
:1021D0000AE0DC2C02DBB4F5877F05DBB4F5967FE3
:1021E00002DB00201B4908701A48007800F01F002D
:1021F00006281EDB0020174908701B48007850286D
:1022000002D11A4908701FE0174800780C2802D143
:102210001649487018E014480078022802D1134982
:10222000887011E0104800780A280DD10F49C87055
:102230000AE008480078401C064908700A480078FF
:102240004006000E08490870012000F0FBFA02F079
:102250006FFC10BD30010020000402403E01002050
:102260003201002034010020360100206C1E0020C5
:1022700010B502F047FC4FF4006000F0E9FA0028C6
:1022800063D03348007800F02000202859D130482E
:10229000007800F08000802853D02D48007800F0AE
:1022A0004000402811D04FF400612A4800F015FD8D
:1022B000012846D128480088284908802448007809
:1022C00040F04000224908703BE04FF40061214893
:1022D00000F003FDA8BB204800882149088008467B
:1022E00000881E490988884209DA1D4800884FF68F
:1022F000FF71084419490988401A84B205E018485A
:10230000008816490988401A84B2322060431D2192
:1023100090FBF1F00E49488008464088B0F5FA6F0E
:1023200002DD4FF4FA6048800948007800F00F00A1
:10233000074908700846007840F0800008700020C7
:1023400088804FF4006000F07DFA02F0F1FB10BDD0
:10235000D0010020001002403E010020500100206A
:102360005201002010B502F0CDFB022000F070FAFF
:1023700000287DD07548007800F0400040284DD0FE
:102380007248007800F02000202810D00221704808
:1023900000F0A3FC012809D16E4800886E4908802E
:1023A0006A48007840F0200068490870C7E00221C0
:1023B000674800F092FC0028F8D166480088674919
:1023C00008806248007800F0DF00604908706348C8
:1023D000008861490988884209DA604800884FF618
:1023E000FF7108445C490988401A84B205E05B48E3
:1023F000008859490988401A84B2B4F5B97FD5DB01
:1024000040F226208442D1DA5048007840F0400063
:102410004E49087000205249087090E04B480078FF
:1024200000F02000202810D00221494800F055FC7F
:102430000128BBD1474800884749088043480078B5
:1024400040F020004149087079E00221404800F046
:1024500044FC002873D13F480088404908803B482D
:10246000007800F0DF00394908703C48008800E03F
:1024700068E039490988884209DA384800884FF607
:10248000FF71084434490988401A84B205E0334892
:10249000008831490988401A84B2142C06DB642C68
:1024A00004DA2F4800782E49087015E0642C08DB08
:1024B000DC2C06DA2A48007840F001002849087030
:1024C0000AE0E62C02DBB4F5877F05DBB4F5967FE6
:1024D00002DB00201D4908701C48007800F01F0036
:1024E000062821DB0020194908701D480078502873
:1024F00002D11C49087222E0194800780C2803D147
:102500000C21184841721AE015480078022803D1BE
:1025100002211448817212E0114800780A280ED175
:102520000A211048C1720AE008480078401C074997
:1025300008700B4800784006000E09490870022018
:1025400000F080F902F0F4FA10BD0000370100201D
:10255000000402403E010020380100203A01002022
:102560003C0100206C1E002010B502F0CBFA0420C4
:1025700000F06EF910B1042000F064F902F0D8FA0E
:1025800010BD10B502F0BEFA102000F061F910B1D4
:10259000102000F057F902F0CBFA10BD10B502F090
:1025A000B1FA202000F054F9002860D09948007852
:1025B00000F02000202857D19648007800F08000D5
:1025C000802851D09348007800F04000402810D077
:1025D0002021914800F081FB012845D18F480088D7
:1025E0008F4908808B48007840F040008949087086
:1025F0003AE02021884800F070FBA8BB874800889B
:10260000884908800846008885490988884209DA8F
:10261000844800884FF6FF71084481490988401AB0
:1026200084B205E07F4800887D490988401A84B259
:10263000322060431D2190FBF1F076494880084626
:102640004088B0F5FA6F02DD4FF4FA6048807148B7
:10265000007800F00F006F4908700846007840F0DD
:102660008000087000208880202000F0EBF8802097
:1026700000F0EEF8002860D06B48007800F02000F1
:10268000202857D16848007800F08000802851D079
:102690006548007800F04000402810D080215E4856
:1026A00000F01BFB012845D15C4800885F49088089
:1026B0005D48007840F040005B4908703AE08021B6
:1026C000554800F00AFBA8BB5448008858490880C8
:1026D0000846008855490988884209DA5448008824
:1026E0004FF6FF71084451490988401A84B205E049
:1026F0004F4800884D490988401A84B2322060430F
:102700001D2190FBF1F04849488008464088B0F50B
:10271000FA6F02DD4FF4FA6048804348007800F019
:102720000F00414908700846007840F080000870AA
:1027300000208880802000F085F84FF4007000F0C1
:1027400087F8002863D03B48007800F0200020285C
:1027500059D13848007800F08000802853D035489F
:10276000007800F04000402811D04FF4007132484A
:1027700000F0B3FA012846D1284800882F49088084
:102780002C48007840F040002A4908703BE04FF4A4
:102790000071294800F0A1FAA8BB20480088284908
:1027A00008800846008825490988884209DA2448B3
:1027B00000884FF6FF71084420490988401A84B206
:1027C00005E01F4800881D490988401A84B232205C
:1027D00060431D2190FBF1F016494880084640886F
:1027E000B0F5FA6F02DD4FF4FA60488011480078C6
:1027F00000F00F000F4908700846007840F0800094
:102800000870002088804FF4007000F01BF802F080
:102810008FF910BDC4010020000C02403E010020D1
:10282000480100204A010020BE0100204401002090
:1028300046010020CA010020001002404C01002087
:102840004E0100200149086070470000143C01401F
:1028500001460020034A12680A400AB1012000E044
:1028600000207047143C0140002123498279002A4E
:102870003AD00A46126803689A430B461A600A1D4A
:10288000126803689A430B1D1A60027911440A68A2
:1028900003681A430A60184A0832126803689A43A8
:1028A000154B08331A601A1D126803689A43124BBD
:1028B0000C331A604279102A0ED11A1F126803686D
:1028C0001A430D4B08331A601A1D126803681A4325
:1028D000094B0C331A600DE00749427911440A682C
:1028E00003681A430A6005E0027911440A68036824
:1028F0009A430A6070470000003C01400EB500BFDB
:1029000010E00020084948700870487107F0A6FEE2
:1029100002A800214FF4FA730A46CDE900100846D8
:1029200003F0DCFBEDE70000005000200EB500BF17
:102930000CE000F00DF809F0F3FF02A800210A23D3
:102940000A46CDE90010084603F0C8FBF1E7000095
:1029500070B52DED028B38484079012868D1364892
:102960004478A01E3449891D0A5C601E085C42EA56
:102970000025A01EC1B23048801DFEF71DFF86B2A3
:10298000B5424FD12D492C48B0F80900088008887D
:102990000BF090FA294908802748B0F80B004880CE
:1029A00048880BF087FA254948802348B0F80D0085
:1029B000C880C8880BF07EFA204908811E48B0F80C
:1029C0000F00488148890BF075FA1C4948811A4864
:1029D000B0F81100C880C8880BF06CFA00EE100A3D
:1029E000B8EE408ABCEEC80A10EE100A1349C8803F
:1029F0001148B0F81300888088880BF05BFA00EE6D
:102A0000100AF8EE408ABDEEE80A10EE100A0B49F3
:102A100088800948B0F81500888188890BF04AFA47
:102A20000649888100200449487008704880487130
:102A3000BDEC028B70BD0000E24F00202C1F002077
:102A40000EB500BFCBE000F0D7FF65484088B0F579
:102A50007A7F05DB4FF47A70614948800120087164
:102A600060484088B0F57A7F05DB4FF47A705D49A5
:102A70004880012008715C48808B41F2883188428F
:102A800003DA5948C08B884207DB41F28830564947
:102A90008883C883012088760CE05348808BB0F58A
:102AA0007A7F07DC5048C08BB0F57A7F02DC0020CB
:102AB0004D4988764A480079012803D04A48807EEB
:102AC00001283BD14848407E012813D14748007F68
:102AD00020B90121084607F027FE2FE000204349D6
:102AE000088048800A46B2F90210B2F9000007F0E7
:102AF00051FE23E03D48407F012814D13B48007F30
:102B0000012804D10021084607F00EFE16E000203F
:102B10003649088048800A46B2F90210B2F900002E
:102B200007F038FE0AE000203049088048800A4655
:102B3000B2F90210B2F9000007F02CFE2C48007820
:102B400070B928480079012822D12021294800F0B5
:102B5000CDF801202649087000202749088017E099
:102B600025480088401C24490880084600886428BD
:102B700008DD0020088020211E4800F0B9F8002060
:102B80001A4908771748007910B9002018490870C9
:102B9000164890F82400012815D11848408943F6BA
:102BA0009821884212DD16480078401C14490870AC
:102BB000084600780A2809DD0020087020210D4809
:102BC00000F094F802E000200D49087002A80021EE
:102BD00064230A46CDE90010084603F07FFA32E785
:102BE000C44F00203C500020A81E0020801F002061
:102BF00088010020000002408A010020A61F00205A
:102C00008C010020F0B50A4600210023002400BFFB
:102C10003DE0012505FA01F3156805EA03049C422D
:102C200034D105684F000326BE40B54305601579D1
:102C30004E00B5400668354305601579012D02D078
:102C40001579022D16D185684F000326BE40B54385
:102C5000856055794E00B540866835438560456886
:102C600001268E40B5434560456896798E40B6B2E0
:102C700035434560C5684F000326BE40B543C56077
:102C8000D5794E00B540C6683543C560491C10294A
:102C9000BFD3F0BDF0B5002300244D07ED0E02FABE
:102CA00005F3CE1000F1200555F826504E07F70E1B
:102CB0000F26BE40B543CF1000F1200646F827503E
:102CC000CE1000F1200555F8265045EA0304CE1039
:102CD00000F1200545F82640F0BD024600201369AA
:102CE0000B400BB1012000E000207047418370478A
:102CF0000183704710B52DED048B0AF0B5FD0D4929
:102D000008600968A1F57A700BF031FA41EC190BF3
:102D10009FED090B53EC102B0BF090FA41EC180BC4
:102D20000BF0C8F90349086008460068BDEC048B45
:102D300010BD0000F4000020E4839ECDAACF953F93
:102D400070B504460D468748007868B9012085496A
:102D500008708548008A642190FBF1F08249C98996
:102D600091FBF0F08149086081480078401C40B236
:102D70007F4908707F48006828447E4908607E4883
:102D8000006820447C490860794890F900003C289C
:102D900079DB784800683C21B0FBF1F077490860A6
:102DA000754800683C2190FBF1F07549086009689E
:102DB000002911DA724909683C2291FBF2F00028DF
:102DC00001DB014600E04142674AD289914203DDBE
:102DD00000206549C88109E0694800683C2190FBF2
:102DE000F1F06149C98908445F49C88163480068B6
:102DF00046F2D011884207D85B48007D00F01100F0
:102E000010B10120584988755C48006845F260415E
:102E1000884208D25448007D00F0010018B996207D
:102E20005149C8814FE05548006846F660518842D4
:102E300032D94D48007D00F0010068B35048006869
:102E4000B0F5487F28DA4848807D01281CD14648E3
:102E5000C0894549098A884216DC4348C08942F244
:102E60001071884210DB4048C0893F4908820846FB
:102E7000008A010A0220FDF74AFE3B48017C03203C
:102E8000FDF745FE04E069E03748008A3649C8810D
:102E900000203549887516E03348C0893249098ACF
:102EA000884204DB3048008A2F49C8810BE02E4855
:102EB000C089962803DC96202B49C88103E02A4864
:102EC000C0892949C8812D48006846F6605188426A
:102ED00007D22548007D00F0010010B900202249EA
:102EE00088752148008A642190FBF1F01E49C98948
:102EF00091FBF0F01D49086008460068142811D9BC
:102F00001E48006846F2D01188420BD81C48006861
:102F100010F5FA6F06DB4FF416601349C8811420D0
:102F20001249086011480068052810D91348006844
:102F3000B0F5AF4F0BD81248006810F5FA6F06DBFA
:102F40004FF416700849C881052008490860002020
:102F50000849086006490870074908600348007876
:102F600070BD000080010020A61F00208401002009
:102F7000740100206C010020700100207801002005
:102F80007C01002018480078174949780843164901
:102F9000897808431449C9780843134908730846D7
:102FA000007A497A08431049897A08430E49C97A58
:102FB00008430D49887308460078097A08430A498E
:102FC000C87308464078497A084307490874084698
:102FD0008078897A0843044948740846C078C97AD9
:102FE00008430149887470476C1E002010B54FF4E7
:102FF00080512148FFF771FE48B92048007840F021
:1030000001001E49087000201D49088010E01C487E
:103010000088401C1A49088008460088012807DDFE
:10302000002008801548007800F0FE001349087061
:103030004FF480511348FFF750FE48B90020124961
:1030400008800E48007840F002000C49087010E03B
:103050000D480088401C0C4908800846008801285B
:1030600007DD002008800548007800F0FD000349D6
:1030700008700248007810BD00000240E401002002
:10308000E001002000100240E20100200246002082
:103090002F4BD87349F27040824217DB2D480078DD
:1030A000401C2C4B187000202B4B187029480078BE
:1030B00003284ADB29480078401C284B1870002060
:1030C000244B18700120264B18703EE023480078EE
:1030D000032823DA2148007802280DD121480078FE
:1030E000401C204B187018460078F02804DB0020A4
:1030F0001A4B18701B4B187017480078401C164B61
:1031000018700020134B1870134800780F281CDD2E
:103110000020114B1870124B187016E011480078FF
:10312000401C104B18700120094BD8731846807B47
:10313000012803D00B480078F02806DB0020074B5D
:103140001870074B1870024BD87305480078704709
:10315000A81E00205D0100205E0100205F0100200C
:103160005C01002060010020B8B3012802D00228D1
:103170004CD11AE02749497801F0010121B92549CC
:10318000897801F0010121B142F2D871214A1181FF
:103190000AE02049098942F2D872914204DA1D49B5
:1031A0000989491C1B4A118131E01A49497801F00B
:1031B000020121B91749897801F0020119B10021F2
:1031C000144A118108E013490989002904DD1149D5
:1031D0000989491E0F4A118119E0FFE70D49497815
:1031E00001F0010121B142F2D8710A4A11810CE0CB
:1031F0000849497801F0020119B10021054A1181FD
:1032000003E004490989034A118100E000BF00BFBF
:1032100070470000741F00202DE9F0412DED028B56
:1032200080460D4616461F4640460AF0A0FF41EC78
:10323000180B9FED490B53EC102B0BF0FDF810D23F
:103240004748B0F900000AF092FF41EC180B9FEDDF
:10325000450B53EC102B0AF0B5FF02D24FF4AF54DC
:103260001CE040460AF083FF41EC180B9FED3D0B3C
:1032700053EC102B0AF0A6FF0FD23948B0F900002A
:103280000AF075FF41EC180B9FED330B53EC102B3C
:103290000BF0D2F801D2354C00E000243048008811
:1032A0002044A0EB080000B23080B6F90000C1173E
:1032B00000EB91718910318028460AF058FF41ECEB
:1032C000180B9FED250B53EC102B0BF0B5F80FD21C
:1032D0002748B0F900000AF04AFF41EC180B9FEDB7
:1032E000210B53EC102B0AF06DFF01D21F4C1DE097
:1032F00028460AF03CFF41EC180B9FED1A0B53ECEB
:10330000102B0AF05FFF10D21948B0F900000AF044
:103310002EFF41EC180B9FED100B53EC102B0BF014
:103320008BF802D24FF4AF5400E00024601910492A
:103330000988401A00B23880B7F90000C11700EBC5
:103340009171891039800648A0F8008008480580EE
:10335000BDEC028BBDE8F081000000000068B040C9
:10336000620100200000000000E0954020EAFFFF1D
:103370006401002000BFFEE770B504460D4600EE74
:10338000105AB8EEC00A00F005F900EE104AB8EE87
:10339000C00A00F071F870BD10B50748D0ED050AFD
:1033A000B0EE600A00F0F6F80348D0ED0A0AB0EE7D
:1033B000600A00F061F810BD401F002010B51D48E4
:1033C000007880B11B48007800F0100018B102208E
:1033D00000F044FE07E01748007800F0400010B10C
:1033E000032000F03BFE1348007800F0200018B1E5
:1033F000022000F0E5FE0EE00E48007800F08000AC
:1034000018B1032000F0DCFE05E00A480078092826
:1034100001D1FFF7C1FF0748007800F0F00010B9B4
:103420000020044908700348007808B1FEF7ECFA60
:1034300010BD0000401F00200EB500BF14E0FFF7D4
:10344000BDFF0A48007830B900200949C87402A9B4
:10345000084802F043FD02A8002114230A46CDE9E2
:103460000010084602F03AFEE9E70000401F002085
:10347000A81E00206827002010B52DED088BB0EEA7
:10348000408A354880ED098A90ED090A10EE101A3D
:1034900008460BF0F1F841EC1B0B9FED300B53ECA1
:1034A000102B0AF053FD41EC190B2B4890ED080A44
:1034B00010EE101A08460BF0DFF841EC1A0B53EC33
:1034C000192B0AF0B9FF0BD22348007840F0100006
:1034D000214908700846007820F04000087037E065
:1034E0001D4890ED090A10EE101A08460BF0C4F8BA
:1034F00041EC1B0B9FED190B53EC102B0AF0D2FF84
:1035000041EC190B144890ED080A10EE101A084609
:103510000BF0B2F841EC1A0B53EC192B0AF052FEE7
:103520000BD20D48007840F040000B490870084667
:10353000007820F0100008700AE00748007820F0BA
:103540001000054908700846007820F04000087017
:10355000BDEC088B10BD0000401F002000000000E3
:103560000000E03F70B504460D46012C02D0022C4D
:103570000AD104E02946064808F03BF805E0294650
:10358000034808F038F800E000BF00BF70BD00003D
:103590000008004010B52DED088BB0EE408A35488C
:1035A00080ED048A90ED040A10EE101A08460BF024
:1035B00063F841EC1B0B9FED300B53EC102B0AF022
:1035C00071FF41EC190B2B4890ED030A10EE101A15
:1035D00008460BF051F841EC1A0B53EC192B0AF08A
:1035E000F1FD0BD22348007840F0200021490870FB
:1035F0000846007820F08000087037E01D4890ED04
:10360000040A10EE101A08460BF036F841EC1B0BBA
:103610009FED190B53EC102B0AF098FC41EC190BA1
:10362000144890ED030A10EE101A08460BF024F827
:1036300041EC1A0B53EC192B0AF0FEFE0BD20D488D
:10364000007840F080000B4908700846007820F0B0
:10365000200008700AE00748007820F020000549A3
:1036600008700846007820F080000870BDEC088BD8
:1036700010BD0000401F0020000000000000E03FDF
:1036800010B51248006820F4404010490860084610
:10369000006840F48040086000200D490860022066
:1036A00009F082FD01200B49C1F89802022009F0BF
:1036B0007BFD00200649091F0860022009F074FD07
:1036C00001200449C1F89C0210BD00000004024022
:1036D0009C824042008040421CB50121022005F03E
:1036E00035FFC020009001208DF8040000208DF8E7
:1036F000060003208DF8050001208DF807006946BB
:103700000448FFF77FFA0120034908600349C1F824
:103710009C021CBD0004024098824042008040424E
:1037200010B51048006820F440400E490860084673
:10373000006840F48040086001200B4908600220C6
:1037400009F032FD01200949C1F89802022009F070
:103750002BFD00200449091F0860022009F024FD08
:1037600010BD0000000402409C82404200804042A4
:1037700070B5054600241548006820F44040134900
:103780000860084600680860002615E06006040E20
:1037900001200F490860022009F006FD0D48D0F80D
:1037A0001C0208B1601CC4B2002009490860012055
:1037B00009F0FAFC701CC6B2082EE7DB15B9FFF75A
:1037C000AFFF01E0FFF75CFF204670BD0004024040
:1037D000988240420080404270B504461648006816
:1037E00020F44040144908600846006840F48040D6
:1037F000086000251CE0E009104908606006040E1E
:10380000022009F0D1FC01200D49C1F898020220E4
:1038100009F0CAFC00200949091F0860022009F0CC
:10382000C3FC072D02D1012004490860681CC5B201
:10383000082DE0DB70BD0000000402409C82404285
:103840000080404210B50F48006820F440400D4908
:1038500008600846006840F48040086001200A497A
:1038600008600A49C1F89802042009F09DFC002074
:1038700005490860042009F097FC00200349C1F8BD
:10388000980210BD000402409C82404200804042E9
:1038900010B50E48006820F440400C490860084606
:1038A000006840F480400860012009490860002059
:1038B0000849C1F89C02042009F076FC0120044963
:1038C000091D0860042009F06FFC10BD00040240CF
:1038D000988240420080404210B50024144800689D
:1038E00020F4404012490860084600680860012042
:1038F0001049086009F058FC01200F49C1F89802EE
:1039000009F052FC0AE0601CC4B2FA2C06DD0BA0E0
:10391000FCF7EEFCFFF7BCFF012010BD0548803826
:1039200000680028EFD10349091F086000BFF4E7D1
:10393000000402409C82404200804042696963204A
:1039400074696D656F75740D0A0000000748008882
:10395000401C06490880084600884FF6FF718842DF
:1039600002DB002001490880704700003E01002072
:103970001FB50121022005F0E9FD0121880305F0B2
:1039800015FE0320029000208DF80C0001208DF818
:103990000F0002A91348FFF735F90121084606F088
:1039A0002BF80220009000208DF8040010208DF8E4
:1039B000050001208DF806006846FEF755FF00213E
:1039C000012006F019F80120009000208DF8040075
:1039D00010208DF8050001208DF806006846FEF7DE
:1039E00043FF1FBD000402404CF6CC400149086073
:1039F000704700000030004010B500F013F810BD13
:103A000070B505460C4645F2555000F01FF82846A3
:103A100000F010F8204600F013F800F003F8FFF76C
:103A2000E3FF70BD4AF6AA20014908607047000014
:103A300000300040014948607047000000300040FD
:103A4000014988607047000000300040014908606B
:103A500070470000003000401CB50121042005F033
:103A600075FD2020009001208DF8040000208DF8C5
:103A7000060001208DF8070000208DF8050069463A
:103A80001D48FFF7BFF80121042005F05FFD10205D
:103A9000009001208DF8040000208DF80600012020
:103AA0008DF8070000208DF8050069461248FFF7E1
:103AB000A9F80121082005F049FD4FF4807000901D
:103AC00001208DF8040000208DF8060001208DF8FB
:103AD000070000208DF8050069460848FFF792F8B6
:103AE000102005491A31088020200880C1000348B1
:103AF000FFF7FCF81CBD000000080240000C02406B
:103B00000EB500BF9EE05048006880F480704E49BA
:103B100008604E48007D00F00100A8B14B48007BD2
:103B20005F2806DB10204A4908802020891E088073
:103B300006E010204649891E08802020891C088044
:103B400000204449087060E04048007D00F001001A
:103B5000F8B93E48B0F9020010F57A7F19DD10205F
:103B60003B490880202008803A480078401C3949A9
:103B7000087008460078142847DD0020087005F01A
:103B8000C1FA4FF4967009F0D5FA012005F0BAFA9F
:103B90003BE031480079012808D110202C490880E9
:103BA0002020088000202B4908702EE02B48007947
:103BB00001280AD110202649891E08802020891C4E
:103BC00008800020234908701FE02048007D00F095
:103BD000100070B11E48801F006880F010001C4962
:103BE000891F08602020891D08800020194908705D
:103BF0000BE0102016490880881F006880F0200024
:103C0000891F08600020134908701548007C0128AE
:103C100005D181020C481438FFF76AF808E0104813
:103C2000007C28B94FF4806107481438FFF75EF82C
:103C300002A800214FF4FA730A46CDE900100846A5
:103C400002F04CFA5FE70000140C0240A61F0020AF
:103C50001A080240A9010020C44F00203C50002057
:103C6000A81E00201CB50121082005F06FFC4FF4B0
:103C70007050009001208DF8040000208DF806009F
:103C800001208DF8070000208DF8050069460E48D8
:103C9000FEF7B8FF0121042005F058FC4FF48061C5
:103CA0000948FFF723F84FF400610748FFF71EF8B3
:103CB0004FF480510448FFF719F84FF400510248BF
:103CC000FFF714F81CBD0000000C024001885029C9
:103CD0000BD1204989884F2903DB01211D4AD1706E
:103CE00037E001211B4AD17233E0018859B91949E3
:103CF0008988012903DC0121164AD17029E00221BB
:103D0000144AD17225E0134989880288914210DA59
:103D1000104989880288914205DB00210D4AD17241
:103D20000121D17015E001210A4AD1720021D17020
:103D30000FE0084989880288914205DC0021054A84
:103D4000D1720121D17004E00221024AD172002116
:103D5000D1707047741F00201CB50121042005F0AC
:103D6000F5FB4FF44070009001208DF80400002016
:103D70008DF806008DF8070002208DF805006946D1
:103D80001448FEF73FFF0121084605F0DFFB4FF422
:103D90008070009001208DF8040000208DF806004E
:103DA0008DF8070002208DF8050069460A48FEF7E5
:103DB00029FF4FF480710748FEF79AFF4FF4007116
:103DC0000448FEF793FF4FF480710348FEF78EFF1F
:103DD0001CBD0000000802400000024010B5FEF7C4
:103DE00089FF0A4988800846C0884FF6FF718842DB
:103DF00004D00648801DFFF769FF02E00020034958
:103E0000C8700249C87A00F003F810BD741F002082
:103E100010B50446002C6BD0012C02D0022C72D1BC
:103E200029E00020394988720846407800F00100F6
:103E300020B90846807800F0010028B14FF4807165
:103E40003348FEF755FF15E03048008942F2D8713B
:103E5000884205DB4FF480712D48FEF749FF09E0E9
:103E60004FF400712A48FEF743FF4FF48071284851
:103E7000FEF73CFF48E02548807A012804D1010282
:103E80002348FEF735FF32E02048407800F002007A
:103E900020B91E48807800F00200F0B14FF4807124
:103EA0001B48FEF725FF322009F044F94FF400715A
:103EB0001748FEF71DFF4FF480711548FEF716FFF7
:103EC0004FF4967009F036F94FF480711048FEF700
:103ED0000FFF01200D49887209E04FF400710C4872
:103EE000FEF704FF4FF480710948FEF7FFFE0BE078
:103EF0004FF480710648FEF7FBFE4FF6FF70034952
:103F0000C88001E0FFE700BF00BF10BD741F0020A4
:103F1000000802400EB500BF0AE0FFF75FFF02A8ED
:103F2000002164230A46CDE90010084602F0D6F8C5
:103F3000F3E700001CB50121102005F007FB4FF44A
:103F40000050009000208DF8040001208DF807003B
:103F500003208DF8050069460B48FEF753FE01214A
:103F6000102005F0F3FA4FF48040009000208DF807
:103F7000040001208DF8070003208DF80500694634
:103F80000148FEF73FFE1CBD001002400EB500BF09
:103F90000AE000F099F902A8002105230A46CDE9BC
:103FA0000010084602F09AF8F3E700BFFEE730B5CC
:103FB00005460C4622460021284600F001F830BD97
:103FC0002DE9F04105460B4694460027002402E007
:103FD0003F021F43641C042CFAD3604605F003061D
:103FE000294646B1344603E001F8013B401E641CFB
:103FF00008B1042CF8D30A4601E080C2001F04284F
:10400000FBD2114602E001F8013B401E0028FAD124
:10401000BDE8F08170B503460C464FF6FF710022F3
:1040200014E09E5C00250EE086EA010000F001002D
:1040300020B14AF2010080EA610000E04810014628
:104040007610681CC5B2082DEEDB521CA242E8DBDC
:10405000080240EA212080B270BD000010B52DEDAD
:10406000068B0446022C02D0032C7AD14DE0514835
:1040700090ED0C0A10EE101A08460AF0FDFA41EC19
:104080001A0B9FED4D0B53EC102B09F05FFF41EC29
:10409000180B484890ED080A10EE101A08460AF06E
:1040A000EBFA41EC190B53EC182B0AF0C5F916D8B2
:1040B000404890ED080A10EE101A08460AF0DCFAA3
:1040C00041EC190B9FED3C0B53EC102B0AF0EAF975
:1040D00041EC180B09F008FF3649086204E0354846
:1040E00090ED0C0A80ED080A324890F9090001EEC3
:1040F000100AB8EEC11AF0EE410A2E4890ED081AE7
:10410000B0EE410A06F0E0FB50E02A4890ED0B0AC1
:1041100010EE101A08460AF0AFFA41EC1A0B9FEDA8
:10412000260B53EC102B0AF0BDF941EC180B21487B
:1041300090ED080A10EE101A08460AF09DFA41ECBC
:10414000190B53EC182B0AF03DF818D8194890EDCC
:10415000080A10EE101A08460AF08EFA41EC190B04
:1041600000E022E09FED140B53EC102B09F0EEFE63
:1041700041EC180B09F0B8FE0E49086204E00D4846
:1041800090ED0B0A80ED080A0A4890F9090001EE4B
:10419000100AB8EEC11AF0EE410A064890ED081A6E
:1041A000B0EE410A06F090FB00E000BF00BFBDEC9E
:1041B000068B10BD401F0020000000000000E03F03
:1041C00010B52DED048B0446022C02D0032C60D1D7
:1041D0002FE0324890ED030AD0ED060AB4EEE00A73
:1041E000F1EE10FA14D290ED030A10EE101A084600
:1041F0000AF042FA41EC190B9FED290B53EC102BFE
:1042000009F0A4FE41EC180B09F06EFE2349C860CA
:10421000224890F90A0001EE100AB8EEC11AF0EE39
:10422000410A1E4890ED031AB0EE410A06F076FBF3
:1042300030E01A4890ED030AD0ED070AB4EEE00A28
:10424000F1EE10FA14DD90ED030A10EE101A084694
:104250000AF012FA41EC190B9FED110B53EC102BE5
:104260000AF020F941EC180B09F03EFE0B49C8603A
:104270000A4890F90A0001EE100AB8EEC11AF0EEF1
:10428000410A064890ED031AB0EE410A06F046FBDB
:1042900000E000BF00BFBDEC048B10BD401F00203C
:1042A000000000000000E03F06488089401C0549EE
:1042B00088810846C089401CC8810846008A401C85
:1042C00008827047DC1E00202DE9FC5FC048407961
:1042D00001287DD10A2008F067FF0020BC49487101
:1042E0004880087108468079012872D1487800EB2F
:1042F000D0714910A0EB410121B1B5484078401E72
:10430000B3494870B2484078401EB149891D0A5CE3
:10431000881F4078801E085C42EA0026881F40788B
:10432000811EAB48801DFFF775FE074637463E46A7
:10433000B742DAD1A64890F80780B8F1430F36D0DB
:10434000B8F1440F7ED0B8F1450F7CD0B8F1EA0F38
:104350002CD1017A407A41EA002000B29D4988813F
:104360009B48817AC07A41EA002000B29949C8810D
:104370000846808928B90846C08910B901204877C5
:1043800002E00020934948779348007970B9934838
:10439000808BB0F5FA6F09DA8E48C08983B28D48F8
:1043A000808982B2FF21012005F08AFE0AE1884857
:1043B000417A007A41EA00248548C17A807A41EA4C
:1043C0000025B4F5A04F16D1B5F5A24F13D101E0E9
:1043D000FCE0F8E07E48417B007B41EA002000B22F
:1043E0007C4908827A48C17B807B41EA002000B288
:1043F0007849488244E045F20200844203D145F204
:10440000021085423CD045F20400844238D145F286
:104410000410854234D16E48417B007B41EA002084
:104420006C49C8826A48C17B807B41EA00206949A7
:1044300088820A46D28A11B2664A928A10B2684BC2
:104440009A1E01E01DE05CE0FEF7E6FE624800799E
:1044500088B96248C08B41F2883188420BDA6048E3
:10446000801E01680091406803460A46FF210190C2
:10447000012005F02FFD00205949891E0880488041
:10448000A0E05348417A007A41EA00245048C17ABA
:10449000807A41EA002542F21830844210D143F27A
:1044A000183085420CD14A4A537B127B43EA0222E0
:1044B00010B2474AD37B927B43EA022211B21FE03B
:1044C000B4F5045F1CD1B5F5445F19D1404890F8AC
:1044D0000DB0C07B0190BBF1010F02D00198012803
:1044E00003D101203B49087702E0002039490877D1
:1044F000384AB2F90210B2F9000006F04BF900BFD9
:1045000060E03348417A007A41EA00243048C17AB9
:10451000807A41EA002542F21060844203D042F2E0
:10452000206084424DD12A48417B007B41EA002033
:1045300000B2284988812648C17B807B41EA00205F
:1045400000B22449C8812248417C007C41EA002015
:104550000FFA80F91E48C17C807C41EA00200FFAE6
:1045600080FA1F48801E0088484400B21C49891EFA
:10457000088008464088504400B248801448417D75
:10458000007D41EA002000B2124908831048C17D35
:10459000807D41EA002000B20E4948830E48007930
:1045A00078B90E48808B41F28831884209DA09488F
:1045B000C08983B20748808982B2FF21012005F0BB
:1045C0007FFD00BF00BF002001494870BDE8FC9F8F
:1045D0003C500020801F0020C44F0020A81E002057
:1045E000120100200020054908778881C88188824F
:1045F000C88248800880887770470000801F0020AC
:10460000704708B54FF4C06000F010F925208DF810
:10461000000001208DF8010007208DF80200012024
:104620008DF80300684600F0C5F826208DF80000DC
:1046300001208DF8010006208DF8020001208DF880
:104640000300684600F0B6F827208DF8000000202F
:104650008DF8010004208DF8020001208DF8030080
:10466000684600F0A7F834208DF8000000208DF88F
:10467000010005208DF8020001208DF80300684636
:1046800000F098F835208DF8000001208DF8010029
:1046900000208DF8020001208DF80300684600F02C
:1046A00089F819208DF8000000208DF801000620FF
:1046B0008DF8020001208DF80300684600F07AF8BA
:1046C0002E208DF8000000208DF8010007208DF8C5
:1046D000020001208DF80300684600F06BF81C20F2
:1046E0008DF8000001208DF8010007208DF80200F0
:1046F00001208DF80300684600F05CF837208DF843
:10470000000001208DF8010006208DF80200012034
:104710008DF80300684600F04DF838208DF8000051
:1047200001208DF8010005208DF8020001208DF890
:104730000300684600F03EF806208DF800000020D7
:104740008DF8010002208DF8020001208DF8030091
:10475000684600F02FF807208DF8000000208DF843
:10476000010003208DF8020001208DF80300684647
:1047700000F020F817208DF8000001208DF80100CE
:1047800003208DF8020001208DF80300684600F038
:1047900011F828208DF8000001208DF80100042078
:1047A0008DF8020001208DF80300684600F002F841
:1047B00008BD000070B5002100230F22C4781CB38F
:1047C000174C246804F4E064C4F5E064C4F30721E2
:1047D000C1F10404E3B20A4144789C40E1B2847818
:1047E000144021430C07210E0E4C057861550478C6
:1047F00004F01F050124AC4005786D11AD0005F1F2
:10480000E025C5F8004109E0047804F01F05012403
:10481000AC40054D0678761145F8264070BD000085
:104820000CED00E000E400E080E100E0024901431B
:10483000024A1160704700000000FA050CED00E02C
:104840001548164816481748174818481848194870
:1048500019481A481A481B481B481C481C481D4840
:104860001D481E481E481F481F4820482048214810
:1048700021482248224823482348244824482548E0
:1048800025482648264827482748284828482948B0
:10489000294800BF7047000010E8000870E70008D2
:1048A00074E7000878E700087CE7000880E7000864
:1048B00084E7000888E700088CE7000890E7000814
:1048C00094E7000898E700089CE70008A0E70008C4
:1048D000A4E70008A8E70008ACE70008B0E7000874
:1048E000B4E70008B8E70008BCE70008C0E7000824
:1048F000C4E70008C8E70008CCE70008D0E70008D4
:10490000D4E70008D8E70008DCE70008E0E7000883
:10491000E4E70008E8E70008ECE70008F0E7000833
:10492000F4E70008F8E70008FCE7000800E80008E2
:1049300004E8000808E800080CE8000810B503487F
:10494000006810B101480068804710BD2C000020AD
:1049500070B5044600F0C2F8002048490870484984
:104960000870484908704849086048490860484943
:104970000870484908704849087048490860484923
:1049800008604849086048490870484800680A219A
:10499000B0FBF1F0464908604648006858B1464807
:1049A000056845B14348066803E0761E002028608C
:1049B0002D1D002EF9D100204049086040490860B3
:1049C0004049086040490860404908604049086023
:1049D000404908604049087002F088FC02F068FD18
:1049E000204601F0FBFD208800B170BD204602F09A
:1049F000DDF9208800B1F8E7204602F0FFF92088B1
:104A000000B1F2E7204602F0E3FA208800B1ECE7BB
:104A1000204602F09BFC208800B1E6E7204602F029
:104A2000D3FE208800B1E0E7204603F0F5F92088A6
:104A300000B1DAE7204602F025F9208800B1D4E77A
:104A4000204601F03DFF208800B1CEE7204604F06B
:104A500053F9208800B1C8E7204603F021F92088E7
:104A600000B1C2E7204604F0B7F9208800B1BCE7E6
:104A700001F0DCFCFFF7E4FE00BFB6E740000020D9
:104A80004100002088000020E0000020E400002019
:104A90006E0000206F000020700000207C000020CD
:104AA000800000208400002090000020D0E7000853
:104AB0008C000020A0E700089CE7000820000020F0
:104AC00024000020280000202C00002030000020BE
:104AD0003400002038000020BE0000200648006896
:104AE0000649096800EB810005490860084600682E
:104AF00020F00700086070479CE70008A0E7000866
:104B00001400002008480078012800D070470748AA
:104B10000078FA2800DBF9E704480078401C0349D4
:104B2000087000BFF2E700004100002040000020B4
:104B300010B500242D480078012800D010BD00BF1A
:104B4000FBF7BEFB044600BF2948007828B900BF28
:104B50002046FBF7B9FB00BFF0E725480078401E70
:104B60002349087008460078002805DD00BF20466C
:104B7000FBF7AAFB00BFE1E71E480078002805DD2F
:104B800000BF2046FBF7A0FB00BFD7E702F09AFB6F
:104B9000194908700846007800EB4000174951F8A1
:104BA00020001749086008460068164909688842CD
:104BB00005D100BF2046FBF787FB00BFBEE71048CA
:104BC0000068D0F89000401C0D490968C1F89000B9
:104BD0000D480068401C0C490860FBF795FD00BFBC
:104BE0002046FBF771FB00BF00BFA7E74100002094
:104BF00040000020880000206F0000205418002092
:104C0000E4000020E0000020B40000202DE9F04185
:104C100004460E461546002729480078002804DD82
:104C200042F6E1602880BDE8F0811CB945F6C3502A
:104C30002880F8E700BF00BF00BFFBF741FB074635
:104C400000BF00BF1F480078401C1E49087000BF0D
:104C500000BF3846FBF738FB00BF00BF00BF1A4853
:104C6000206066600020206284F82500A062402059
:104C700084F8240004F1080002F03EFA204602F015
:104C80008FF912480088401C1049088000BF00BFFF
:104C900000BFFBF715FB074600BF00BF09480078BF
:104CA000401E0849087000BF00BF3846FBF70CFBE8
:104CB00000BF00BF00BF0020288000BFB3E7000096
:104CC00040000020880000204D5554586C00002002
:104CD00010B500241F480078002800DD10BD1E48D4
:104CE0000078002800DDF9E700BFFBF7E9FA044689
:104CF00000BF02F0E7FA194908700846007800EB97
:104D00004000174951F8200016490860084600681D
:104D100015490968884205D100BF2046FBF7D4FA3F
:104D200000BFDBE70F480068D0F89000401C0D4939
:104D30000968C1F890000D480068401C0B490860E4
:104D4000FBF7DDFC00BF2046FBF7BEFA00BF00BF4B
:104D5000C4E7000040000020880000206F00002011
:104D600054180020E4000020E0000020B4000020DF
:104D700070B50446002518480078002803DD46F683
:104D80006250208070BD15480078012803D045F698
:104D900089602080F6E712480078FA2803DB45F2A4
:104DA00009202080EEE700BF00BFFBF789FA054627
:104DB00000BF00BF0A480078401C0949087002F093
:104DC00057FC00BF00BF2846FBF77EFA00BF00BFBC
:104DD0000020208000BFD5E74000002041000020D7
:104DE000880000202DE9F04105460C4616460027B4
:104DF00000BF00BFFBF764FA074600BF00BF012DEC
:104E000003D000200D49087002E001200B49087012
:104E100014B10B48046006E00A4800680A21B0FBA0
:104E2000F1F00749086000BF00BF3846FBF74CFAB5
:104E300000BF00BF00203080BDE8F081900000205E
:104E40008C000020D0E7000870B5044600252048FB
:104E50000078002803DD46F66550208070BD1D48AF
:104E60000078012803D045F689602080F6E71A48CB
:104E7000007818B946F664502080EFE700BF00BF05
:104E8000FBF71EFA054600BF00BF13480078401E1E
:104E9000114908700846007800280ADD00BF00BFED
:104EA0002846FBF711FA00BF00BF46F6635020808A
:104EB000D4E702F0EBFB00BF00BF2846FBF704FA83
:104EC00000BF00BFFFF704FF0020208000BFC5E740
:104ED0004000002041000020880000202DE9F04122
:104EE00004460E4617461D464FF000082648007837
:104EF000002804DD42F6E1602880BDE8F0811CB99D
:104F000045F6C3502880F8E700BF00BF00BFFBF79D
:104F1000D7F9804600BF00BF1C480078401C1B49E1
:104F2000087000BF00BF4046FBF7CEF900BF00BFCE
:104F300000BF17482060276200206062666004F1AD
:104F4000080002F0D9F8204602F026FC114800883B
:104F5000401C1049088000BF00BF00BFFBF7B0F93C
:104F6000804600BF00BF09480078401E074908700E
:104F700000BF00BF4046FBF7A7F900BF00BF00BF5E
:104F80000020288000BFB8E74000002088000020F3
:104F900053454D41980000202DE9F04788B0064662
:104FA000894690461C46109D4FF0000A6E480078D6
:104FB000002806DD46F2AE102880002008B0BDE8CB
:104FC000F08726B945F6C35028800020F6E7B8F1EF
:104FD000000F03D0B8F5004F02D100E000BF04E09D
:104FE00045F6256028800020E8E700BF5F4930686B
:104FF000884204D045F6C45028800020DEE70CB17A
:105000000020206000BF00BFFBF75AF9824600BFB6
:1050100000BF306A88B1306A401E30620CB1706ADD
:105020002060376A00BF00BF5046FBF74DF900BF54
:1050300000BF002028803846C0E708F4004060B177
:10504000376A00BF00BF5046FBF73EF900BF00BF04
:1050500046F2B01028803846B0E74548007800286E
:105060000BDD00BF00BF5046FBF72EF900BF00BFAD
:1050700046F6635028800020A0E700BF3C48007837
:10508000401C3B49087000BF00BF5046FBF71CF9AD
:1050900000BF00BF00BF4B4606223146684601F004
:1050A000A3FF00BF00BF00BFFBF70AF9824600BFA5
:1050B00000BF2F480078401E2D49087000BF00BF78
:1050C0005046FBF701F900BF00BF00BFFFF700FE2D
:1050D00000BF00BFFBF7F4F8824600BF00BF2548C1
:1050E000006890F8350030B101280CD002281AD0A1
:1050F000032821D110E01CB11E480068006C20601C
:105100000020288024E01CB11A480068006C206050
:1051100046F2A91028801BE00CB10020206047F265
:10512000D920288014E01CB112480068006C20606F
:1051300045F6C25028800BE046F62E60288000BF5E
:1051400000BF5046FBF7C0F800BF00BF002035E7A6
:1051500000BF376A00BF00BF5046FBF7B5F800BF7D
:1051600000BF38462AE700004000002053454D416B
:1051700088000020E00000202DE9FF4105460F4691
:10518000144635B945F6C3502080002004B0BDE870
:10519000F0814FB1B7F5007F07D0B7F5004F05D0CC
:1051A000B7F5024F04D102E000BF00BF00BF04E02A
:1051B00045F6256020800020E8E700BF12492868F6
:1051C000884204D045F6C45020800020DEE7FCF77A
:1051D000DDFA06460D48007800280CDD0020034665
:1051E00002462946CDE9017603940090064801F075
:1051F0009FFB0020CAE7234632463946284602F084
:10520000EFFA80464046C1E753454D41400000203B
:1052100010B5044612480078E8B902F053F8114975
:10522000087008460078104908700E48007800EBB6
:1052300040000E4951F820000D49086008460068FA
:105240000C490860012006490870FBF747FA43F64D
:105250009920208002E045F68A60208010BD000081
:10526000410000206F0000206E0000205418002034
:10527000E4000020E00000202DE9F04107464FF057
:10528000000800BF00BFFBF71BF8804600BF00BF4F
:1052900000203D4908603D4908803D4908803D495E
:1052A00008603D4908603D4908603D4908603D4946
:1052B000088100BF00BF4046FBF706F800BF00BFF3
:1052C00000BF00BFFAF7FCFF804600BF00BF3648B2
:1052D000046800BF00BF4046FAF7F6FF00BF00BFFA
:1052E00021E000BF00BFFAF7EBFF804600BF00BF20
:1052F00000207834E06320602063A061A082E08217
:105300006062A062FCF742FA2062783C04F1640615
:105310000020B081D4F8BC4000BF00BF4046FAF77F
:10532000D3FF00BF00BF002CDBD100BF00BFFAF7E6
:10533000C7FF804600BF00BF1C48056800BF00BF14
:105340004046FAF7C1FF00BF00BF12E000BF00BF38
:10535000FAF7B6FF804600BF00BF05F12006002027
:10536000B081AD6900BF00BF4046FAF7ADFF00BF96
:1053700000BF002DEAD103F09BFB03F029FE0020C3
:105380003880BDE8F0810000540000204E0000206D
:105390009E000020B0000020C4000020D0000020AB
:1053A0008000002048180020B80000207400002071
:1053B000F8B5044600266946324800F08FFDBDF876
:1053C000000018B1BDF800002080F8BD6A46002139
:1053D000022000F0F7FDBDF8000018B1BDF8000094
:1053E0002080F2E700BF00BFFAF76AFF064600BF61
:1053F00000BF00202449086000BF00BF3046FAF714
:1054000063FF00BF00BF00252048006820490968ED
:10541000884205D91D4800681D490968B0FBF1F5AF
:1054200025B91A4800680A21B0FBF1F56A46002147
:10543000284600F0C7FD6946124800F063FABDF83F
:10544000000018B1BDF800002080BEE700BF00BF1B
:10545000FAF736FF064600BF00BF00200D4908607E
:10546000094800680C49086001200C49087000BF19
:1054700000BF3046FAF728FF00BF00BF00202080A1
:1054800000BFA2E7DC1C0020A0000020D0E700083D
:10549000B8E70008B0000020A4000020AC00002005
:1054A00010B50348006810B101480068804710BD7E
:1054B000300000202DE9FF4F87B004469046DDE91B
:1054C0001BA5DDE91496179F0020039087480078FC
:1054D000002805DD47F24A1028800BB0BDE8F08FA8
:1054E0001CB947F2AD102880F7E7B8F1000F03D1DF
:1054F00047F24F102880F0E71EB946F62F6028804B
:10550000EBE77B480068874203D246F6306028808C
:10551000E3E71698B84203D346F631602880DCE70B
:10552000B9F1400F03D346F273202880D5E7B9F1D3
:10553000000F06D16F48844203D046F273202880C2
:10554000CBE7B9F13F0F06D16B48844203D046F256
:1055500073202880C1E7204602F06EFC00202880DE
:105560000AF0010090B10AF0020078B1059600201F
:10557000069008E00021059801600598001D05903F
:105580000698401C06900698B842F3D3169806EB8E
:1055900080000490CDE9007A32464046049B0A9987
:1055A00000F06EFB0590C4F828800A98E062089825
:1055B000206284F83790059820600498A0601998BC
:1055C0006065199818B94D480068A06501E0199800
:1055D000A0651A9860606662A763A4F83CA04FF0CB
:1055E000000B08E0002104F17C0040F82B100BF1C7
:1055F000010000F0FF0BBBF1000FF3D004F16400D9
:10560000189901F047FC204600F082F800BF00BF67
:1056100000BFFAF755FE039000BF00BF384800787E
:10562000401C3749087000BF00BF0398FAF74CFED2
:1056300000BF00BF00BF94F8370001F063FE2046B2
:1056400001F07EFF204602F0ADFB2E480088401C92
:105650002C4908802C48007801282DD000BF00BFBD
:1056600000BFFAF72DFE039000BF00BF244800786A
:10567000401E2349087008460078A0B923480088D6
:10568000002809DD00BF00BF0398FAF71DFE00BF28
:1056900000BF01F0C3FF0DE000BF00BF0398FAF7A1
:1056A00013FE00BF06E000BF00BF0398FAF70CFE30
:1056B00000BF00BF00BF10E700BF00BF00BFFAF788
:1056C000FFFD039000BF00BF0D480078401E0C494D
:1056D000087000BF00BF0398FAF7F6FD00BF00BFD7
:1056E00000BFFFF7F5FA00BFF7E60000400000201A
:1056F000CCE7000884170020C01600208C00002092
:1057000088000020BC000020410000204C00002048
:1057100010B504460348006818B1204601490968DD
:10572000884710BD2000002070B504460D460026B5
:1057300067480078002803DD47F24E10288070BDCE
:105740006448844203D147F24C102880F7E762484E
:10575000844203D147F24D102880F0E77CB900BFA6
:1057600000BFFAF7ADFD064600BF00BF5B48046806
:1057700000BF00BF3046FAF7A7FD00BF00BF00BF63
:1057800000BF00BFFAF79CFD064600BF00BF5448AB
:105790000078401C5249087000BF00BF3046FAF73D
:1057A00093FD00BF00BF00BF94F8360008282DD23B
:1057B000DFE800F004090E10080A0F11204601F07E
:1057C000FFFE54E053E000BF204603F055F94EE0E1
:1057D00000BF00BF00BF204603F04EF994F834002C
:1057E000082810D2DFE800F004070508090A0B06B4
:1057F00000BF00BF08E000BF00BF00BF00BF2046E1
:1058000001F0B2FC00E000BF00BF30E000BF00BF0D
:1058100000BFFAF755FD064600BF00BF30480078CC
:10582000401E2F49087008460078A0B92D4800880E
:10583000002809DD00BF00BF3046FAF745FD00BF74
:1058400000BF01F0EBFE0DE000BF00BF3046FAF7ED
:105850003BFD00BF06E000BF00BF3046FAF734FD55
:1058600000BF00BF00BF46F62D60288067E700BF7D
:1058700004F1640001F0ECFA204600F037F820460D
:1058800002F0A8FA18480088401E174908802046F0
:1058900002F0D2FAFF2084F8360000BF00BF00BF3C
:1058A000FAF70EFD064600BF00BF0D480078401E07
:1058B0000B49087000BF00BF3046FAF705FD00BF76
:1058C00000BF00BF00202880FFF702FA00BF36E7C4
:1058D00040000020C016002084170020E0000020B7
:1058E000880000204C000020BC00002010B50446B9
:1058F0000348006818B1204601490968884710BD6F
:10590000240000207FB504460D46002600BF00BFDE
:10591000FAF7D6FC064600BF00BF1CB11548006868
:1059200084420AD100BF00BF3046FAF7CDFC00BF69
:1059300000BF47F2571028807FBD00BF00BF304630
:10594000FAF7C2FC00BF00BF0B48007800280BDD4F
:10595000002000900190034602462146CDE9020551
:10596000064800F0E5FFE7E72946204602F0DCFBA9
:1059700000BFE1E7E0000020400000205452455302
:1059800010B504460348006818B12046014909686B
:10599000884710BD280000202DE9F04780460E46BC
:1059A00014461D464FF000097D480078002805DDAB
:1059B00046F2AE1028800020BDE8F0871EB1B6F593
:1059C000004F02D100E000BF04E045F625602880CA
:1059D0000020F1E700BF0CB10020206000BF00BF35
:1059E000FAF76EFC814600BF00BF6E480068406C4D
:1059F000A8B36C480068406C401E6A490968486456
:105A000068480068476C1CB166480068006C2060FC
:105A1000FBF7BCFE63490968096C401A61490968D3
:105A2000C1F8A4005F480068D0F8A8005D49096883
:105A3000D1F8A410884207D25A480068D0F8A400D0
:105A400058490968C1F8A80000BF00BF4846FAF7E6
:105A50003BFC00BF00BF002028803846ACE7FFE7D2
:105A600006F4004058B100BF00BF4846FAF72CFCCE
:105A700000BF00BF46F2B010288000209CE74A48D3
:105A8000007800280BDD00BF00BF4846FAF71CFC79
:105A900000BF00BF46F66350288000208CE700BF9F
:105AA00041480078401C4049087000BF00BF48468C
:105AB000FAF70AFC00BF00BF00BF434607220021DF
:105AC000084601F091FA00BF00BF00BFFAF7F8FBEB
:105AD000814600BF00BF34480078401E324908703C
